:1000000000000120E102000009030000911100003E
:100010000D0300000F0300001103000000000000AA
:1000200000000000000000000000000013030000BA
:100030001503000000000000170300001903000072
:10004000D91E00001B030000391F00001B03000025
:100050001B030000493100001B0300001B030000CC
:100060001B0300001B0300001B0300001B03000018
:100070001B0300001B0300001B0300001B03000008
:100080001B0300001B0300001B0300001B030000F8
:100090001B0300001B0300001B0300001B030000E8
:1000A0001B0300001B0300001B030000A12D000028
:1000B0001B0300001B030000000000000000000004
:1000C0001B0300001B0300001B0300001B030000B8
:1000D0001B0300001B0300001B03000000000000C6
:1000E0000000000000000000000000000000000010
:1000F0000000000000000000000000000000000000
:1001000000000000000000000000000000000000EF
:1001100000000000000000000000000000000000DF
:1001200000000000000000000000000000000000CF
:1001300000000000000000000000000000000000BF
:1001400000000000000000000000000000000000AF
:10015000000000000000000000000000000000009F
:10016000000000000000000000000000000000008F
:10017000000000000000000000000000000000007F
:10018000000000000000000000000000000000006F
:10019000000000000000000000000000000000005F
:1001A000000000000000000000000000000000004F
:1001B000000000000000000000000000000000003F
:1001C000000000000000000000000000000000002F
:1001D000000000000000000000000000000000001F
:1001E000000000000000000000000000000000000F
:1001F00000000000000000000000000000000000FF
:1002000010B5054C237833B9044B13B10448AFF350
:1002100000800123237010BDFC01002000000000BD
:10022000F44500000C4B43B10C480D4910B5AFF339
:1002300000800C48036823B910BD0A48036833B92D
:100240007047094B002BF7D0BDE810401847064B0C
:10025000002BF5D0184700BF00000000F445000057
:1002600000020020F801002000000000154B002BC8
:1002700008BF134B9D46A3F5803A00218B460F46DD
:100280001348144A121A03F0BAFC0F4B002B00D08B
:1002900098470E4B002B00D0984700200021040007
:1002A0000D000D48002802D00C48AFF3008003F089
:1002B00057FC2000290002F03BFB03F03DFC00BF8F
:1002C0000000080000000120000000000000000005
:1002D000FC010020100A00200000000000000000C7
:1002E0000649074A074B9B1A03DD043BC858D05008
:1002F000FBDC02F067FBFFF7B9FF00005C46000083
:1003000000000020FC010020FEE7FEE7FEE7FEE71C
:10031000FEE7FEE7FEE7FEE7FEE7FEE7F0B595B095
:10032000002415460F4608461E4601F0FBFB3846E2
:1003300023460822089505A91A9D09960D950A9449
:100340008DF82C400C9401F049FC9DF8143007986E
:1003500006998DF8114003F00302012A02900391DF
:1003600028D0022A04D0384601F0E0FB15B0F0BDD9
:10037000BDF81650C3F3C2038DF81030C5F38915CC
:100380000826082D2C4628BF0824334622460EA9ED
:10039000384601F023FC2D1B214608AB02AA0EA80B
:1003A000264400F0ADFD002DEBD1384601F0BEFB38
:1003B00015B0F0BDBDF81460059DC6F38316C3F3F8
:1003C000C204B2000EA9384608238DF81040C5F3C8
:1003D000952501F003FC08AB0093324628460EA990
:1003E00002AB00F0E7FCBEE7014B01221A70704738
:1003F0005C020020704700BF00B583B0044B00933F
:10040000044A4023FFF78AFF03B05DF804FB00BFF6
:10041000190400001C02002038B50E480E4D037868
:100420000E4CEB5C00252570D2B253B90C3001F0B4
:10043000C7FF58B90A4B1B7813B12378002BFCD0A7
:1004400038BD043002F00EFA0028F3D000F046FE6A
:10045000F0E700BF000000200C0900205C02002033
:100460001802002070B51348134A0378D35C88B093
:10047000DBB90C3001F03EFF104D0FCD6C460FC4C0
:1004800095E80F0008AD142645F8206D84E80F00AC
:1004900029460022074801F097FC08B100F01EFE33
:1004A000074B00221A7008B070BD043002F072F9D8
:1004B000E2E700BF000000200C090020543C0000CF
:1004C0001802002070B50D4D0FCD88B06C460FC4DA
:1004D00095E80F0008AD142645F8206D84E80F005C
:1004E0002946074A074801F06FFC08B100F0F6FD05
:1004F000054B01221A7008B070BD00BF543C0000CB
:10050000E9030000000000201802002008B5FFF7F2
:10051000D9FF0421034800F005FC034B01225A7166
:1005200008BD00BF3046000014000020F0B5334D78
:1005300085B005F5836000F009FF05F2144000F076
:1005400005FF6B68AE6803EA0600C11C05EB81027B
:1005500015F8214014F004040ED0117801F00301C5
:1005600001293BD0022903F1020700F1030126D043
:1005700005EB8102002CF0D105EB80005A1CC1680C
:100580000191324005EB820201F00301D268029230
:10059000012903F1020429D0022925D1BDF8063032
:1005A000BDF80A60C3F38913033304EB93041448C2
:1005B00000F0DAFE00B16C60304605B0F0BD538843
:1005C00007EB931306EA0300C11C05EB810215F843
:1005D000214004F00404002CBFD1CDE71188023380
:1005E000C1F383110B44EDE70026E0E7BDF80430CA
:1005F000BDF80A60C3F383131C44D8E7300300201E
:10060000440700200B4B0C4810B50022FF21C3F813
:10061000182499601A605A60C3F8142483F82024BF
:1006200001F036FA044610B9044801F00DFB2046EB
:1006300010BD00BF3003002040460000943C000085
:1006400021B9114B03EBC0000068704730B40F4A6A
:100650000D4C121BD2080CD00D4D2B88834210D0AC
:10066000002303E035F82310814205D001339A427C
:10067000F8D1002030BC704704EBC300006830BCE8
:1006800070472046FAE700BFF845000030460000FA
:10069000FC010020094B013903EBC00003290BD8F2
:1006A000DFE801F002080604022070474079704735
:1006B000007970470420704700207047F84500001B
:1006C0002DE9F047914C94E80C009A4284B000F078
:1006D000B6800023C4F81834BFF34F8F6368A56851
:1006E00003EA0501CA1C04EB820614F82220500715
:1006F0001AD52768327802F00302012A43D0022A71
:1007000003F1020202D1738802EB931305EA03019D
:10071000D4F81804CA1C04EB820628B99F4238D9C1
:1007200014F822205207E5D404EB81015A1CC96851
:1007300001912A4004EB820201F00301D268029287
:10074000022903F1020828D001297CD0D4F81054E2
:100750003DB12B6828469B689847EB681D68002DC3
:10076000F7D16B486B4B6C49C01AC008000440F0CD
:10077000020000F0D7F860682368C01A18BF012093
:1007800004B0BDE8F08732880233C2F38312134409
:10079000BCE7676004B0BDE8F087BDF806305F488D
:1007A000C3F389194F46502FA8BF502767F38F1303
:1007B00007F10801ADF8063001F06CF90646002893
:1007C000C4D025EA080A0AF1010A01F0ABF94FEAA0
:1007D0008A0A0023082201A9304601F0C9F95745C9
:1007E0006ED9BAF1000F7AD13A4608234C49304607
:1007F00001F0BEF909F1030708EB9707D4F81834A4
:10080000002B68D1D4F810545DB1EB685A793146A9
:1008100028461AB12B681B689847EB681D68002DA5
:10082000F3D1304601F082F9002000F09FFCD4F8AB
:10083000183403B96760002000F0A0FC9BE700209B
:1008400004B0BDE8F087BDF804303448C3F3831228
:10085000062A28BF0622911C62F389138900ADF88D
:10086000043001F017F9064600283FF46FAF01F09D
:1008700059F90023082201A9304601F079F9BDF8A1
:10088000043013F4707F3FD04FF0000A4FF0080996
:1008900005EA080103314B4604EB8101042230468E
:1008A00001F066F9BDF804300AF1010AC3F38313BD
:1008B00008F10107534509F10409B846E8D89DE756
:1008C00005EA0801033104EB81013A46082330466A
:1008D00001F04EF98EE7304601F028F94BE705EAC2
:1008E00008010331A7EB0A0504EB810152463046AB
:1008F000EDB2082301F03CF92A460AF10803084941
:10090000304601F035F975E7474677E730030020B8
:1009100018460000F8450000A03C000040460000DA
:100920003C0300202DE9F843DFF8D890074600206B
:100930008846D9F8085000F019FCD9F80820D9F8F1
:100940000430D9F80060134401339B1B012B55D8A8
:1009500009F21C440121204600F0DCFCFFF7E6FD13
:100960000146204600F0D6FC99E80A00D9F8082094
:10097000134401335B1A012BECD901240A400332E2
:1009800044F004036FF3891349F822300231002048
:10099000C9F8001000F0F2FB0021194800F0AEFC8D
:1009A00080F3100033192B4009EB8303000435401A
:1009B000033540EA1740D86019F8253067F3C503BE
:1009C00009F8253039F825306FF3891329F82530D7
:1009D00059F8252068F39F22134664F301036FF34F
:1009E000820349F8252009F8253099F820341BB1F5
:1009F000FFF766FE0028FBD1BDE8F8833146BCE76F
:100A00004C070020300300202DE9F047354C80468C
:100A1000002092468946A56800F0A8FBA26863689A
:100A2000276813440133DB1B022B59D804F21C4600
:100A30000121304600F06EFCFFF778FD014630469C
:100A400000F068FC94E80A00A268134401335B1AC2
:100A5000022BEDD901260A40033246F0040366F367
:100A6000891344F8223003310020216000F086FB16
:100A7000BB1C2B4004EB830300211B48C3F80CA0D4
:100A800000F03CFC80F31000BB192B4004EB830307
:100A900000043D40033540EA1840D86014F8253082
:100AA00068F3C50304F8253034F8253066F389135C
:100AB00024F8253054F8252069F39F22134666F365
:100AC00001036FF3820344F8252004F8253094F8DD
:100AD00020341BB1FFF7F4FD0028FBD1BDE8F087FF
:100AE0003946B7E7300300204C0700202DE9F04FCE
:100AF0003F4C83B08046002089460193A668934608
:100B000000F034FBA168636827680B440133DB1BEA
:100B1000042B6BD804F21C450121284600F0FAFB97
:100B2000FFF704FD0146284600F0F4FB94E80C00B2
:100B3000A1680B4401339B1A042BEDD90125114008
:100B40004FF0030A033145F0040305326AF38913B9
:100B5000002044F82130226000F010FBB81C07EBA5
:100B60000A0E30400EEA060E3A1D324004EB8000B9
:100B700004EB8E0E04EB8202019BC0F80CB0002146
:100B8000CEF80C301B480C9BD36000F0B7FB80F311
:100B900010007A19324004EB820200043E405644B1
:100BA00040EA1840D06014F8262068F3C50204F823
:100BB000262034F826206AF3891224F8262054F8D7
:100BC000262069F39F22134665F301036FF3820326
:100BD00044F8262004F8263094F820341BB1FFF79F
:100BE0006FFD0028FBD103B0BDE8F08F3A46A5E7C2
:100BF000300300204C0700202DE9F04F87B0474C10
:100C0000109D0393804699460020119B02929246C4
:100C10000593A66804958B4600F0A8FAA26863685D
:100C2000276813440133DB1B052B74D804F21C45E1
:100C30000121284600F06EFBFFF778FC01462846AC
:100C400000F068FB94E80A00A268134401335B1AC1
:100C5000052BEDD90A400125D31C45F0040E0422D2
:100C600062F3891E0631002044F823E001922160DE
:100C700000F084FAB91C07F1030C07F1040E3140AF
:100C80000CEA060C0EEA060E7B1D334004EB8101D4
:100C900004EB8C0C04EB8E0E04EB8303109AC1F86A
:100CA0000CA01F48CCF80C900021CEF80C20119A13
:100CB000DA6000F023FB80F310007B19334004EB73
:100CC000830300043E40033640EA1840D86014F81D
:100CD0002630019A68F3C50304F8263034F826302C
:100CE00062F3891324F8263054F826206BF39F22F0
:100CF000134665F301036FF3820344F8262004F8DA
:100D0000263094F820341BB1FFF7DAFC0028FBD121
:100D100007B0BDE8F08F39469CE700BF30030020E4
:100D20004C07002030B4174DD5F8104400215CB1B9
:100D3000E3681A798A4204D116E0DB681A798A429C
:100D400012D01B68002BF8D1C3681971D5F8103484
:100D500093B1DA68C36812681A60D5F81034DB689A
:100D60001860084630BC704701310A29DFD14FF0C6
:100D7000FF31084630BC7047C5F81004C2681360E4
:100D8000EFE700BF3003002038B5094BD3F810441B
:100D9000012583F820544CB1E3685D712368204637
:100DA0005B689847E3681C68002CF5D138BD00BF2C
:100DB000300300202DE9F04784B01D460C9C002331
:100DC00094F80C802373EB8881460E461746002B5F
:100DD0003BD1297A05290FD06B7A002B3DD1404BAE
:100DE000A88853F821A00021FFF72AFC52460346A9
:100DF0003C49204600F02AFB062F0FD8DFE807F019
:100E0000484D535A04633900F168B06896E80C0005
:100E1000019100904946204600F018FB2B7A052BE3
:100E200005D06B7A5BB93049204600F00FFB2046B5
:100E300000F000FB84F80C8004B0BDE8F0872B4A7A
:100E40002B49204600F002FBEDE7284A0092294991
:100E5000294A204600F0FAFABBE7A888FFF71AFCF7
:100E6000264B234953F82020204600F0EFFA297A38
:100E7000B5E77069316996E80C000390B068F768CF
:100E800002918DE881004946204600F0DFFAC5E76F
:100E90004946204600F0DAFAC0E732684946204663
:100EA00000F0D4FABAE7494696E80C00204600F074
:100EB000CDFAB3E7B16896E80C00204600914946A8
:100EC00000F0C4FAAAE7B068F768316996E80C0048
:100ED00002918DE881004946204600F0B7FA9DE76F
:100EE0002C3D00001C3D0000283D0000103D00008E
:100EF000183D0000F83C0000F03C0000B83C000049
:100F0000082900D970472DE9F04F1D46904600236F
:100F10002A7B2B7385B0B8F80630039207460E463D
:100F2000002B6BD198F80810052911D098F80930DA
:100F3000002B6BD13C4BB8F8040053F82140002142
:100F4000FFF77EFB224603463849284600F07EFA2A
:100F5000DFF8F8B0DFF8F8900024A64249462846AA
:100F60003ED93A5D013400F071FA082CF5D13049D0
:100F7000DFF8E090DFF8E0B0284600F067FA0024E0
:100F800011E017F804A002F00FFE504459464378D0
:100F900013F0970F14BF52462E222846013400F05A
:100FA00055FA082C08D0A64249462846E9D801340B
:100FB00000F04CFA082CF6D198F80830052B02D036
:100FC00098F80930A3B91B49284600F03FFA284693
:100FD00000F030FA9DF80C302B7305B0BDE8F08FAF
:100FE00001345946284600F031FA082CB5D1BEE745
:100FF000114A1249284600F029FAE4E70E4A009205
:101000000F49104A284600F021FA8BE7B8F804008F
:10101000FFF740FB0C4B094953F82020284600F00D
:1010200015FA98F8081085E72C3D00001C3D0000DB
:10103000E83C0000283D0000103D0000183D000085
:10104000F83C0000F03C0000B83C0000E43C00002C
:10105000DC3C0000243D0000EC3C0000044B195C2B
:101060004FF0A04201238B40C2F80C35704700BFFF
:10107000903D0000044B195C4FF0A04201238B40CF
:10108000C2F80835704700BF903D0000C20730B479
:1010900014D54FF0A04303224FF480054FF4000411
:1010A0004FF08071C3F85827C3F85C27C3F8602756
:1010B000C3F80855C3F80845C3F8081583070AD5CF
:1010C0004FF0A0430022C3F86C27C3F87427C3F87D
:1010D0007C27C3F80C2730BC704700BF00B585B033
:1010E00000230390194601AA44F2010001930293E0
:1010F00000F004F805B05DF804FB00BF10B572B64F
:10110000FFF742FEFFF7DCFA0028FBD1104B114C31
:101110001149E41AE408240444F00100FFF702FC3A
:101120000E4B1B68DB0700D500BE44F002000C49E3
:10113000FFF7F8FBBFF34F8F0A490B4BCA6802F465
:10114000E0621343CB60BFF34F8F00BFFDE700BFEA
:10115000F845000018460000943D0000F0ED00E066
:10116000A03D000000ED00E00400FA0572B6024A5E
:101170001368013313607047EC070020034A1368BB
:10118000013B136003B962B6704700BFEC07002053
:101190001EF0040F1CBFEFF309800AE0EFF3088094
:1011A0000549064A884201D8904202D88D464FF040
:1011B0000000034B184700000000012000E0002061
:1011C000E9110000BFF34F8F0549064BCA6802F4CE
:1011D000E0621343CB60BFF34F8F00BFFDE700BF5A
:1011E00000ED00E00400FA052DE9F04782B08146E9
:1011F000FFF7CAFDFFF764FA0028FBD1334B344FE9
:101200009D6A344BB9F1000F56D0FF1AFF083F0416
:1012100047F00107D9F818202F493846FFF7F4FBAB
:10122000D9F80C00D9F8081099E80C000190009149
:1012300038462A49FFF7E0FCD9F81C10D9F81430D9
:10124000D9F81020009138462549FFF74FFC1F4B75
:10125000DB6A99072BD4DFF89CA0DFF89C80002480
:10126000012606FA04F32B4207D05AF824304146EF
:101270001A4638460BB1FFF7C7FB01341A2CF0D1E0
:101280002A060DD42B0405D5104B16499A6B384607
:10129000FFF7BAFB4846FFF795FF02B0BDE8F087BD
:1012A0000A4B11495A6B3846FFF7AEFBEAE70F4984
:1012B0003846FFF737FBCEE7FF1AFF083F0447F039
:1012C00001070B493846FFF72DFBC0E700ED00E0B2
:1012D00028460000F8450000B03D0000C83D000071
:1012E000003E0000CC3E0000AC3E00005C3E000032
:1012F000283E0000E83E0000A03E000000B550E897
:10130000002F0B4640E8003E9EF0000FF7D110463C
:101310005DF804FB00B550E8003F03EB010240E834
:10132000002E9EF0000FF6D110465DF804FB00BFC2
:1013300000B550E8003FA3EB010240E8002E9EF00C
:10134000000FF6D110465DF804FB00BF00B5012385
:1013500050E8002F42EA030E40E800E191F0000F50
:10136000F6D170465DF804FB00B5002350E800EFAD
:101370000EEA030240E8002191F0000FF6D170461A
:101380005DF804FBB8B130B4416882680468521A51
:10139000D2B2531E2160DBB242B101680A685C1E02
:1013A000551C0D601370E3B2FF2BF6D103680020CB
:1013B000187130BC70470E20704700BF70B50446EE
:1013C0000020FFF7D3FE236861681A688A4215D9A6
:1013D000511E19602168A3680D680879268A12F8E1
:1013E000012CE4685B1BDBB2984206FB024400D28E
:1013F0000B710020FFF7C2FE204670BD00240020C4
:10140000FFF7BCFE204670BD38B5054600200C46EF
:10141000FFF7ACFE2A681368591C1160E9682A8A34
:10142000641AB4FBF2F41C700020BDE83840FFF7EA
:10143000A5BE00BF826802B9704710B50446436973
:101440000168006998470023A36010BD0EB400B581
:1014500082B0039929B102AA04AB42F8043D00F01E
:1014600095F802B05DF804EB03B070472DE9F84F32
:101470001746B942884606461D46DDF828B00B9A45
:101480007DD30B464FF00109B3FBF7F39F4209F1FF
:101490000109F9D9A94538BFA94612F0010A02D1BC
:1014A000BBF1000F49D1B268012402E0013D07FB06
:1014B00004F4012DFAD8B8FBF4F18F42F7D9324D7C
:1014C00005E0B4FBF7F4A4B1B8FBF4F1B268685CD2
:1014D000531CB36033689854B26873689A4204FB33
:1014E0001188EED33046FFF7A5FFB4FBF7F4002CCC
:1014F000EAD1BAF1000F16D0BBF1000F33D0CB45C3
:1015000088BF20243ED9B3683268591CB160D454D6
:10151000B26873689A420BF1FF3B06D2BBF1000F31
:1015200009D0D945EFD1BDE8F88F3046FFF782FFEB
:10153000BBF1000FF5D1BDE8F88F93071AD4202432
:10154000CB45B0D9B2683368511CB1609C54B268C5
:1015500073689A420BF1FF3B07D2BBF1000FA3D097
:10156000CB45F0D1A0E7BDE8F88F3046FFF762FF2A
:10157000B268F2E7002D0CBF30242024E0E74FF0E2
:10158000010987E7BDE8F88F30440000002900F02A
:101590006F822DE9F04F064685B093460C460B78D6
:1015A0000DE0B2683168501CB0608B54B26873684B
:1015B0009A4280F0D3802378002B00F0BA80013467
:1015C000002B00F0B680252BEBD14FF0000823460E
:1015D00014F8012B2D2A00F0BB80302A00F0BB80CC
:1015E0002B2A00F0AD802A2A00F0BC80A2F1300541
:1015F000E9B2092998BF013302D9A9E1A1F1300567
:101600001C4613F8012BA2F1300005EB85010928D7
:1016100002EB4101F2D92E2A00F0B080002701E050
:1016200014F8012F02F0FB03682BF9D0253A532A56
:101630007AD8DFE812F07A01790079007900790030
:1016400079007900790079007900790079007900D2
:1016500079007900790079007900790079007900C2
:1016600079007900790079007900790079007900B2
:1016700079007900790079007900790079007900A2
:101680007900790079007900790079007900790092
:101690007900790079007900790079006A01790090
:1016A0007900790079007900790079007900790072
:1016B00079005501FC007900790079007900FC007F
:1016C0007900790079007900790079005400790077
:1016D0007900CA007900BA00790079006A01DBF864
:1016E0000020131DCBF80030B368156831685A1C10
:1016F000B2604FF03002CA54B3687268934280F00F
:10170000A0813268581C7821B060D154B2687368E7
:101710009A4280F092810022082301922946009388
:1017200010223046FFF7A2FE01342378002B7FF40D
:1017300046AF337B002B40F0058105B0BDE8F08F4C
:10174000234614F8012B2D2A48F004087FF445AFF6
:1017500048F001083BE748F0020838E73046FFF759
:1017600069FE28E7DBF80020111DCBF80010156892
:101770005A782E2A03F101047FF450AF6278A2F167
:101780003003092B04F101044FF000073FF64AAF84
:1017900007EB870702EB470714F8012FA2F130038C
:1017A000092BA7F13007F3D93CE7DBF800301A1D0D
:1017B000CBF800201968CDF804803B4600950A223A
:1017C0003046FFF753FE0134AFE7DBF800301A1D57
:1017D000CBF8002018F0010FD3F8009040F0BB8048
:1017E000B9F1000F00F04781484602F010FA0746B1
:1017F000BD4240F2F180002D00F0EE804FF0200855
:1018000005E0BD4200F0E880002D00F0E580B368FF
:101810003268591CB16002F80380B26873689A425A
:1018200005F1FF35EDD33046FFF704FEE9E7DBF8BD
:1018300000301A1DCBF80020D3F8009089EAE97334
:10184000A3EBE973092B4FF0010A09DD8F4A82FBF4
:101850000312DB17C3EBA203092B0AF1010AF5DC23
:10186000BA4538BFBA462DB3B9F1000F02DB18F004
:10187000040F00D0013D18F0020F40F0F58018F081
:10188000010F17D1002D00F0FE80AA4538BF20219E
:1018900010D2B2683368501CB0609954B268736853
:1018A0009A4205F1FF3580F0E880002D00F0EB80D2
:1018B000AA45EED1B9F1000FC0F2C88018F0040FAC
:1018C0007BD108F00303022B00F09A808DE8200101
:1018D0003B4649460A223046FFF7C8FD013424E75B
:1018E000DBF80020131DCBF80030B36831681278A4
:1018F000581CB060CA54B26873689A42FFF414AFBF
:101900003046FFF797FD01340FE7DBF800301A1D72
:10191000CBF800201968CDF804803B4600951022D2
:101920003046FFF7A3FD0134FFE6B3683268591C67
:10193000B1604FF02501D154B26873689A42DFD28A
:101940000134F2E6304605B0BDE8F04FFFF772BD56
:101950001C4600255FE64F46A7EB090817F8013B38
:101960008BB1B2683168501CB0608B54B268736838
:101970009A42F1D33046FFF75DFDA7EB090817F84F
:10198000013B002BEDD145457FF6CEAE202705E08B
:1019900045453FF4C9AE002D3FF4C6AEB36832688A
:1019A000591CB160D754B26873689A4205F1FF358B
:1019B000EED33046FFF73EFDEAE7B2683368501CCD
:1019C0002B21B0609954B26873689A42FFF479AFE2
:1019D0003046FFF72FFD74E709F1FF3919F8013F91
:1019E000002B3FF4A1AEB2683168501CB0608B543C
:1019F000B26873689A42F1D33046FFF71BFDEDE7FA
:101A0000002F7FF463AF002D33D0AA45BFF45EAF43
:101A1000B2683368511CB1604FF030019954B2681C
:101A200073689A4205F1FF3503D215B3AA45EFD189
:101A30004CE73046FFF7FEFCF7E73046FFF7FAFCCD
:101A400069E63046FFF7F6FCB3685AE6B2683368D9
:101A5000501C2D21B0609954B26873689A42C9F144
:101A60000009FFF42EAFB3E7002F3FF423AF06E7E2
:101A7000704700252AE74F46BAE630460391FFF744
:101A8000D9FC039911E7002514E700BF6766666675
:101A9000FFF778BC2DE9F041B0F81080CF1CA8F119
:101AA000040847440646B7FBF8F7FFF787FC80B306
:101AB000FFB200250123013F0446A0F8068006601E
:101AC0000571437128D0804609E06379AF4203F184
:101AD00001036371C8F80000066080461CD03046E0
:101AE000FFF76CFC01350028EFD16679721E16D025
:101AF0002346013082421B68FBD81F684EB1214645
:101B000000250C6801353846FFF77EFCAE422146C1
:101B1000F7D10020BDE8F0812046BDE8F0812768BC
:101B2000EDE700BF04300121FFF7F4BBF8B5012158
:101B300004460430FFF7FCFBC0B200B1F8BD667983
:101B4000721E12D02346013082421B68FBD81F68E8
:101B5000002EF3D0214600240D6801343846FFF7EB
:101B600053FCA6422946F7D1F8BD2768F2E700BF2B
:101B70002DE9F843C78890F805E0154607FB0EFEEF
:101B8000EC18AEF1040E1A1DA6458846B2FBF7F616
:101B900038BFAEEB030507FB1621044616B1013E24
:101BA0002468FCD17E1AAE4228BF2E469DB14FF06C
:101BB0000009081DAD1B08EB09012044324602F064
:101BC00013F8AF42B14424683E464FF0000128BFED
:101BD0002E46002DEDD1BDE8F88300BF2DE9F84376
:101BE000C78890F805E0154607FB0EFEEC18AEF12D
:101BF000040E1A1DA6458846B2FBF7F638BFAEEBB9
:101C0000030507FB1621044616B1013E2468FCD1EA
:101C10007E1AAE4228BF2E469DB14FF00009043116
:101C20002144AD1B324608EB090001F0DDFFAF4255
:101C3000B14424683E464FF0000128BF2E46002DD7
:101C4000EDD1BDE8F88300BF82680023936082680D
:101C50001361826853618268D360826853608268CE
:101C60001360704710B568B101280AD10C4C236984
:101C7000A07033B10CCB0120226198472369002B5F
:101C8000F8D110BD064CA36801226270002BF8D079
:101C90000CCB0020A2609847A368002BF8D110BDA0
:101CA000F007002010B50B4C237882B013B18520CB
:101CB00002B010BD08486360A3602361E36000F0D8
:101CC000C3F8019000F0CEF801980123237002B010
:101CD00010BD00BFF0070020651C000038B5154D91
:101CE0006B78044673B110B1436800209847002018
:101CF000FFF73CFA6B6801336B600020BDE83840A9
:101D0000FFF73CBA03F0FF00FFF730FA64B1AA68AE
:101D100042B1944208D0134601E09C4204D01B68B3
:101D2000002BFAD12260AC606B68002BE2D100F08E
:101D3000ADF8DFE7F007002038B5084C0020FFF7CA
:101D400015FA6368013B6360656815B900F0B0F887
:101D500065700020BDE83840FFF710BAF00700209A
:101D600070B50A4A0A4B06784568047AC06853F889
:101D7000213052F8211084B003908DF80060019555
:101D80008DF808406846984704B070BD04080020EC
:101D90000808002070B50A4A0A4B0678456884682E
:101DA000C06853F8213052F8211084B003908DF8A8
:101DB000006001958DF808406846984704B070BDF2
:101DC0000408002008080020F0B51A4B06781A4DC8
:101DD0000C6991F81DC045F826400746174803F8DE
:101DE00006C040F826200C4696460FCC89B06D46BA
:101DF0000FC594E80F0085E80F000496BCF1000FB2
:101E00000BD0BEF1000F0E4A694607F1040008BF6F
:101E1000002200F0D3FB09B0F0BDBEF1000F094A6B
:101E2000694607F10C0008BF002200F097F909B0DD
:101E3000F0BD00BF0C0900200408002008080020A5
:101E4000611D0000951D0000054A13790BB1852026
:101E5000704701211060537118461171704700BF1F
:101E60000C080020084B1A68D20706D40122C021B2
:101E700083F80013C3F880211A604FF080430122D9
:101E8000C3F81825704700BF00E100E0074B0022AF
:101E90001A6082B01B68019301994FF080430122C0
:101EA000C3F804231A6002B0704700BF000100406D
:101EB000074B01221A604FF08042D2F80C3403F035
:101EC0000113B3F1011FF8D0024B00225A71704781
:101ED000040000400C08002010B5144B1A6882B0B2
:101EE00062B10021124A19601B68507900934FF0CB
:101EF00080410123009CC1F8083390B10D4B1A6852
:101F00006AB100221A601B6801934FF080420221DF
:101F1000074B0198C2F808131B680120984702B0CC
:101F200010BD116853718847E8E700BF0001004009
:101F30000C08002004010040014B1B68184700BF3B
:101F40001408002038B50C4B984201D0002038BD51
:101F500000200D46FFF70AF9084B1C7924B1002038
:101F6000FFF70CF9112038BD012220461D601A71BF
:101F7000FFF704F9204638BD002000401408002077
:101F8000034B984203D1034B00221A601A71704729
:101F9000002000401408002030B56E4AD2F8043307
:101FA00099058BB05BD5D2F82431002B57D0002394
:101FB000C2F82431D2F8243103934FF40171664BF7
:101FC0000398C2F8081393F8291009B90121516048
:101FD000604902228DF81820D1F88024C1F88024AD
:101FE0009869D96809920022089007919A6193E84C
:101FF0001200DA6106A8A047564AD2F81C31C3B1D4
:10200000554B186A5969884265D293F8280000F048
:10201000FF0400285FD1C2F81C41D2F81C110291C4
:1020200002999C68186A196A205C01311962C2F829
:102030001C05484AD2F844317BB10021464BC2F816
:102040004411D2F8440193F829100090009809B186
:10205000012111609A69002A52D10BB030BD3D4A6E
:10206000D2F804335B07C7D5D2F80831002BC3D0B0
:10207000394B9969002952D00021C2F80811D2F8D1
:10208000081104910499D868596AD2F81825425465
:102090005A6A996901325A625A6A8A42ACD1DA693B
:1020A000002A45D193F8292012B92A4A012151600A
:1020B000284A4FF40171C2F80813596ADA68089186
:1020C0000024012007928DF8180093E806009C6117
:1020D00006A8904790E71F4A0020C2F81C01D2F8DA
:1020E0001C210192019A0029A3D09A688DF818004A
:1020F00008915861079206A893E80600904798E770
:102100000022586AD9689A610122089007918DF8D7
:10211000182006A893E8060090470BB030BDC2F81F
:102120000811D2F8080105900598D2F81825B3E7F0
:10213000DD685C6A18699A6101210022D860DA6161
:102140005A628DF818100795089493E8060006A8BF
:10215000904751E7002000401C0800202DE9F04185
:10216000604E05792C2303FB056382B093F82A3077
:102170001BB1082002B0BDE8F0810F4604465A4961
:1021800000689046FFF7DEFE18B1112002B0BDE8EE
:10219000F0813A68511C0BD04FF0A04101239340CD
:1021A000C1F808353B6803F5E073032241F82320AA
:1021B0007B685A1C06D003F5E0734FF0A042002163
:1021C00042F823102368BA69C3F82425397D7B7D42
:1021D00022680B43C2F86C3597E806002368C3F801
:1021E0001425C3F80C153B7D012B51D02C2303FB88
:1021F00005F3F218C2F804803A69F250B8F1000F02
:1022000035D023683A7F394F0021C3F81C11D3F829
:102210001C3100932368DDF800E0C3F84411D3F8C3
:102220004411236801910199C3F804732168090BD3
:102230004BB2002B4EDB03F1604303F561435201C7
:10224000D2B283F800232268120B42F3C40323F0B6
:10225000604323F0030303F1604303F5614302F09D
:102260001F02012101FA02F2C3F880211A602C2317
:10227000246803FB0563002204250121C4F80055EE
:1022800083F82A109A61DA6183F829205A6171E78C
:10229000BB68591C06D003F5E0734FF0A042002143
:1022A00042F82310FB685A1C0DD001224FF0A041C8
:1022B00002FA03F3C1F80835FB6803F5E073032263
:1022C00041F82320FB682268B968C2F80835C2F8D3
:1022D00010158BE7064B01F00F0152010B44D2B2EF
:1022E0001A76B0E71C080020991F00008000020049
:1022F000FCEC00E0F8B52F4D047902682C2303FBB9
:10230000045300215B68C2F8001583B103682A4AB0
:10231000C3F808230368294E1B0B5AB25209203216
:1023200003F01F03012101FA03F346F8223003688A
:102330004FF0FF32D3F80CE5D3F81475D3F8081535
:10234000D3F81065C3F81425C3F80C250368964527
:10235000C3F80825C3F8102506D00EF5E07E4FF02F
:10236000A043022243F82E207B1C06D007F5E0771D
:102370004FF0A043022243F82720721C06D006F536
:10238000E0764FF0A043022243F826204B1C06D0F3
:1023900001F5E0714FF0A043022243F821200068CC
:1023A000FFF7EEFD2C2303FB0454002384F82A30AE
:1023B0006360F8BD1C0800208402020000E100E018
:1023C000F0B5304E05792C2303FB056385B05C69BD
:1023D00014B1112005B0F0BD1C62996083F828404B
:1023E0005A610268C2F81C41D2F81C1102680291BD
:1023F0000121029F91600268D3F808E0C2F81C41F5
:10240000D2F81C1101910199D3F820C0196A5F68B4
:102410001EF80CC001311962C2F81CC517B1204664
:1024200005B0F0BD1A6A5C690168944203D819E0EE
:1024300093F82820F2B9D1F81C21002AF8D0C1F86D
:102440001C71D1F81C210392039AD3F820C01A6A98
:102450001EF80CC001321A62C1F81CC51A6AA242E9
:10246000E9D30168D1F81C31002BFBD00123CB60EC
:10247000002000E00F202C2303FB056300225A619B
:10248000A8E700BF1C08002070B54A4BD3F82421F0
:1024900088B0002A55D1D3F81011F1B9454BD3F8C3
:1024A000442152B10020444AC3F84401D3F84441C6
:1024B00091690194019C002960D13E4BD3F8202101
:1024C0004AB100213C4AC3F82011D3F82041506999
:1024D0000094009C30BB08B070BDC3F81021D3F845
:1024E00010113548039103998169D3F83C458C421A
:1024F000D4D1C569002D50D0D3F80012C6688561CB
:1025000021F02001C3F800120369C26101220168B1
:10251000C3608DF81840436805968DF8102004A814
:102520009847BBE7D3F84C0593688DF818008DF8F1
:1025300010105161059304A892E80A00984708B06A
:1025400070BD0021C3F82411D3F824210292022285
:102550008DF81020029AD3F88004174AC3F880043B
:102560000790D3F83C05D3688DF818009161D161CC
:1025700005931168536804A898478FE7D3F83C4542
:102580008DF81840D3689061012405931168536851
:102590008DF8104004A898478FE7C36801688561EB
:1025A000012205938DF8184043688DF8102004A887
:1025B000984773E700200040480800202DE9F043C9
:1025C0000479704EE7003B1906EB830385B093F85E
:1025D00020301BB1082005B0BDE8F08389460546D0
:1025E000694900689046FFF7ADFC18B1112005B0AD
:1025F000BDE8F083D9F80020511C0CD04FF0A04169
:1026000001239340C1F80835D9F8003003F5E07391
:10261000032241F82320D9F804305A1C06D003F5D0
:10262000E0734FF0A042002142F823102B68D9F844
:102630001820C3F8242599F8141099F815202B6850
:102640000A43C3F86C252A68D9F80030D9F8041079
:10265000C2F80C35C2F8141599F81430012B61D06A
:102660003A199200B318C3F80480D9F81030B35067
:10267000B8F1000F47D0296899F81C20DFF810E165
:102680000023C1F81031D1F8101100912968DDF84C
:1026900000C0C1F82031D1F8201101912968DDF87E
:1026A00004C0C1F82431D1F8241102912968DDF861
:1026B00008C0C1F84431D1F844112B680391039943
:1026C000C3F804E32968090B4BB2002B51DB03F17B
:1026D000604303F561435201D2B283F800232A68B4
:1026E000120B42F3C40323F0604323F0030303F10E
:1026F000604303F5614302F01F02012101FA02F277
:10270000C3F880211A603C442A6806EB8404002345
:102710000125082184F82050C2F80015A361E36167
:10272000636158E7D9F80830591C06D003F5E07307
:102730004FF0A042002142F82310D9F80C305A1C67
:102740000FD001224FF0A04102FA03F3C1F808357F
:10275000D9F80C3003F5E073032241F82320D9F8AF
:102760000C302A68D9F80810C2F80835C2F81015DC
:1027700076E7064B01F00F0152010B44D2B21A76F4
:10278000ADE700BF4808002089240000FCEC00E011
:1027900010030200F8B506792F4C0268F500AB195A
:1027A00004EB830300215B68C2F8001583B1036862
:1027B0002A4AC3F808230368294F1B0B5AB252094F
:1027C000203203F01F03012101FA03F347F82230FE
:1027D00003684FF0FF32D3F80CC5D3F814E5D3F8F3
:1027E0000815D3F81075C3F80C25C3F81425036831
:1027F0009445C3F80825C3F8102506D00CF5E07CF5
:102800004FF0A043022243F82C20BEF1FF3F06D038
:102810000EF5E07E4FF0A043022243F82E207A1CF2
:1028200006D007F5E0774FF0A043022243F82720B7
:102830004B1C06D001F5E0714FF0A043022243F893
:102840002120354404EB85040068FFF799FB002341
:1028500084F820306360F8BD4808002010030200AF
:1028600000E100E001F06043B3F1005F01D010200F
:102870007047F0B50579214EEF007C1906EB840412
:1028800083B0636913B1112003B0F0BDA160626130
:10289000D0F800E0CEF82031DEF820C1D0F800E01A
:1028A000CDF804C0DDF804C0CEF85831DEF858C1C8
:1028B000D0F800E0CDF800C0DDF800C0CEF8441537
:1028C000CEF8482502680121916062680AB1184675
:1028D000DAE7036800E079B9D3F82021D3F858117A
:1028E000002AF8D0002914BF0F2000207B1906EB26
:1028F000830300225A61C7E70F20F7E7480800204A
:10290000012910B50BD002290C4607D10020FEF793
:10291000A5FB2046BDE81040FEF7ACBB10BD002073
:10292000FEF7A8FB0220BDE81040FEF797BB00BFF2
:1029300000B5002185B00846FDF764FE68BBFDF7D1
:10294000E5FD0120FEF7A2FB0020FEF787FB00213A
:10295000194801F00BF860BB04AB4FF4807243F8E8
:10296000042D164A01930023009213211A4614489D
:1029700000F0FEFCD0B90399104801F02FF890B98F
:1029800001F0C4F860B9FDF79BFE0028FBD120BF21
:10299000FDF796FE0028F6D1F9E7FEF79FFBCEE79C
:1029A000FEF79CFBEFE7FEF799FBE9E7FEF796FBE6
:1029B000E1E7FEF793FBCFE70129000010090020B3
:1029C00064440000F0B4B44B1A78062A20D0B34B0C
:1029D0001B68062B00F08A80B14AD2F8883043F495
:1029E0007003C2F88830BFF34F8FBFF36F8F4FF083
:1029F0001023D3F80022002AC0F28A81D3F80432CF
:102A0000002BC0F28581A74BA74A1A60F0BC704723
:102A100004331B681807DAD1A44B1B6803F0F002DB
:102A2000302A00F0658103F0E003402B00F0608164
:102A30009E4B1B6803F0F003302B00F01E819B4B74
:102A40001B6803F0F002302A00F0078103F0E00376
:102A5000402B00F00281954B1B6803F0F003302BF4
:102A600000F0EB80914B1B6803F0F002302A00F07D
:102A7000D08003F0E003402B00F0CB808B4B1B6831
:102A800003F0F003302B00F0B680884B1B6803F096
:102A9000F003302B00F09880844B1B6803F0F003A8
:102AA000502B3FD0814B1B6803F0F002302A28D016
:102AB00003F0E003402B24D07C4B1B6803F0F002B2
:102AC000302A03D003F0E003402B80D14FF0804345
:102AD000D3F80024D2077FF57AAF6FF00102C3F874
:102AE00000246E4B1B68062B7FF476AF704B1B687F
:102AF000062B7FF471AF6F4A136843F48063136051
:102B00006AE76D4B6D4A1B6803F04F031360624B1D
:102B10001B78062B7FF45BAF694B1B6818077FF4AB
:102B200056AFC9E74FF08052664BD2F80414C3F891
:102B30002015D2F80814C3F82415D2F80C14C3F8E1
:102B40002815D2F81014C3F82C15D2F81414C3F8B1
:102B50003015D2F81814C3F83415D2F81C14C3F881
:102B60004015D2F82014C3F84415D2F82414C3F841
:102B70004815D2F82814C3F84C15D2F82C14C3F811
:102B80005015D2F83014C3F85415D2F83414C3F8E1
:102B90006015D2F83814C3F86415D2F83C14C3F8A1
:102BA0006815D2F840143C48C3F86C15D2F84414A8
:102BB0000278C3F87015062A7FF409AF404B1B68F2
:102BC0001C077FF404AF6DE73F4E404C4049414B3A
:102BD0000527012500203F223760256008601A6024
:102BE0002D4B1B78062B7FF4F2AE354B1B681D076F
:102BF0007FF4EDAE50E7284B374A1B780321062BB4
:102C000011607FF4E4AE2E4B1B681E077FF4DFAE2D
:102C10003BE74FF080430022C3F80C21C3F810219A
:102C2000C3F838251C4B1B78062B7FF470AF244B60
:102C30001B681F077FF4CBAE20E72849164ACB68F4
:102C4000127823F08073062ACB607FF4C0AE1C4B51
:102C50001B681B077FF4BBAE04E7214B0E4A1B68C1
:102C600012782049C3F34233062A0B60B8D1144BC3
:102C70001B681A077FF4ABAEEDE6074B1A4A1B78C8
:102C80001A491160062B7FF4A2AE0D4B1B68190781
:102C90007FF49DAED3E600BFE00F00F030010010DE
:102CA00000ED00E01C0000200090D003E80F00F0D1
:102CB000340100103C17004058020010E40E0040A0
:102CC000E40F00F000C0004010560040885600405D
:102CD0001856004014560040A0050040F0ED00E0FA
:102CE000440200103C05004074C007400DF0ADBA2E
:102CF000204B214A1B6812782049C3F30423062A7B
:102D00000B608FD11E4B1B6819073FF491AE5EE636
:102D10001C4B0122C3F80425D3F80024002AFBD061
:102D20004FF0102315221749C3F80022D1F80034C0
:102D3000002BFBD04FF010221521124BC2F80412C9
:102D4000D3F80024002AFBD000220E49C3F8042542
:102D5000D1F80034002BFBD0BFF34F8F0A490B4B47
:102D6000CA6802F4E0621343CB60BFF34F8F00BF29
:102D7000FDE700BF24030010E00F00F040350140E4
:102D8000E40F00F000E0014000ED00E00400FA056F
:102D900010B9024B01221A60704700BF005000407A
:102DA00070B5384BD3F83C4414F003040AD1364ACA
:102DB00013680133072B13600CD8344B0022C3F87F
:102DC000402170BD304B00221A60304B0022C3F806
:102DD000402170BD2D4B01251D61FEF7ADFFBFF3F6
:102DE0005F8F2B4B1C60BFF35F8F2A4A1D601668F4
:102DF0002EB1294B2946186822462346B04721495F
:102E0000264D274B27480322002602242E70C1F8A6
:102E10000443C1F80403C1F80C251A78224B042A94
:102E20002DD0072A29D05A781C789878120242EAC5
:102E300004420243C1F89825033384205A781D7850
:102E40009C781049120242EA054222430333C1F83A
:102E500094255A781E78DD789C780A49130443EA51
:102E600006632B4343EA0423C1F89035074BC1F8AE
:102E7000A0050022C3F8402170BD4420DEE71046C3
:102E8000E7E700BF005000406C08002000B00140A0
:102E9000FC5F00407C0800208008002078080020AB
:102EA0009E0800208000080094080020F0B5804BA8
:102EB000804C814A1F78206085B01160002F00F09F
:102EC000AC807E4B7E491C785D789E787D480222DE
:102ED000C1F80423042F4FF00302C1F80403C1F822
:102EE0000C2500F0D380072F00F0DB802A0242EA95
:102EF00004423243C1F8982593F803C01A7993F835
:102F000005E08421D81C120242EA0C42DFF8B0C16D
:102F100042EA0E02CCF8942590F803E0027990F88A
:102F200005C00330120442EA0E6290F803E06448E0
:102F300042EA0C2242EA0E020A2FC0F89025C0F89D
:102F4000A01500F0A980072F45D0DB788DF8073059
:102F500085EA0402534073400422FF210DF1090069
:102F60008DF808308DF804408DF805508DF8066016
:102F700000F045FE03238DF80D300A2101A800F072
:102F8000ABFD514B514A5A6000241C60FEF78AFE8B
:102F90004F4B504AC3F804454FF00061C3F8084551
:102FA0004FF0040E642701264FF48035C024C3F887
:102FB00010E5C3F84075C3F80062C3F80453C2F8C3
:102FC000801182F81B43116018B1852814BF0320BB
:102FD000002005B0F0BDDF78187959798DF80440EC
:102FE0006C409A798DF8055087EA000384F08804D4
:102FF00074404B4053408DF8074003248DF8066021
:103000008DF808708DF809008DF80C308DF80A10D5
:103010008DF80B208DF80D40AFE74FF0805207215F
:103020001970D2F85044D2F85414244BD2F85804F2
:10303000D8710D0A0A0C0E0EC9B25FFA84FC1D711C
:103040005A71050AC4F30722000CC4F3074E8829FD
:1030500083F800C09E71D9701D7258725A7083F83F
:1030600002E010D01649174D144802260324C1F877
:1030700004630727C1F804537646C1F80C4515468A
:10308000644644213FE79921D970EBE7B4462A46CC
:10309000A6463946184645E73946084800F01CFD63
:1030A0006FE7B6462A46A446442118462BE700BFE0
:1030B0009E0800207C080020800800209408002042
:1030C000005000408000080070080020912D000092
:1030D00000B0014000E100E030B4084B08490D2089
:1030E00001252022C024C1F804048D60C3F880218A
:1030F00083F805431A60002030BC704700E100E00F
:103100000050004009B90C20704770B40C4C0D4AB7
:103110000023236083B024680194019EC2F8100547
:1031200040F6F87404EAC101102501241846C2F8DB
:103130001C15C2F80453D46003B070BC704700BFC4
:103140001051004000500040F0B5794BD3F80421F5
:1031500089B01AB1D3F800339F0737D4744BD3F832
:1031600018211AB1D3F8002356066AD4704AD2F84F
:10317000103123B1D2F80033DC0600F18B806C4AA9
:10318000D2F84C311BB1D2F8003318032DD4684B60
:10319000D3F81C21C2B1D3F80023110614D5654A17
:1031A000D3F804040021116012680792079AC2073D
:1031B00006D5614A107818B10120C3F804041170D3
:1031C0005B4B0D22C3F8042409B0F0BD5B4B5C4C93
:1031D00000221A601B680093009B237803F0FF0510
:1031E000002B72D001232370B8E7564C564857493C
:1031F000574F584D0023236024680694069C0360B3
:103200000068059005980B600968049101240D2160
:1032100010264FF48860DDF810E0C2F81075C2F88F
:103220001465D461C2F80403C2F80C14C2F8041483
:103230002C68002CABD0484A194610681A46A047A3
:10324000A5E7414AD3F824050021116012680192D4
:10325000019AD3F82821002A43D0D3F8002355053A
:103260003FD53A4AD3F80C441160126802920D22FD
:1032700014420299C3F80C2433D0384A126812F071
:10328000010F4FF001023BD09A62294B4022C3F854
:1032900008236BE732492E4D2E4800230B60096846
:1032A000039101241021039EC2F80813C2F810559F
:1032B000C2F81415D4610468002C3FF460AF264AAC
:1032C000032110681A46A04759E72648FEF706FD75
:1032D000254B26490122DA601A6001230D60237014
:1032E0003CE71B4A1378302B0CD01378502B16D0A8
:1032F0001A4B1B6813F0010F4FF001020C4BC3D1A6
:103300005A62C2E7134B1C68002C3FF42FAF1249DE
:10331000C0F3C803023B08680221A04726E706491C
:10332000034B012040220870C3F808231EE700BFAA
:10333000005000401C5100409F08002004510040F4
:10334000780800204C51004018510040285100409E
:10335000840800207C0800208008002020540040C1
:10336000105100407008002000B001406C0800209F
:10337000F0B599B004460DF1040E0020254F8DF8EC
:103380002C300C260325244B04912449CDF814E05D
:103390004FF0020C4FF0150E07908DF831000D9094
:1033A0008DF84900139008978DF8246008AF042623
:1033B0008DF830501A480F910F251A49109303AB1E
:1033C00003940A92CDF818C08DF838E011978DF863
:1033D00048608DF8505015901691179382B105AD45
:1033E00028460CA900F094F840B924B112A9284647
:1033F00000F08EF810B9079B33B9072019B0F0BD63
:10340000002CFAD005ADF1E728461F9A1E9900F06E
:1034100041F8F3E788440000293400009444000098
:1034200078440000F13500002DE9F8430479037B6E
:103430001C441746073441B313689C4202D9042048
:10344000BDE8F8834FF001084FF0000981F80090C3
:1034500081F8018003798B700546CE1C02790168E2
:10346000304600F0C1FB29792B7B73540E4446444F
:103470002A7BA968304600F0B7FB2A7BB3182021CD
:1034800006F8029083F8018099703C600020BDE846
:10349000F88300BF002836D02DE9F043914683B071
:1034A0003AB30768804627B30D46816869B30026A2
:1034B000043F34460CBB01290CBFC0218021D9F840
:1034C00000309B1B019357F8040F01AB2A4600F014
:1034D0002DF8013450B9019B1E4405B11D44D8F8A4
:1034E0000810A142E6D8C9F80060002003B0BDE88A
:1034F000F0830E2003B0BDE8F083631C8B420CBF49
:1035000040210021DBE70E2070470E46EBE700BFAD
:1035100083684268934201D304207047026842F8EE
:1035200023108368013383600020704700284ED049
:103530002DE9F041154604464278007A84B0861899
:103540003AB1073645B18A061CD0072004B0BDE861
:10355000F081861D002DF6D12F46D4F810800193FE
:10356000B8F1000F2FD0606903AA2946C047002890
:10357000ECD1019B03980DB102BA3A603044186057
:103580000020E3E71A68B24203D2042004B0BDE889
:10359000F081297022782F46114307F8021B227A06
:1035A0006A706278AAB90635227AE16801932846E2
:1035B00000F01AFB217A6278019B0D447AB91A68EF
:1035C000921B0392C9E70E2004B0BDE8F0810E20E3
:1035D000704741F008012970AA710735E4E72846D1
:1035E000616800F001FB6278019B1544E7E700BFCA
:1035F00038B50446154649B142682B68934201D25A
:10360000042038BD0846216800F0EEFA63682B609C
:10361000002038BD2DE9F047C64C844201D0BDE8FA
:10362000F0870329FBD8DFE801F01E31540223782C
:10363000042B00F06581052BF1D194F8682094F8F3
:10364000693004219A422170E9D194F86A30002B44
:10365000E5D11A466568A0680321A847012384F8CC
:103660006A30BDE8F0872378042B00F03981052B00
:10367000D5D0032BD3D10422656822700023A06823
:10368000AC461A460121BDE8F04760472378042B79
:1036900000F02881052B00F0358194F86950002D49
:1036A00000F0128100210E4602220820012701317C
:1036B00007FA02F3A94243EA000300F00781013A46
:1036C000D8B2F4D5A319072283F8480001360020A8
:1036D000EDE7002BA3D0002AA1D0117830299ED18C
:1036E000022B9CD12378042B99D157786269BE00B4
:1036F00005239642237004D3A369103B9E4240F2F7
:1037000003818D4D10222846002100F078FA63696C
:103710009E4280F0FF80A3EB0608A5F11401B8F1EA
:103720000F0F314400F20081424628461E4600F049
:103730005BFA4544C8F11008A369B34212D9616924
:103740002269E368711AA2EB0109C14528BFC1468D
:10375000284619444A4600F047FAB8EB09084E4497
:103760004D4432D0A369B34200F0EA80E369B3422A
:103770000ED99B1B434528BF4346994628461A4607
:1037800000211E4400F03BFAB8EB09084D441CD060
:10379000236AB34214D99B1B434528BF43461A46AC
:1037A0002846FF21994600F02AFAE3690E339E1B52
:1037B00046459CBF3F23AB55B8EB09084D4404D0A8
:1037C00042462846002100F01AFA5B4D2846102197
:1037D000FFF798FCFB08A7EBC30E032FCEF1070001
:1037E00094F8682040F2948004EB030C01269CF8C6
:1037F000481006FA00F011EA000504D021EA0001A1
:103800008CF8481035462A44D2B20126DEF106056E
:1038100007F1010144BF0133072511F0FF014CD02E
:10382000032912D904EB030C4FF0010E9CF8481049
:103830000EFA05F611EA060004D021EA06018CF81A
:10384000481070460244D2B2012605F1FF3E002D19
:1038500066D0B91C11F0FF012FD0032911D904EB58
:10386000030C01269CF8481006FA0EF511EA050033
:1038700004D021EA05018CF8481030460244D2B247
:1038800001260EF1FF31BEF1000F46D0F81C10F0FA
:10389000FF0012D0032810D02344012693F84800DB
:1038A00006FA01F110EA010504D020EA010183F8CB
:1038B000481035462A44D2B20126002E3FF4AFAE5E
:1038C00084F86820BDE8F0872E4628462644002369
:1038D00086F8480084F8683084F86A30BDE8F087DC
:1038E000BDE8F0870123154A6568A06803EB430330
:1038F0001A4400239278227002211A46A847CCE687
:10390000BDE8F0870423EEE7E568B61A35445DE7C5
:1039100000267BE74FF010080EE701330721B5E7DB
:1039200001334FF0070E94E71022284600F05CF9AF
:103930004CE700BFA0080020D8080020B8440000D1
:10394000236A002B3FF412AFE3699E423FF40EAFAF
:1039500001222846FE21164400F051F9B8F1010871
:1039600005F101057FF402AF2FE700BF58B1F8B5AC
:10397000174C2378042B04D0052B02D0032B00D046
:103980001BB10820F8BD072070470B466060012579
:103990000A221049A36004F124002570E12700F0F9
:1039A00023F91026FF237C250F2284F82E3084F87B
:1039B0002F3084F8307084F8316084F8325084F805
:1039C000332021460448BDE8F840FFF76FBA00BF36
:1039D000A0080020AC44000015360000B1F5777F48
:1039E00001D90C207047F0B4394E3378042B08D03D
:1039F000052B06D0032B04D01BB1012B04D0022BC6
:103A00005CD00820F0BC70470923324A03EB430323
:103A100013449B7833700323002851D0FE29F060B3
:103A2000316186F834303AD84D1DAD08C8B2EFB2D6
:103A3000123112244FF47C724FF4806386F8350003
:103A40007461B16186F86970F26133629DB30021DF
:103A50000846022208240127013107FA02F3A9428D
:103A600043EA040311D0013ADCB2F5D5331807223A
:103A7000013183F84840A9424FF0000407FA02F3ED
:103A800000F1010043EA0403EDD13318002083F86C
:103A9000484086F8680086F86A00F0BC7047CD1D83
:103AA0000B0AAD0886F83710EFB286F836301431BD
:103AB0001424FF20BEE728462C46E6E70C23A4E7A3
:103AC0000125F060306186F834302F461221B0E7CE
:103AD000A0080020B844000010B5044650B10A29DF
:103AE00001D00C2010BD0A460146064800F07CF8C3
:103AF000002010BD0A220449024800F075F8204653
:103B000010BD00BFC4080020AC440000094A13786F
:103B1000042B08D0052B06D0032B04D01BB1012B9E
:103B200001D0022B01D00820704703231370FFF748
:103B3000D3BA00BFA008002008B5074B044613B154
:103B40000021AFF30080054B1868836A03B19847E2
:103B5000204600F071F800BF00000000E4440000BF
:103B600070B50D4E0D4CA41BA4100025A54209D123
:103B70000B4E0C4C00F062F8A41BA4100025A542CB
:103B800005D170BD56F8253098470135EEE756F857
:103B9000253098470135F2E7F0010020F0010020C0
:103BA000F0010020F4010020044B054A1B681B6A49
:103BB000002B08BF1346D3F8EC007047200000200C
:103BC0008400002082B001B901A942B14BB1137841
:103BD0000B601278101C18BF012002B0704710460D
:103BE000FBE76FF00100F8E710B5431E0A4491426D
:103BF00000D110BD11F8014B03F8014FF7E7024463
:103C00000346934200D1704703F8011BF9E70346CE
:103C100013F8012B002AFBD1181A0138704749B15B
:103C2000FF2A85BF8A2303600A704FF0FF3098BFD8
:103C30000120704708467047FEE700BFF8B500BF97
:103C4000F8BC08BC9E467047F8B500BFF8BC08BC7D
:103C50009E467047FFFFFFFFFFFFFFFFFFFFFFFFD5
:103C6000FFFFFFFF00000000000000000000D60181
:103C700006010000F903000065040000F5030000E0
:103C8000756172745F6C6F675F6261636B656E64B0
:103C900000000000540700207F000000D40700202F
:103CA0004261636B656E647320666C7573686564EE
:103CB0000000000061707000103D0000403D0000F9
:103CC000F03C0000483D0000503D0000583D000021
:103CD000603D0000683D0000703D0000202530324E
:103CE00078000000202020007C00000025630000F8
:103CF0001B5B313B33316D0025734C6F6773206460
:103D0000726F70706564202825642925730D0A0080
:103D10001B5B306D00000000257300003C25733EE6
:103D20002025733A200000000D0A0000000000006A
:103D3000E0400000783D0000803D0000883D00002C
:103D40001B5B313B33306D001B5B313B33326D000D
:103D50001B5B313B33336D001B5B313B33346D00F8
:103D60001B5B313B33356D001B5B313B33366D00E4
:103D70001B5B313B33376D007761726E696E670094
:103D8000696E666F00000000646562756700000080
:103D900016171800466174616C206572726F7200AC
:103DA00053797374656D207265736574000000004B
:103DB00048415244204641554C542061742030788B
:103DC0002530385800000000202052303A202030A2
:103DD0007825303858202052313A2020307825304C
:103DE0003858202052323A20203078253038582058
:103DF0002052333A20203078253038580000000017
:103E000020205231323A2030782530385820204C4A
:103E1000523A202030782530385820205053523ADA
:103E20002030782530385800537461636B207669F0
:103E30006F6C6174696F6E3A20737461636B20708C
:103E40006F696E746572206F757473696465207331
:103E50007461636B20617265612E0000436175734C
:103E6000653A204275734661756C74206F6E2061EF
:103E700020766563746F72207461626C6520726570
:103E8000616420647572696E67206578636570741B
:103E9000696F6E2070726F63657373696E672E0051
:103EA00043617573653A2025732E00004D656D4D95
:103EB000616E616765204661756C7420416464724F
:103EC0006573733A20307825303858004275732076
:103ED0004661756C7420416464726573733A203076
:103EE0007825303858000000503F0000903F000017
:103EF00000000000EC3F000038400000844000005B
:103F00000000000000000000D0400000E840000079
:103F100054410000C041000004420000484200003B
:103F20000000000000000000503F00008C42000034
:103F3000E8420000704300000000000000000000A4
:103F40000000000000000000A4430000D84300006F
:103F50005468652070726F636573736F7220686157
:103F60007320617474656D7074656420746F20656E
:103F700078656375746520616E20756E6465666929
:103F80006E656420696E737472756374696F6E0018
:103F90005468652070726F636573736F722061740B
:103FA00074656D707465642061206C6F6164206F4E
:103FB000722073746F72652061742061206C6F636E
:103FC0006174696F6E207468617420646F6573201A
:103FD0006E6F74207065726D697420746865206FEF
:103FE0007065726174696F6E00000000556E7374C5
:103FF00061636B20666F7220616E20657863657007
:1040000074696F6E2072657475726E2068617320BA
:10401000636175736564206F6E65206F72206D6FCC
:104020007265206163636573732076696F6C617478
:10403000696F6E7300000000537461636B696E6793
:1040400020666F7220616E20657863657074696F99
:104050006E20656E74727920686173206361757378
:104060006564206F6E65206F72206D6F72652061D0
:1040700063636573732076696F6C6174696F6E73C7
:104080000000000041204D656D4D616E6167652047
:104090006661756C74206F63637572726564206409
:1040A0007572696E6720666C6F6174696E672D70DA
:1040B0006F696E74206C617A792073746174652005
:1040C000707265736572766174696F6E00000000CE
:1040D000496E737472756374696F6E2062757320B4
:1040E0006572726F720000004461746120627573C2
:1040F000206572726F72202850432076616C75655E
:1041000020737461636B656420666F7220746865E8
:1041100020657863657074696F6E2072657475725E
:104120006E20706F696E747320746F2074686520E0
:10413000696E737472756374696F6E2074686174EC
:104140002063617573656420746865206661756CB1
:104150007429000044617461206275732065727275
:104160006F72202872657475726E20616464726566
:10417000737320696E2074686520737461636B20AB
:104180006672616D65206973206E6F742072656C54
:104190006174656420746F2074686520696E73743F
:1041A00072756374696F6E207468617420636175E1
:1041B00073656420746865206572726F72290000EF
:1041C000556E737461636B20666F7220616E20653B
:1041D0007863657074696F6E2072657475726E2095
:1041E00068617320636175736564206F6E65206F0D
:1041F00072206D6F7265204275734661756C7473C1
:1042000000000000537461636B696E6720666F7213
:1042100020616E20657863657074696F6E20656ECD
:104220007472792068617320636175736564206FAF
:104230006E65206F72206D6F7265204275734661E6
:10424000756C747300000000412062757320666114
:10425000756C74206F636375727265642064757227
:10426000696E6720666C6F6174696E672D706F6927
:104270006E74206C617A7920737461746520707239
:1042800065736572766174696F6E000054686520AD
:1042900070726F636573736F7220686173206174ED
:1042A00074656D7074656420746F206578656375DE
:1042B000746520616E20696E737472756374696FC2
:1042C0006E2074686174206D616B657320696C6C1D
:1042D0006567616C20757365206F66207468652062
:1042E00045505352000000005468652070726F639F
:1042F0006573736F722068617320617474656D708B
:1043000074656420616E20696C6C6567616C206CFB
:104310006F6164206F66204558435F524554555283
:104320004E20746F207468652050432C20617320E8
:104330006120726573756C74206F6620616E2069F0
:104340006E76616C696420636F6E746578742C207E
:104350006F7220616E20696E76616C6964204558C9
:10436000435F52455455524E2076616C756500008E
:104370005468652070726F636573736F7220686133
:104380007320617474656D7074656420746F20614E
:104390006363657373206120636F70726F6365730D
:1043A000736F72005468652070726F636573736F0A
:1043B0007220686173206D61646520616E20756E86
:1043C000616C69676E6564206D656D6F72792061DF
:1043D00063636573730000005468652070726F63D7
:1043E0006573736F72206861732065786563757497
:1043F000656420616E2053444956206F72205544F5
:10440000495620696E737472756374696F6E207794
:1044100069746820612064697669736F72206F66C1
:1044200020300000686172646661756C7400000081
:1044300030313233343536373839414243444546DA
:10444000636C6F636B000000434C4F434B000000F4
:1044500050525300554152540000000055415254EF
:1044600045000000636F6D2E747769747465722E59
:10447000616E64726F696400616E64726F69642E4C
:10448000636F6D3A706B670057696E646F77735036
:10449000686F6E6577696E646F77732E636F6D2FCB
:1044A0004C61756E6368417070000000000102038A
:1044B00004050607080900000406050408030409AA
:1044C00002050704050803050902030504030902A0
:1044D000000001010102020403020A0002010202BB
:1044E00009020000240000204300504F53495800A7
:1044F0002E000020202020202020202028282828CE
:1045000028202020202020202020202020202020A3
:1045100020202088101010101010101010101010F3
:104520001010100404040404040404040410101003
:1045300010101010414141414141010101010101AF
:10454000010101010101010101010101010110103D
:104550001010101042424242424202020202020283
:10456000020202020202020202020202020210100F
:1045700010102000000000000000000000000000FB
:10458000000000000000000000000000000000002B
:10459000000000000000000000000000000000001B
:1045A000000000000000000000000000000000000B
:1045B00000000000000000000000000000000000FB
:1045C00000000000000000000000000000000000EB
:1045D00000000000000000000000000000000000DB
:1045E00000000000000000000000000000000000CB
:0845F0000000000000000000C3
:1045F8004844000000000000504400000000000093
:1046080054440000000000005C440000000000006A
:10461800B43C000000000303404400000000000018
:0846280024440000000003031C
:10463000743C000000000000803C000014000020DA
:1046400060020020280300203003002068020020C0
:04465000180000004E
:0846540018BCFF7F010000000B
:10465C00000000000020004000000000002000408E
:10466C000000000000000000FF0000000090D003DC
:10467C0024000020000000000000000000000000EA
:10468C00000000000000000000000000000000001E
:10469C00000000000000000000000000000000000E
:1046AC0000000000000000000000000000000000FE
:1046BC0000000000000000000000000000000000EE
:1046CC0000000000000000000000000000000000DE
:1046DC00000000004300000000000000000000008B
:1046EC0000000000000000000000000000000000BE
:1046FC00000000004300000000000000000000006B
:10470C00000000000000000000000000000000009D
:10471C00000000004300000000000000000000004A
:10472C00000000000000000000000000000000007D
:10473C00000000004300000000000000000000002A
:10474C00000000000000000000000000000000005D
:10475C00000000004300000000000000000000000A
:10476C00000000000000000000000000000000003D
:10477C0000000000430000000000000000000000EA
:10478C00000000000000000000000000000000001D
:10479C0000000000430000000000000000000000CA
:1047AC0000000000000000000000000000000000FD
:1047BC00000000001F3C0000C53B00000000000092
:1047CC00F2440000F0440000F1440000F144000009
:1047DC00F1440000F1440000F1440000F1440000F9
:1047EC00F1440000F1440000F1440000FFFFFFFF22
:1047FC00FFFFFFFFFFFFFFFFFFFF00000100415322
:10480C0043494900000000000000000000000000C7
:10481C0000000000000000000000000000004153F8
:10482C0043494900000000000000000000000000A7
:10483C00000000000000000000000000000000006C
:0C484C0025020000010200000000000036
:04000003000002E116
:00000001FF
