:1000000000000120E1020000090300000B030000D2
:100010000D0300000F0300001103000000000000AA
:1000200000000000000000000000000013030000BA
:100030001503000000000000170300001903000072
:100040001B0300001B030000591B00001B030000E2
:100050001B0300001B0300001B030000B91B000072
:10006000352100001B0300001B0300001B030000E0
:100070001B0300001B0300001B0300001B03000008
:100080001B0300001B0300001B0300001B030000F8
:100090001B0300001B0300001B0300001B030000E8
:1000A0001B0300001B0300001B0300001B030000D8
:1000B0001B0300001B030000000000000000000004
:1000C0001B0300001B0300001B0300001B030000B8
:1000D0001B0300001B0300001B03000000000000C6
:1000E0000000000000000000000000000000000010
:1000F0000000000000000000000000000000000000
:1001000000000000000000000000000000000000EF
:1001100000000000000000000000000000000000DF
:1001200000000000000000000000000000000000CF
:1001300000000000000000000000000000000000BF
:1001400000000000000000000000000000000000AF
:10015000000000000000000000000000000000009F
:10016000000000000000000000000000000000008F
:10017000000000000000000000000000000000007F
:10018000000000000000000000000000000000006F
:10019000000000000000000000000000000000005F
:1001A000000000000000000000000000000000004F
:1001B000000000000000000000000000000000003F
:1001C000000000000000000000000000000000002F
:1001D000000000000000000000000000000000001F
:1001E000000000000000000000000000000000000F
:1001F00000000000000000000000000000000000FF
:1002000010B5054C237833B9044B13B10448AFF350
:1002100000800123237010BD0002002000000000B8
:10022000404500000C4B43B10C480D4910B5AFF3ED
:1002300000800C48036823B910BD0A48036833B92D
:100240007047094B002BF7D0BDE810401847064B0C
:10025000002BF5D0184700BF00000000404500000B
:1002600004020020FC01002000000000154B002BC0
:1002700008BF134B9D46A3F5803A00218B460F46DD
:100280001348144A121A03F042F80F4B002B00D007
:1002900098470E4B002B00D0984700200021040007
:1002A0000D000D48002802D00C48AFF3008002F08A
:1002B000DFFF2000290002F0AFFD02F0C5FF00BF04
:1002C0000000080000000120000000000000000005
:1002D00000020020DC0800200000000000000000F8
:1002E0000649074A074B9B1A03DD043BC858D05008
:1002F000FBDC02F0C3FDFFF7B9FF0000B0450000D2
:100300000000002000020020FEE7FEE7FEE7FEE717
:10031000FEE7FEE7FEE7FEE7FEE7FEE7F0B595B095
:10032000002415460F4608461E4601F053FA38468B
:1003300023460822089505A91A9D09960D950A9449
:100340008DF82C400C9401F0A1FA9DF81430079818
:1003500006998DF8114003F00302012A02900391DF
:1003600028D0022A04D0384601F038FA15B0F0BD82
:10037000BDF81650C3F3C2038DF81030C5F38915CC
:100380000826082D2C4628BF0824334622460EA9ED
:10039000384601F07BFA2D1B214608AB02AA0EA8B5
:1003A000264400F0B5FC002DEBD1384601F016FADA
:1003B00015B0F0BDBDF81460059DC6F38316C3F3F8
:1003C000C204B2000EA9384608238DF81040C5F3C8
:1003D000952501F05BFA08AB0093324628460EA93A
:1003E00002AB00F0EFFBBEE7014B01221A70704731
:1003F00060020020704700BF00B583B0044B00933B
:10040000044A4023FFF78AFF03B05DF804FB00BFF6
:10041000190400002002002038B50E480E4D037864
:100420000E4CEB5C00252570D2B253B90C3002F0B3
:10043000F9F858B90A4B1B7813B12378002BFCD07C
:1004400038BD043002F040FB0028F3D000F054FD2A
:10045000F0E700BF00000020D80800206002002064
:100460001C02002070B51348134A0378D35C88B08F
:10047000DBB90C3002F070F8104D0FCD6C460FC494
:1004800095E80F0008AD142645F8206D84E80F00AC
:1004900029460022074801F0B5FA08B100F02CFD0A
:1004A000074B00221A7008B070BD043002F0A4FAA5
:1004B000E2E700BF00000020D80800200C42000046
:1004C0001C02002070B50D4D0FCD88B06C460FC4D6
:1004D00095E80F0008AD142645F8206D84E80F005C
:1004E0002946074A074801F08DFA08B100F004FDDB
:1004F000054B01221A7008B070BD00BF0C4200000D
:10050000E9030000000000201C02002008B5FFF7EE
:10051000D9FF0421034800F00DFB034B01225A715F
:1005200008BD00BF8445000014000020F0B5334D25
:1005300085B005F5836000F061FD05F2144000F020
:100540005DFD6B68AE6803EA0600C11C05EB810225
:1005500015F8214014F004040ED0117801F00301C5
:1005600001293BD0022903F1020700F1030126D043
:1005700005EB8102002CF0D105EB80005A1CC1680C
:100580000191324005EB820201F00301D268029230
:10059000012903F1020429D0022925D1BDF8063032
:1005A000BDF80A60C3F38913033304EB93041448C2
:1005B00000F032FD00B16C60304605B0F0BD5388EC
:1005C00007EB931306EA0300C11C05EB810215F843
:1005D000214004F00404002CBFD1CDE71188023380
:1005E000C1F383110B44EDE70026E0E7BDF80430CA
:1005F000BDF80A60C3F383131C44D8E7340300201A
:10060000480700200B4B0C4810B50022FF21C3F80F
:10061000182499601A605A60C3F8142483F82024BF
:1006200001F08EF8044610B9044801F095F920460F
:1006300010BD00BF34030020944500004C42000070
:1006400021B9114B03EBC0000068704730B40F4A6A
:100650000D4C121BD2080CD00D4D2B88834210D0AC
:10066000002303E035F82310814205D001339A427C
:10067000F8D1002030BC704704EBC300006830BCE8
:1006800070472046FAE700BF44450000844500005B
:1006900000020020094B013903EBC00003290BD8ED
:1006A000DFE801F002080604022070474079704735
:1006B00000797047042070470020704744450000CF
:1006C0002DE9F047914C94E80C009A4284B000F078
:1006D000B6800023C4F81834BFF34F8F6368A56851
:1006E00003EA0501CA1C04EB820614F82220500715
:1006F0001AD52768327802F00302012A43D0022A71
:1007000003F1020202D1738802EB931305EA03019D
:10071000D4F81804CA1C04EB820628B99F4238D9C1
:1007200014F822205207E5D404EB81015A1CC96851
:1007300001912A4004EB820201F00301D268029287
:10074000022903F1020828D001297CD0D4F81054E2
:100750003DB12B6828469B689847EB681D68002DC3
:10076000F7D16B486B4B6C49C01AC008000440F0CD
:10077000020000F0D7F860682368C01A18BF012093
:1007800004B0BDE8F08732880233C2F38312134409
:10079000BCE7676004B0BDE8F087BDF806305F488D
:1007A000C3F389194F46502FA8BF502767F38F1303
:1007B00007F10801ADF8063000F0C4FF0646002836
:1007C000C4D025EA080A0AF1010A01F003F84FEA49
:1007D0008A0A0023082201A9304601F021F8574572
:1007E0006ED9BAF1000F7AD13A4608234C49304607
:1007F00001F016F809F1030708EB9707D4F818344D
:10080000002B68D1D4F810545DB1EB685A793146A9
:1008100028461AB12B681B689847EB681D68002DA5
:10082000F3D1304600F0DAFF002000F0ADFBD4F841
:10083000183403B96760002000F0AEFB9BE700208E
:1008400004B0BDE8F087BDF804303448C3F3831228
:10085000062A28BF0622911C62F389138900ADF88D
:10086000043000F06FFF064600283FF46FAF00F041
:10087000B1FF0023082201A9304600F0D1FFBDF8E6
:10088000043013F4707F3FD04FF0000A4FF0080996
:1008900005EA080103314B4604EB8101042230468E
:1008A00000F0BEFFBDF804300AF1010AC3F3831360
:1008B00008F10107534509F10409B846E8D89DE756
:1008C00005EA0801033104EB81013A46082330466A
:1008D00000F0A6FF8EE7304600F080FF4BE705EA08
:1008E00008010331A7EB0A0504EB810152463046AB
:1008F000EDB2082300F094FF2A460AF108030849E4
:10090000304600F08DFF75E7474677E73403002057
:100910007445000044450000584200009445000022
:10092000400300202DE9F843DFF8D8900746002067
:100930008846D9F8085000F027FBD9F80820D9F8E4
:100940000430D9F80060134401339B1B012B55D8A8
:1009500009F21C440121204600F034FBFFF7E6FDBC
:100960000146204600F02EFB99E80A00D9F808203D
:10097000134401335B1A012BECD901240A400332E2
:1009800044F004036FF3891349F822300231002048
:10099000C9F8001000F000FB0021194800F006FB28
:1009A00080F3100033192B4009EB8303000435401A
:1009B000033540EA1740D86019F8253067F3C503BE
:1009C00009F8253039F825306FF3891329F82530D7
:1009D00059F8252068F39F22134664F301036FF34F
:1009E000820349F8252009F8253099F820341BB1F5
:1009F000FFF766FE0028FBD1BDE8F8833146BCE76F
:100A000050070020340300202DE9F04F87B0474CF9
:100A1000109D0393804699460020119B02929246B6
:100A20000593A66804958B4600F0AEFAA268636849
:100A3000276813440133DB1B052B74D804F21C45D3
:100A40000121284600F0BEFAFFF770FD0146284656
:100A500000F0B8FA94E80A00A268134401335B1A64
:100A6000052BEDD90A400125D31C45F0040E0422C4
:100A700062F3891E0631002044F823E001922160D0
:100A800000F08AFAB91C07F1030C07F1040E31409B
:100A90000CEA060C0EEA060E7B1D334004EB8101C6
:100AA00004EB8C0C04EB8E0E04EB8303109AC1F85C
:100AB0000CA01F48CCF80C900021CEF80C20119A05
:100AC000DA6000F073FA80F310007B19334004EB16
:100AD000830300043E40033640EA1840D86014F80F
:100AE0002630019A68F3C50304F8263034F826301E
:100AF00062F3891324F8263054F826206BF39F22E2
:100B0000134665F301036FF3820344F8262004F8CB
:100B1000263094F820341BB1FFF7D2FD0028FBD11A
:100B200007B0BDE8F08F39469CE700BF34030020D2
:100B30005007002030B4174DD5F8104400215CB1A7
:100B4000E3681A798A4204D116E0DB681A798A428E
:100B500012D01B68002BF8D1C3681971D5F8103476
:100B600093B1DA68C36812681A60D5F81034DB688C
:100B70001860084630BC704701310A29DFD14FF0B8
:100B8000FF31084630BC7047C5F81004C2681360D6
:100B9000EFE700BF3403002038B5094BD3F8104409
:100BA000012583F820544CB1E3685D712368204629
:100BB0005B689847E3681C68002CF5D138BD00BF1E
:100BC000340300202DE9F04784B01D460C9C00231F
:100BD00094F80C802373EB8881460E461746002B51
:100BE0003BD1297A05290FD06B7A002B3DD1404BA0
:100BF000A88853F821A00021FFF722FD52460346A2
:100C00003C49204600F07AFA062F0FD8DFE807F0BB
:100C1000484D535A04633900F168B06896E80C00F7
:100C2000019100904946204600F068FA2B7A052B86
:100C300005D06B7A5BB93049204600F05FFA204658
:100C400000F050FA84F80C8004B0BDE8F0872B4A1D
:100C50002B49204600F052FAEDE7284A0092294934
:100C6000294A204600F04AFABBE7A888FFF712FDA0
:100C7000264B234953F82020204600F03FFA297ADA
:100C8000B5E77069316996E80C000390B068F768C1
:100C900002918DE881004946204600F02FFAC5E711
:100CA0004946204600F02AFAC0E732684946204605
:100CB00000F024FABAE7494696E80C00204600F016
:100CC0001DFAB3E7B16896E80C002046009149464A
:100CD00000F014FAAAE7B068F768316996E80C00EA
:100CE00002918DE881004946204600F007FA9DE711
:100CF000E4420000D4420000E0420000C84200008C
:100D0000D0420000B0420000A84200007042000043
:100D1000082900D970472DE9F04F1D469046002361
:100D20002A7B2B7385B0B8F80630039207460E462F
:100D3000002B6BD198F80810052911D098F80930CC
:100D4000002B6BD13C4BB8F8040053F82140002134
:100D5000FFF776FC224603463849284600F0CEF9D4
:100D6000DFF8F8B0DFF8F8900024A642494628469C
:100D70003ED93A5D013400F0C1F9082CF5D1304973
:100D8000DFF8E090DFF8E0B0284600F0B7F9002483
:100D900011E017F804A002F08FFA50445946437846
:100DA00013F0970F14BF52462E222846013400F04C
:100DB000A5F9082C08D0A64249462846E9D80134AE
:100DC00000F09CF9082CF6D198F80830052B02D0D9
:100DD00098F80930A3B91B49284600F08FF9284636
:100DE00000F080F99DF80C302B7305B0BDE8F08F52
:100DF00001345946284600F081F9082CB5D1BEE7E8
:100E0000114A1249284600F079F9E4E70E4A0092A7
:100E10000F49104A284600F071F98BE7B8F8040032
:100E2000FFF738FC0C4B094953F82020284600F006
:100E300065F998F8081085E7E4420000D442000004
:100E4000A0420000E0420000C8420000D042000082
:100E5000B0420000A8420000704200009C42000026
:100E600094420000DC420000A4420000044B195CE4
:100E70004FF0A04201238B40C2F80C35704700BFF1
:100E800050430000074B4FF0A041185CD1F80435E7
:100E90000122824022EA03001340C1F80805C1F88C
:100EA0000C35704750430000C20730B414D54FF0E2
:100EB000A04303224FF480054FF400044FF08071EB
:100EC000C3F85827C3F85C27C3F86027C3F8085550
:100ED000C3F80845C3F8081583070AD54FF0A043A7
:100EE0000022C3F86C27C3F87427C3F87C27C3F823
:100EF0000C2730BC704700BF00B585B000230390BD
:100F0000194601AA44F201000193029300F004F88B
:100F100005B05DF804FB00BF10B572B6FFF73CFEEC
:100F2000FFF7CEFB0028FBD1104B114C1149E41AFE
:100F3000E408240444F00100FFF7F4FC0E4B1B68A6
:100F4000DB0700D500BE44F002000C49FFF7EAFCC5
:100F5000BFF34F8F0A490B4BCA6802F4E062134398
:100F6000CB60BFF34F8F00BFFDE700BF44450000DB
:100F70007445000054430000F0ED00E060430000C1
:100F800000ED00E00400FA0572B6024A136801336E
:100F900013607047F0070020034A1368013B136099
:100FA00003B962B6704700BFF007002000B550E8F3
:100FB000002F0B4640E8003E9EF0000FF7D1104690
:100FC0005DF804FB00B550E8003F03EB010240E888
:100FD000002E9EF0000FF6D110465DF804FB00BF16
:100FE00000B550E8003FA3EB010240E8002E9EF060
:100FF000000FF6D110465DF804FB00BF00B50123D9
:1010000050E8002F42EA030E40E800E191F0000FA3
:10101000F6D170465DF804FB00B5002350E800EF00
:101020000EEA030240E8002191F0000FF6D170466D
:101030005DF804FBB8B130B4416882680468521AA4
:10104000D2B2531E2160DBB242B101680A685C1E55
:10105000551C0D601370E3B2FF2BF6D1036800201E
:10106000187130BC70470E20704700BF70B5044641
:101070000020FFF789FF236861681A688A4215D942
:10108000511E19602168A3680D680879268A12F834
:10109000012CE4685B1BDBB2984206FB024400D2E1
:1010A0000B710020FFF778FF204670BD0024002060
:1010B000FFF772FF204670BD38B5054600200C468C
:1010C000FFF762FF2A681368591C1160E9682A8AD1
:1010D000641AB4FBF2F41C700020BDE83840FFF73E
:1010E0005BBF00BF826802B9704710B50446436910
:1010F0000168006998470023A36010BD0EB400B5D5
:1011000082B0039929B102AA04AB42F8043D00F071
:1011100095F802B05DF804EB03B070472DE9F84F85
:101120001746B942884606461D46DDF828B00B9A98
:101130007DD30B464FF00109B3FBF7F39F4209F152
:101140000109F9D9A94538BFA94612F0010A02D10F
:10115000BBF1000F49D1B268012402E0013D07FB59
:1011600004F4012DFAD8B8FBF4F18F42F7D9324DCF
:1011700005E0B4FBF7F4A4B1B8FBF4F1B268685C25
:10118000531CB36033689854B26873689A4204FB86
:101190001188EED33046FFF7A5FFB4FBF7F4002C1F
:1011A000EAD1BAF1000F16D0BBF1000F33D0CB4516
:1011B00088BF20243ED9B3683268591CB160D4542A
:1011C000B26873689A420BF1FF3B06D2BBF1000F85
:1011D00009D0D945EFD1BDE8F88F3046FFF782FF3F
:1011E000BBF1000FF5D1BDE8F88F93071AD4202486
:1011F000CB45B0D9B2683368511CB1609C54B26819
:1012000073689A420BF1FF3B07D2BBF1000FA3D0EA
:10121000CB45F0D1A0E7BDE8F88F3046FFF762FF7D
:10122000B268F2E7002D0CBF30242024E0E74FF035
:10123000010987E7BDE8F88F70430000002900F03E
:101240006F822DE9F04F064685B093460C460B7829
:101250000DE0B2683168501CB0608B54B26873689E
:101260009A4280F0D3802378002B00F0BA800134BA
:10127000002B00F0B680252BEBD14FF00008234661
:1012800014F8012B2D2A00F0BB80302A00F0BB801F
:101290002B2A00F0AD802A2A00F0BC80A2F1300594
:1012A000E9B2092998BF013302D9A9E1A1F13005BA
:1012B0001C4613F8012BA2F1300005EB850109282B
:1012C00002EB4101F2D92E2A00F0B080002701E0A4
:1012D00014F8012F02F0FB03682BF9D0253A532AAA
:1012E0007AD8DFE812F07A01790079007900790084
:1012F0007900790079007900790079007900790026
:101300007900790079007900790079007900790015
:101310007900790079007900790079007900790005
:1013200079007900790079007900790079007900F5
:1013300079007900790079007900790079007900E5
:101340007900790079007900790079006A017900E3
:1013500079007900790079007900790079007900C5
:1013600079005501FC007900790079007900FC00D2
:1013700079007900790079007900790054007900CA
:101380007900CA007900BA00790079006A01DBF8B7
:101390000020131DCBF80030B368156831685A1C63
:1013A000B2604FF03002CA54B3687268934280F062
:1013B000A0813268581C7821B060D154B26873683B
:1013C0009A4280F0928100220823019229460093DC
:1013D00010223046FFF7A2FE01342378002B7FF461
:1013E00046AF337B002B40F0058105B0BDE8F08FA0
:1013F000234614F8012B2D2A48F004087FF445AF4A
:1014000048F001083BE748F0020838E73046FFF7AC
:1014100069FE28E7DBF80020111DCBF800101568E5
:101420005A782E2A03F101047FF450AF6278A2F1BA
:101430003003092B04F101044FF000073FF64AAFD7
:1014400007EB870702EB470714F8012FA2F13003DF
:10145000092BA7F13007F3D93CE7DBF800301A1D60
:10146000CBF800201968CDF804803B4600950A228D
:101470003046FFF753FE0134AFE7DBF800301A1DAA
:10148000CBF8002018F0010FD3F8009040F0BB809B
:10149000B9F1000F00F04781484601F040FF0746D0
:1014A000BD4240F2F180002D00F0EE804FF02008A8
:1014B00005E0BD4200F0E880002D00F0E580B36853
:1014C0003268591CB16002F80380B26873689A42AE
:1014D00005F1FF35EDD33046FFF704FEE9E7DBF811
:1014E00000301A1DCBF80020D3F8009089EAE97388
:1014F000A3EBE973092B4FF0010A09DD8F4A82FB48
:101500000312DB17C3EBA203092B0AF1010AF5DC76
:10151000BA4538BFBA462DB3B9F1000F02DB18F057
:10152000040F00D0013D18F0020F40F0F58018F0D4
:10153000010F17D1002D00F0FE80AA4538BF2021F1
:1015400010D2B2683368501CB0609954B2687368A6
:101550009A4205F1FF3580F0E880002D00F0EB8025
:10156000AA45EED1B9F1000FC0F2C88018F0040FFF
:101570007BD108F00303022B00F09A808DE8200154
:101580003B4649460A223046FFF7C8FD013424E7AE
:10159000DBF80020131DCBF80030B36831681278F7
:1015A000581CB060CA54B26873689A42FFF414AF12
:1015B0003046FFF797FD01340FE7DBF800301A1DC6
:1015C000CBF800201968CDF804803B460095102226
:1015D0003046FFF7A3FD0134FFE6B3683268591CBB
:1015E000B1604FF02501D154B26873689A42DFD2DE
:1015F0000134F2E6304605B0BDE8F04FFFF772BDAA
:101600001C4600255FE64F46A7EB090817F8013B8B
:101610008BB1B2683168501CB0608B54B26873688B
:101620009A42F1D33046FFF75DFDA7EB090817F8A2
:10163000013B002BEDD145457FF6CEAE202705E0DE
:1016400045453FF4C9AE002D3FF4C6AEB3683268DD
:10165000591CB160D754B26873689A4205F1FF35DE
:10166000EED33046FFF73EFDEAE7B2683368501C20
:101670002B21B0609954B26873689A42FFF479AF35
:101680003046FFF72FFD74E709F1FF3919F8013FE4
:10169000002B3FF4A1AEB2683168501CB0608B548F
:1016A000B26873689A42F1D33046FFF71BFDEDE74D
:1016B000002F7FF463AF002D33D0AA45BFF45EAF97
:1016C000B2683368511CB1604FF030019954B26870
:1016D00073689A4205F1FF3503D215B3AA45EFD1DD
:1016E0004CE73046FFF7FEFCF7E73046FFF7FAFC21
:1016F00069E63046FFF7F6FCB3685AE6B26833682D
:10170000501C2D21B0609954B26873689A42C9F197
:101710000009FFF42EAFB3E7002F3FF423AF06E735
:10172000704700252AE74F46BAE630460391FFF797
:10173000D9FC039911E7002514E700BF67666666C8
:10174000FFF778BC2DE9F041B0F81080CF1CA8F16C
:10175000040847440646B7FBF8F7FFF787FC80B359
:10176000FFB200250123013F0446A0F80680066071
:101770000571437128D0804609E06379AF4203F1D7
:1017800001036371C8F80000066080461CD0304633
:10179000FFF76CFC01350028EFD16679721E16D078
:1017A0002346013082421B68FBD81F684EB1214698
:1017B00000250C6801353846FFF77EFCAE42214615
:1017C000F7D10020BDE8F0812046BDE8F081276810
:1017D000EDE700BF04300121FFF7F4BBF8B50121AC
:1017E00004460430FFF7FCFBC0B200B1F8BD6679D7
:1017F000721E12D02346013082421B68FBD81F683C
:10180000002EF3D0214600240D6801343846FFF73E
:1018100053FCA6422946F7D1F8BD2768F2E700BF7E
:101820002DE9F843C78890F805E0154607FB0EFE42
:10183000EC18AEF1040E1A1DA6458846B2FBF7F669
:1018400038BFAEEB030507FB1621044616B1013E77
:101850002468FCD17E1AAE4228BF2E469DB14FF0BF
:101860000009081DAD1B08EB09012044324601F0B8
:1018700043FDAF42B14424683E464FF0000128BF0B
:101880002E46002DEDD1BDE8F88300BF2DE9F843C9
:10189000C78890F805E0154607FB0EFEEC18AEF180
:1018A000040E1A1DA6458846B2FBF7F638BFAEEB0C
:1018B000030507FB1621044616B1013E2468FCD13E
:1018C0007E1AAE4228BF2E469DB14FF0000904316A
:1018D0002144AD1B324608EB090001F00DFDAF427B
:1018E000B14424683E464FF0000128BF2E46002D2B
:1018F000EDD1BDE8F88300BF064A074B10B50024C0
:1019000014701C60BFF35F8F0449054800F032F883
:10191000204610BDFC070020000800208043000086
:10192000F407002008B50020FFF72EFBF1EE103A77
:1019300023F09F03E1EE103ABFF35F8F054B402287
:10194000C3F884210020FFF727FB20BF40BF20BF42
:1019500008BD00BF00E100E0826800239360826858
:101960001361826853618268D360826853608268C1
:101970001360704701600B6843604A68934204BF7C
:1019800000234360704700BF034B187808B18520DF
:10199000704701221A7070470408002070B50A4A87
:1019A0000A4B06784568047AC06853F8213052F82B
:1019B000211084B003908DF8006001958DF80840E7
:1019C0006846984704B070BD080800200C08002045
:1019D00070B50A4A0A4B067845688468C06853F8AF
:1019E000213052F8211084B003908DF800600195E9
:1019F0008DF808406846984704B070BD080800207C
:101A00000C080020F0B51A4B06781A4D0C6991F8B5
:101A10001DC045F826400746174803F806C040F8A1
:101A200026200C4696460FCC89B06D460FC594E82B
:101A30000F0085E80F000496BCF1000F0BD0BEF13B
:101A4000000F0E4A694607F1040008BF002200F0AB
:101A5000E7FE09B0F0BDBEF1000F094A694607F183
:101A60000C0008BF002200F0ABFC09B0F0BD00BFC5
:101A7000D8080020080800200C0800209D1900004C
:101A8000D11900002DE9F84F154DDFF85890824626
:101A900000264FF0010803E0FFF77EFAA5431BD0B4
:101AA000F7B2002008FA07F4FFF76EFA2C424FF065
:101AB000000006F10106EFD0D9F8003014EA030B5C
:101AC000EAD11C4358468AF80070C9F80040FFF775
:101AD00063FA5846BDE8F88F0420BDE8F88F00BFD0
:101AE000FFFF0F001008002051B14AB101238340CD
:101AF00010B4C3F313042CB907205DF8044B7047EE
:101B00000E207047094C2468234203D108205DF859
:101B1000044B7047C00000F1804303F5F833002008
:101B2000C3F81015C3F81425E7E700BF100800201C
:101B300001238340C3F313022AB1054A12681342FA
:101B400001D108207047034A0020C2F804357047CD
:101B50001008002000F00140014B1B68184700BF2F
:101B60001408002038B50C4B984201D0002038BD35
:101B700000200D46FFF708FA084B1C7924B100201D
:101B8000FFF70AFA112038BD012220461D601A71A4
:101B9000FFF702FA204638BD00200040140800205C
:101BA000034B984203D1034B00221A601A7170470D
:101BB00000200040140800202DE9F041684B1A680D
:101BC00088B0002A3CD1674F97F82E30002B45D1C2
:101BD000654B1A68002A5ED1644B1C68002C6AD1E0
:101BE0007E699EB14FF000480125B6FA86F2930057
:101BF00003F58C7303F1804101F5E04128FA02F20C
:101C0000086826EA020620B9002EEED108B0BDE829
:101C1000F081A3F58C730C6083F0040209680491D1
:101C2000C2F38002DB088DF819208DF818308DF88A
:101C300014503B68049A05A89847002ED5D1E5E7D3
:101C40000022484F1A60196897F82E3000910099C9
:101C5000002B39D097F82F30002B4ED1444B1A6807
:101C6000002AB5D000221A6097F82D0019687B8BE6
:101C7000019184B2A34201994ED85FD0384B3D4ABE
:101C8000002119601B680293012302991360364BEF
:101C90001A68002AA0D000221A6008A81B680393C3
:101CA000022100F80C1D3B6803993A7498472F4BAA
:101CB0001C68002C94D000221A601B680593059BB9
:101CC0003A7408B0BDE8F081FA68786839898DF80F
:101CD00014300690ADF81C10002A2CD02648398B01
:101CE0007A600122FB607983398102603B6805A834
:101CF0009847002387F82F3066E7FB6878683989B2
:101D00008DF814200690ADF81C10A3B1398B7B60C0
:101D1000FA6079833981E9E73A897968164D1B1BA6
:101D20009BB292B2D21A01EB42027B83C5F82C26F9
:101D3000C5F83006A2E700233B74D7E7FB684BB138
:101D40000D497A83012287F82F20C1F82C36C1F87B
:101D5000300693E701227B8387F82F208EE700BFB0
:101D6000047100401C0800201071004014710040F4
:101D7000007100400470004000700040214B93F857
:101D80002C200AB108207047F0B51F4C0578196067
:101D9000C4F8F05545781D49C4F8F4556FF0004576
:101DA0001A74C678C4F8085383B00A600968184DDD
:101DB000019101992A60817883F82E602D68154879
:101DC0000095490183F82D205A6183F82F20802542
:101DD000C9B202270122F6B2DDF800E083F82C2018
:101DE00080F80713C0F880510560C4F804730EB181
:101DF000C4F80423044B01220020C3F8002503B0DB
:101E0000F0BD00BF1C0800200070004004710040BD
:101E10000071004000E100E02F4A137C0BB111205B
:101E20007047F0B50C79012C4FD900F10C0502EB8D
:101E300045031B79002B3DD04B788E780F7891F8B5
:101E400003E01B01360206F4E06603F0300333437F
:101E500007F003064F794FEA0E3E33430EF4805EDF
:101E60008E793F0507F4801743EA0E033B4336069D
:101E70001A4F06F08076240402EB450204F4E024B5
:101E8000334307EB00150001CE791671234300F1AF
:101E900080400C7A547100F5E040C5F81835CB79D4
:101EA0000A7AC0F81425C0F810350B79012B07D930
:101EB0000020F0BD92F82D30013382F82D30BBE7C1
:101EC0000123C7F800350020F0BD03F0FF05034BE8
:101ED000C3F800550C79A8E71C08002000700040EA
:101EE000044B054A93F82E00044B00280CBF104603
:101EF000184670471C080020047000400070004025
:101F0000F0B42C4A2C4B1224C2F808431D7C022D3D
:101F100082B01CD01C7C012C1FD093F82E4058603E
:101F2000022701250026C2F804731D74DE601981A2
:101F3000E4B9224BC2F82C06C2F830161C601B68AC
:101F40000193019B1560204602B0F0BC7047112040
:101F5000C2F8044302B0F0BC7047DC688CB10223C5
:101F60001120C2F8043302B0F0BC704793F82D4042
:101F7000C2F82C0630465983C2F8304602B0F0BC95
:101F8000704793F82E20D86019836AB90B4A1368FA
:101F9000002BFCD0002313601268064B0092009ABD
:101FA000C3F82C06C3F83016024B0222C3F80423F0
:101FB0000020C9E7007000401C08002000710040AC
:101FC000F0B505793A4E6F007C19A40006EB040EBB
:101FD00083B09EF8083013B1082003B0F0BD325131
:101FE0004A68CEF8042042799E466AB19A0002F50A
:101FF000A072046844F802E00133A45842790194C5
:10200000DBB29A42019CF1D80468CB78240B62B20F
:10201000002A45DB02F1604202F561425B01DBB25E
:1020200082F800330268120B42F3C40323F06043CA
:1020300023F0030303F1604303F56143012402F03D
:102040001F0204FA02F2C3F880211A60D0F800E0FF
:102050004B78DEF8042503F0030322F00302134358
:10206000CEF80435D0F800E08B78DEF8082503F0D0
:10207000030322F003021343CEF8083500680B78FF
:10208000D0F810253D4422F00F0203F00F0306EBB9
:1020900085061343C0F810350020347203B0F0BD3C
:1020A000044A04F00F045B012244DBB21376B9E763
:1020B0004C080020FCEC00E00368054A012119608F
:1020C000037903EB430302EB830302221A72704786
:1020D0004C080020F0B4076840F20115D7F8004220
:1020E0008D4024EA0504C7F80042056882B0D5F89F
:1020F00000429DF8186023434FF48034C5F8003245
:102100008C4056B90368C3F80843036801F5A87109
:1021100043F8212002B0F0BC70478B0003F5A07398
:1021200005680026EE50ED5803680195019DC3F83F
:102130000443EAE700B52B4B1A6883B022B12A4A60
:10214000D2F80423D20328D4284B1A6822B1264A95
:10215000D2F8042390032CD4254B1A6822B1224ACA
:10216000D2F80423510330D4224B1A6822B11E4AFC
:10217000D2F80423120302D403B05DF804FB00225A
:102180001A601D4A1B68019351681368019A4FF445
:10219000A670984703B05DF804FB00221A60164A47
:1021A0001B68019351681368019A4FF4A070984717
:1021B000CAE700221A60104A1B680193516813682D
:1021C000019A4FF4A2709847C6E700221A600A4AA3
:1021D0001B68019351681368019A4FF4A4709847E3
:1021E000C2E700BF408100400080004044810040C1
:1021F000488100404C8100404C08002030B56E4AB8
:10220000D2F8043399058BB05BD5D2F82431002B7A
:1022100057D00023C2F82431D2F8243103934FF46D
:102220000171664B0398C2F8081393F8291009B995
:1022300001215160604902228DF81820D1F88024D4
:10224000C1F880249869D968099200220890079102
:102250009A6193E81200DA6106A8A047564AD2F8BC
:102260001C31C3B1554B186A5969884265D293F83D
:10227000280000F0FF0400285FD1C2F81C41D2F80A
:102280001C11029102999C68186A196A205C01313C
:102290001962C2F81C05484AD2F844317BB10021CA
:1022A000464BC2F84411D2F8440193F8291000902B
:1022B000009809B1012111609A69002A52D10BB02E
:1022C00030BD3D4AD2F804335B07C7D5D2F8083198
:1022D000002BC3D0394B9969002952D00021C2F894
:1022E0000811D2F8081104910499D868596AD2F8F3
:1022F000182542545A6A996901325A625A6A8A42C6
:10230000ACD1DA69002A45D193F8292012B92A4ABA
:1023100001215160284A4FF40171C2F80813596A2B
:10232000DA6808910024012007928DF8180093E8DC
:1023300006009C6106A8904790E71F4A0020C2F85B
:102340001C01D2F81C210192019A0029A3D09A689D
:102350008DF8180008915861079206A893E80600C6
:10236000904798E70022586AD9689A61012208903C
:1023700007918DF8182006A893E8060090470BB047
:1023800030BDC2F80811D2F8080105900598D2F8BE
:102390001825B3E7DD685C6A18699A61012100229B
:1023A000D860DA615A628DF818100795089493E89E
:1023B000060006A8904751E700200040580800207A
:1023C0002DE9F041604E05792C2303FB056382B0B3
:1023D00093F82A301BB1082002B0BDE8F0810F4607
:1023E00004465A4900689046FFF7BCFB18B111201B
:1023F00002B0BDE8F0813A68511C0BD04FF0A0410B
:1024000001239340C1F808353B6803F5E0730322CC
:1024100041F823207B685A1C06D003F5E0734FF087
:10242000A042002142F823102368BA69C3F824258A
:10243000397D7B7D22680B43C2F86C3597E8060036
:102440002368C3F81425C3F80C153B7D012B51D02C
:102450002C2303FB05F3F218C2F804803A69F2500A
:10246000B8F1000F35D023683A7F394F0021C3F807
:102470001C11D3F81C3100932368DDF800E0C3F889
:102480004411D3F84411236801910199C3F80473EE
:102490002168090B4BB2002B4EDB03F1604303F5BF
:1024A00061435201D2B283F800232268120B42F337
:1024B000C40323F0604323F0030303F1604303F5F7
:1024C000614302F01F02012101FA02F2C3F88021E8
:1024D0001A602C23246803FB0563002204250121D4
:1024E000C4F8005583F82A109A61DA6183F829202C
:1024F0005A6171E7BB68591C06D003F5E0734FF0D1
:10250000A042002142F82310FB685A1C0DD0012282
:102510004FF0A04102FA03F3C1F80835FB6803F558
:10252000E073032241F82320FB682268B968C2F8EF
:102530000835C2F810158BE7064B01F00F01520168
:102540000B44D2B21A76B0E758080020FD210000F3
:1025500080000200FCEC00E0F8B52F4D0479026821
:102560002C2303FB045300215B68C2F8001583B1E0
:1025700003682A4AC3F808230368294E1B0B5AB282
:102580005209203203F01F03012101FA03F346F838
:10259000223003684FF0FF32D3F80CE5D3F81475FE
:1025A000D3F80815D3F81065C3F81425C3F80C2523
:1025B00003689645C3F80825C3F8102506D00EF524
:1025C000E07E4FF0A043022243F82E207B1C06D071
:1025D00007F5E0774FF0A043022243F82720721C52
:1025E00006D006F5E0764FF0A043022243F82620FD
:1025F0004B1C06D001F5E0714FF0A043022243F8D6
:1026000021200068FFF7CCFA2C2303FB045400239D
:1026100084F82A306360F8BD580800208402020064
:1026200000E100E0F0B5304E05792C2303FB056393
:1026300085B05C6914B1112005B0F0BD1C629960D1
:1026400083F828405A610268C2F81C41D2F81C1174
:10265000026802910121029F91600268D3F808E0AC
:10266000C2F81C41D2F81C1101910199D3F820C085
:10267000196A5F681EF80CC001311962C2F81CC5E6
:1026800017B1204605B0F0BD1A6A5C690168944232
:1026900003D819E093F82820F2B9D1F81C21002AB8
:1026A000F8D0C1F81C71D1F81C210392039AD3F819
:1026B00020C01A6A1EF80CC001321A62C1F81CC58B
:1026C0001A6AA242E9D30168D1F81C31002BFBD071
:1026D0000123CB60002000E00F202C2303FB0563C7
:1026E00000225A61A8E700BF5808002070B54A4B85
:1026F000D3F8242188B0002A55D1D3F81011F1B9AC
:10270000454BD3F8442152B10020444AC3F8440158
:10271000D3F8444191690194019C002960D13E4B5A
:10272000D3F820214AB100213C4AC3F82011D3F844
:10273000204150690094009C30BB08B070BDC3F8C4
:102740001021D3F810113548039103998169D3F80A
:102750003C458C42D4D1C569002D50D0D3F800122D
:10276000C668856121F02001C3F800120369C261C7
:1027700001220168C3608DF81840436805968DF802
:10278000102004A89847BBE7D3F84C0593688DF850
:1027900018008DF810105161059304A892E80A0002
:1027A000984708B070BD0021C3F82411D3F8242144
:1027B000029202228DF81020029AD3F88004174A60
:1027C000C3F880040790D3F83C05D3688DF818004F
:1027D0009161D16105931168536804A898478FE708
:1027E000D3F83C458DF81840D368906101240593D7
:1027F000116853688DF8104004A898478FE7C368A4
:1028000001688561012205938DF8184043688DF8B1
:10281000102004A8984773E7002000408408002097
:102820002DE9F0430479704EE7003B1906EB830372
:1028300085B093F820301BB1082005B0BDE8F083C7
:1028400089460546694900689046FFF78BF918B13B
:10285000112005B0BDE8F083D9F80020511C0CD040
:102860004FF0A04101239340C1F80835D9F800305A
:1028700003F5E073032241F82320D9F804305A1CF1
:1028800006D003F5E0734FF0A042002142F8231078
:102890002B68D9F81820C3F8242599F8141099F852
:1028A00015202B680A43C3F86C252A68D9F8003034
:1028B000D9F80410C2F80C35C2F8141599F8143080
:1028C000012B61D03A199200B318C3F80480D9F8EB
:1028D0001030B350B8F1000F47D0296899F81C2088
:1028E000DFF810E10023C1F81031D1F81011009188
:1028F0002968DDF800C0C1F82031D1F8201101911C
:102900002968DDF804C0C1F82431D1F824110291FE
:102910002968DDF808C0C1F84431D1F844112B68AA
:1029200003910399C3F804E32968090B4BB2002B08
:1029300051DB03F1604303F561435201D2B283F8E6
:1029400000232A68120B42F3C40323F0604323F0F0
:10295000030303F1604303F5614302F01F02012109
:1029600001FA02F2C3F880211A603C442A6806EB9F
:10297000840400230125082184F82050C2F80015A2
:10298000A361E361636158E7D9F80830591C06D0A8
:1029900003F5E0734FF0A042002142F82310D9F86C
:1029A0000C305A1C0FD001224FF0A04102FA03F361
:1029B000C1F80835D9F80C3003F5E073032241F86B
:1029C0002320D9F80C302A68D9F80810C2F8083545
:1029D000C2F8101576E7064B01F00F0152010B44C7
:1029E000D2B21A76ADE700BF84080020ED260000C1
:1029F000FCEC00E010030200F8B506792F4C0268E9
:102A0000F500AB1904EB830300215B68C2F80015E5
:102A100083B103682A4AC3F808230368294F1B0BB4
:102A20005AB25209203203F01F03012101FA03F3C5
:102A300047F8223003684FF0FF32D3F80CC5D3F8C3
:102A400014E5D3F80815D3F81075C3F80C25C3F8AE
:102A5000142503689445C3F80825C3F8102506D04B
:102A60000CF5E07C4FF0A043022243F82C20BEF18D
:102A7000FF3F06D00EF5E07E4FF0A043022243F860
:102A80002E207A1C06D007F5E0774FF0A0430222F3
:102A900043F827204B1C06D001F5E0714FF0A0430E
:102AA000022243F82120354404EB85040068FFF737
:102AB00077F8002384F820306360F8BD8408002094
:102AC0001003020000E100E001F06043B3F1005F99
:102AD00001D010207047F0B50579214EEF007C1928
:102AE00006EB840483B0636913B1112003B0F0BD19
:102AF000A1606261D0F800E0CEF82031DEF820C19C
:102B0000D0F800E0CDF804C0DDF804C0CEF85831AC
:102B1000DEF858C1D0F800E0CDF800C0DDF800C004
:102B2000CEF84415CEF8482502680121916062680C
:102B30000AB11846DAE7036800E079B9D3F8202132
:102B4000D3F85811002AF8D0002914BF0F20002014
:102B50007B1906EB830300225A61C7E70F20F7E7D2
:102B600084080020704700BF037803B17047F0B5B8
:102B70000A2183B004464068FFF7C2F9002840F0FC
:102B80008F8063685448B3F90040B3F90210B3F979
:102B90000420B3F90650B3F90870B3F90A60214470
:102BA0000A4415442F44B3F90C50B3F90E10B3F98D
:102BB0001020B3F91230494C3E44354429440A44AC
:102BC000134480FB0320DB17C3EBA00000F0A6FF3B
:102BD00002460B4638A1D1E9000101F02FF900228D
:102BE0003F4B00F04DFE01F0AFFADFED3E7A07EE0D
:102BF000100A27EE277AC7EE276A16EE900A00F031
:102C00009FFF41EC100B00F0A1FB2DA3D3E90023A3
:102C100051EC100B01F012F92BA3D3E9002300F0C3
:102C200031FE02460B4600202D4901F007F928A38A
:102C3000D3E9002300F024FE01F086FA2A4B226833
:102C400007EE900A2948C01AC008F5EEC07A0004C1
:102C5000F1EE10FA40F0030025D4254B9FED256AD4
:102C60002549BDEEE77AF5EEC07AF8EEC76AF1EED7
:102C700010FACCBF77EEE67A76EEE77A8DED007A41
:102C800067EE867AFDEEE77ACDED017AFDF7BCFEC0
:102C90000020FEF7F7F823680133236003B0F0BD8E
:102CA000FEF72AF96DE7BFEE007AF4EEC77AF1EE8F
:102CB00010FAD2DD114BD1E70000000000F88F4080
:102CC0000000000000B3B04083DBB5DCE1796B3F6E
:102CD000666666666612714067666666A8080020CA
:102CE0000000F03F0050C347444500007445000019
:102CF000B44300000000C84208440000044400003F
:102D000010B584B0FEF740FE002831D104A91A4B5B
:102D100041F8083D194A1A4800230393FFF750F978
:102D200018BB184B184AD3F8103515480021DBB2F0
:102D3000DA4000910123FFF7CDF91148FFF7BCF904
:102D4000FFF7CEF804461148FEF79CFE50B90F4B32
:102D50000F4918782246FEF7C7FE08B1FEF7CCF8F7
:102D600004B010BDFEF7C8F8F1E7FEF7C5F8D8E7E4
:102D7000FEF7C2F8CAE700BF00000306652B00009B
:102D8000D043000000800040006A1800D4080020F2
:102D90004081004008B5054B1878FEF7C9FE00B920
:102DA00008BDBDE80840FEF7A7B800BFD408002062
:102DB00000B5144B93E8070085B001AB03C312497B
:102DC00012481A70FEF7DAFFC8B901A90020FFF710
:102DD00023F888B90A210E48FFF792F848B90A216A
:102DE0000C48FFF78DF808B1FEF786F805B05DF8DE
:102DF00004FBFEF781F8F2E7FEF77EF8EAE7FEF75C
:102E00007BF8E2E7C0430000692B0000CC430000E0
:102E1000AC080020C0080020002108B50846FDF7D6
:102E2000F1FB08B1FEF768F8FDF770FB0120FEF733
:102E30003BF80020FEF71AF8FEF75EFD08B1FEF73A
:102E40005BF8FFF7B5FFFFF75BFFFFF7A3FF08484D
:102E5000084B0949C01AC008000440F00300FDF700
:102E600061FDFEF75FFDFDF72BFC0028FBD1F8E7C5
:102E70007445000044450000D8430000F0B4B44B52
:102E80001A78062A20D0B34B1B68062B00F08A80E4
:102E9000B14AD2F8883043F47003C2F88830BFF3E7
:102EA0004F8FBFF36F8F4FF01023D3F80022002A0B
:102EB000C0F28A81D3F80432002BC0F28581A74B7F
:102EC000A74A1A60F0BC704704331B681807DAD1B0
:102ED000A44B1B6803F0F002302A00F0658103F078
:102EE000E003402B00F060819E4B1B6803F0F00371
:102EF000302B00F01E819B4B1B6803F0F002302A40
:102F000000F0078103F0E003402B00F00281954BB5
:102F10001B6803F0F003302B00F0EB80914B1B6833
:102F200003F0F002302A00F0D08003F0E003402BE1
:102F300000F0CB808B4B1B6803F0F003302B00F0CC
:102F4000B680884B1B6803F0F003302B00F09880AC
:102F5000844B1B6803F0F003502B3FD0814B1B6860
:102F600003F0F002302A28D003F0E003402B24D0F5
:102F70007C4B1B6803F0F002302A03D003F0E0031F
:102F8000402B80D14FF08043D3F80024D2077FF547
:102F90007AAF6FF00102C3F800246E4B1B68062B5A
:102FA0007FF476AF704B1B68062B7FF471AF6F4ACE
:102FB000136843F4806313606AE76D4B6D4A1B68C6
:102FC00003F04F031360624B1B78062B7FF45BAF5B
:102FD000694B1B6818077FF456AFC9E74FF0805262
:102FE000664BD2F80414C3F82015D2F80814C3F8BD
:102FF0002415D2F80C14C3F82815D2F81014C3F80D
:103000002C15D2F81414C3F83015D2F81814C3F8DC
:103010003415D2F81C14C3F84015D2F82014C3F8A4
:103020004415D2F82414C3F84815D2F82814C3F86C
:103030004C15D2F82C14C3F85015D2F83014C3F83C
:103040005415D2F83414C3F86015D2F83814C3F804
:103050006415D2F83C14C3F86815D2F840143C4803
:10306000C3F86C15D2F844140278C3F87015062A18
:103070007FF409AF404B1B681C077FF404AF6DE77A
:103080003F4E404C4049414B0527012500203F223F
:103090003760256008601A602D4B1B78062B7FF483
:1030A000F2AE354B1B681D077FF4EDAE50E7284BA1
:1030B000374A1B780321062B11607FF4E4AE2E4BB8
:1030C0001B681E077FF4DFAE3BE74FF08043002212
:1030D000C3F80C21C3F81021C3F838251C4B1B780A
:1030E000062B7FF470AF244B1B681F077FF4CBAE19
:1030F00020E72849164ACB68127823F08073062A05
:10310000CB607FF4C0AE1C4B1B681B077FF4BBAECB
:1031100004E7214B0E4A1B6812782049C3F342335F
:10312000062A0B60B8D1144B1B681A077FF4ABAEAC
:10313000EDE6074B1A4A1B781A491160062B7FF4FB
:10314000A2AE0D4B1B6819077FF49DAED3E600BFFE
:10315000E00F00F03001001000ED00E01C00002046
:103160000090D003E80F00F0340100103C1700403D
:1031700058020010E40E0040E40F00F000C00040D0
:103180001056004088560040185600401456004023
:10319000A0050040F0ED00E0440200103C050040B6
:1031A00074C007400DF0ADBA204B214A1B6812785D
:1031B0002049C3F30423062A0B608FD11E4B1B68E2
:1031C00019073FF491AE5EE61C4B0122C3F80425BB
:1031D000D3F80024002AFBD04FF010231522174902
:1031E000C3F80022D1F80034002BFBD04FF010229E
:1031F0001521124BC2F80412D3F80024002AFBD088
:1032000000220E49C3F80425D1F80034002BFBD06E
:10321000BFF34F8F0A490B4BCA6802F4E0621343B5
:10322000CB60BFF34F8F00BFFDE700BF240300104A
:10323000E00F00F040350140E40F00F000E00140F5
:1032400000ED00E00400FA0508B5074B044613B191
:103250000021AFF30080054B1868836A03B19847DB
:10326000204600F071F800BF000000002C44000070
:1032700070B50D4E0D4CA41BA4100025A54209D11C
:103280000B4E0C4C00F0B6FFA41BA4100025A54269
:1032900005D170BD56F8253098470135EEE756F850
:1032A000253098470135F2E7F4010020F4010020B1
:1032B000F4010020F8010020044B054A1B681B6A3A
:1032C000002B08BF1346D3F8EC0070472000002005
:1032D0008400002082B001B901A942B14BB113783A
:1032E0000B601278101C18BF012002B07047104606
:1032F000FBE76FF00100F8E710B5431E0A44914266
:1033000000D110BD11F8014B03F8014FF7E702445B
:103310000346934200D1704703F8011BF9E70346C7
:1033200013F8012B002AFBD1181A0138704749B154
:10333000FF2A85BF8A2303600A704FF0FF3098BFD1
:103340000120704708467047FEE700BF2DE9F043B3
:103350002DED028B8BB055EC104B00F07DF8384B07
:10336000B0EE408AF0EE608A93F90060731C0DD0D5
:1033700022462B462046294600F0D0FE30B90022D6
:1033800000232046294600F0BFFE40B1B0EE480AB7
:10339000F0EE680A0BB0BDEC028BBDE8F083294B60
:1033A0000890CDE90245CDE904450193B6B9264F11
:1033B0004FF060462046294600220023CDE90667EB
:1033C00000F07AFE98B302230093684600F048FAB2
:1033D000A8B1089BC3B99DED068BD7E7DFF87090C5
:1033E0004FF000082046294600220023CDE9068937
:1033F00000F062FE68B102239E420093E5D100F026
:10340000F3FE22230360E4E700F0EEFE089B036076
:10341000E1E70123022E00930BD100F0E5FE21230A
:1034200003600A4800F020FA8DED060BD1E7012376
:103430000093684600F014FA0028F2D1EDE700BFCF
:10344000F00100203C450000FFFFEFC7B44300003F
:103450000000F0FF000000002DE9F04F51EC100BD0
:10346000B1F5801F85B00B4659DA10EE102A21F015
:103470000044224300F0F8800029C0F2808100223D
:10348000DD4B00F0B1FBDD4A0B4693426FF0350790
:103490004ADCC3F3130505F5152606F6647606F433
:1034A000801686F07F5282F4401242EA05011C1514
:1034B0000022D34B00F0E4F9AB1CA4F2FF34C3F3B9
:1034C00013033C44022B04EB165482468B464FF008
:1034D000000232DC002300F0EFFD002800F0CF8076
:1034E000002C00F05881204600F018FBACA3D3E973
:1034F000002306460F4600F077FBABA3D3E9002379
:1035000004460D463046394600F06EFB02460B4637
:103510002046294600F0B6F941EC100B0AE0B74A04
:1035200093424FF00007B4DD02460B4600F0AAF9C3
:1035300041EC100B05B0BDE8F08F4FF0804300F078
:10354000A1F902460B465046594600F077FC064664
:1035500020460F4600F0E2FA3246CDE900013B4634
:1035600030463946CDE9026700F03EFB02460B4685
:103570008046894600F038FB8DA3D3E90023064638
:103580000F4600F031FB8CA3D3E9002300F07AF959
:1035900032463B4600F028FB89A3D3E9002300F024
:1035A00071F932463B4600F01FFB87A3D3E90023A5
:1035B00000F068F942464B4600F016FB84A3D3E9BD
:1035C0000023804689463046394600F00DFB82A331
:1035D000D3E9002300F056F932463B4600F004FBE5
:1035E0007FA3D3E9002300F04DF932463B4600F0BB
:1035F000FBFA0B4602464946404600F043F9A5F562
:10360000C223C5F5D725A3F27A4351351D43002DBA
:10361000804689465CDD00227A4B5046594600F0D0
:10362000E3FA52465B4600F0DFFA06460F46002CEE
:103630006ED132463B464046494600F023F9DDE96B
:10364000022300F0D1FA02460B463046394600F01C
:1036500017F902460B465046594600F011F941EC65
:10366000100B05B0BDE8F08F002200230020664952
:1036700000F0E4FB41EC100B05B0BDE8F08F5AA35D
:10368000D3E900235046594600F0AEFA02460B46F5
:1036900000205C4900F0F4F8524606460F465B46AF
:1036A0005046594600F0A0FA02460B4630463946CD
:1036B00000F09AFA06460F46002C40F0A78002461A
:1036C0000B465046594600F0DBF841EC100B31E751
:1036D000002C00F0AF8032A3D3E90023DDE9000124
:1036E00000F082FA42464B4604460D465046594683
:1036F00000F0C6F8DDE9022300F076FA2AA3D3E948
:10370000002306460F46DDE9000100F06DFA21E0D6
:1037100023A3D3E90023DDE9000100F065FA324676
:103720003B4604460D464046494600F0ABF8DDE90D
:10373000022300F059FA1CA3D3E9002380468946EE
:10374000DDE9000100F050FA02460B4640464946CA
:1037500000F098F802460B463046394600F090F8E3
:1037600052465B4600F08CF802460B46204629463E
:1037700000F086F841EC100B05B0BDE8F08F10EEBC
:10378000102A0B4600F07CF80022002300F056FBC4
:1037900041EC100BCEE69FED160BCBE6AFF30080AD
:1037A0000000E0FE422EE63F763C7935EF39EA3DF7
:1037B00044523EDF12F1C23FDE03CB966446C73F60
:1037C000599322942449D23F935555555555E53F79
:1037D0009FC678D0099AC33FAF788E1DC571CC3F84
:1037E00004FA97999999D93F555555555555D53F4F
:1037F000000000000000000000005043FFFFEF7FCA
:103800000000F03F0000E03F000050C3204600F001
:1038100085F90FA3D3E900238046894600F0E4F937
:103820000DA3D3E9002304460D464046494600F067
:10383000DBF98FE702460B465046594600F020F868
:10384000DDE9022300F0D0F903E700BFAFF3008009
:103850000000E0FE422EE63F763C7935EF39EA3D46
:1038600000207047000000009FED010B704700BF73
:10387000000000000000F87F81F0004102E000BF7E
:1038800083F0004330B54FEA41044FEA430594EA20
:10389000050F08BF90EA020F1FBF54EA000C55EA5B
:1038A000020C7FEA645C7FEA655C00F0E2804FEA2C
:1038B0005454D4EB5555B8BF6D420CDD2C4480EA0E
:1038C000020281EA030382EA000083EA010180EA3E
:1038D000020281EA0303362D88BF30BD11F0004F8C
:1038E0004FEA01314FF4801C4CEA113102D04042C2
:1038F00061EB410113F0004F4FEA03334CEA1333FD
:1039000002D0524263EB430394EA050F00F0A78014
:10391000A4F10104D5F1200E0DDB02FA0EFC22FA0F
:1039200005F2801841F1000103FA0EF2801843FA03
:1039300005F359410EE0A5F120050EF1200E012AF4
:1039400003FA0EFC28BF4CF0020C43FA05F3C01832
:1039500051EBE37101F0004507D54FF0000EDCF1AB
:10396000000C7EEB00006EEB0101B1F5801F1BD354
:10397000B1F5001F0CD349085FEA30004FEA3C0C58
:1039800004F101044FEA445212F5800F80F09A804E
:10399000BCF1004F08BF5FEA500C50F1000041EB52
:1039A000045141EA050130BD5FEA4C0C404141EB56
:1039B000010111F4801FA4F10104E9D191F0000F7D
:1039C00004BF01460020B1FA81F308BF2033A3F100
:1039D0000B03B3F120020CDA0C3208DD02F1140CF7
:1039E000C2F10C0201FA0CF021FA02F10CE002F132
:1039F0001402D8BFC2F1200C01FA02F120FA0CFC2B
:103A0000DCBF41EA0C019040E41AA2BF01EB045173
:103A1000294330BD6FEA04041F3C1CDA0C340EDC71
:103A200004F11404C4F1200220FA04F001FA02F3B4
:103A300040EA030021FA04F345EA030130BDC4F172
:103A40000C04C4F1200220FA02F001FA04F340EA67
:103A50000300294630BD21FA04F0294630BD94F018
:103A6000000F83F4801306BF81F480110134013DFF
:103A70004EE77FEA645C18BF7FEA655C29D094EA70
:103A8000050F08BF90EA020F05D054EA000C04BFEE
:103A90001946104630BD91EA030F1EBF00210020D9
:103AA00030BD5FEA545C05D14000494128BF41F078
:103AB000004130BD14F580043CBF01F5801130BDDC
:103AC00001F0004545F0FE4141F470014FF0000067
:103AD00030BD7FEA645C1ABF194610467FEA655C18
:103AE0001CBF0B46024650EA013406BF52EA0335BA
:103AF00091EA030F41F4002130BD00BF90F0000FA8
:103B000004BF0021704730B54FF4806404F13204E3
:103B10004FF000054FF0000150E700BF90F0000F9C
:103B200004BF0021704730B54FF4806404F13204C3
:103B300010F0004548BF40424FF000013EE700BF93
:103B400042004FEAE2014FEA31014FEA02701FBF23
:103B500012F07F4393F07F4F81F06051704792F0F5
:103B6000000F14BF93F07F4F704730B54FF460746F
:103B700001F0004521F0004120E700BF50EA0102BA
:103B800008BF704730B54FF000050AE050EA010267
:103B900008BF704730B511F0004502D5404261EBD7
:103BA00041014FF4806404F132045FEA915C3FF418
:103BB000DCAE4FF003025FEADC0C18BF03325FEAB1
:103BC000DC0C18BF033202EBDC02C2F1200300FA66
:103BD00003FC20FA02F001FA03FE40EA0E0021FA8B
:103BE00002F11444C1E600BF70B54FF0FF0C4CF475
:103BF000E06C1CEA11541DBF1CEA135594EA0C0F2B
:103C000095EA0C0F00F0DEF82C4481EA030621EA65
:103C10004C5123EA4C5350EA013518BF52EA0335A0
:103C200041F4801143F4801338D0A0FB02CE4FF052
:103C30000005E1FB02E506F00042E0FB03E54FF082
:103C40000006E1FB03569CF0000F18BF4EF0010E7A
:103C5000A4F1FF04B6F5007F64F5407404D25FEA76
:103C60004E0E6D4146EB060642EAC62141EA555129
:103C70004FEAC52040EA5E504FEACE2EB4F1FD0C6B
:103C800088BFBCF5E06F1ED8BEF1004F08BF5FEAE9
:103C9000500E50F1000041EB045170BD06F000469B
:103CA00046EA010140EA020081EA0301B4EB5C0448
:103CB000C2BFD4EB0C0541EA045170BD41F4801140
:103CC0004FF0000E013C00F3AB8014F1360FDEBF65
:103CD000002001F0004170BDC4F10004203C35DA41
:103CE0000C341BDC04F11404C4F1200500FA05F3C4
:103CF00020FA04F001FA05F240EA020001F0004265
:103D000021F0004110EBD37021FA04F642EB0601DA
:103D10005EEA430E08BF20EAD37070BDC4F10C0404
:103D2000C4F1200500FA04F320FA05F001FA04F2C8
:103D300040EA020001F0004110EBD37041F10001B4
:103D40005EEA430E08BF20EAD37070BDC4F12005BF
:103D500000FA05F24EEA020E20FA04F301FA05F227
:103D600043EA020321FA04F001F0004121FA04F2CF
:103D700020EA020000EBD3705EEA430E08BF20EA9F
:103D8000D37070BD94F0000F0FD101F000464000D9
:103D900041EB010111F4801F08BF013CF7D041EA5B
:103DA000060195F0000F18BF704703F0004652005F
:103DB00043EB030313F4801F08BF013DF7D043EA30
:103DC0000603704794EA0C0F0CEA135518BF95EAE6
:103DD0000C0F0CD050EA410618BF52EA4306D1D16D
:103DE00081EA030101F000414FF0000070BD50EA8C
:103DF000410606BF1046194652EA430619D094EA16
:103E00000C0F02D150EA013613D195EA0C0F05D1FF
:103E100052EA03361CBF104619460AD181EA030153
:103E200001F0004141F0FE4141F470014FF000000B
:103E300070BD41F0FE4141F4780170BD70B54FF0A6
:103E4000FF0C4CF4E06C1CEA11541DBF1CEA135526
:103E500094EA0C0F95EA0C0F00F0A7F8A4EB050408
:103E600081EA030E52EA03354FEA013100F08880FF
:103E70004FEA03334FF0805545EA131343EA1263C8
:103E80004FEA022245EA111545EA10654FEA00267D
:103E90000EF000419D4208BF964244F1FD0404F536
:103EA000407402D25B084FEA3202B61A65EB030592
:103EB0005B084FEA32024FF480104FF4002CB6EB4F
:103EC000020E75EB030E22BFB61A754640EA0C00CF
:103ED0005B084FEA3202B6EB020E75EB030E22BF0F
:103EE000B61A754640EA5C005B084FEA3202B6EB50
:103EF000020E75EB030E22BFB61A754640EA9C000F
:103F00005B084FEA3202B6EB020E75EB030E22BFDE
:103F1000B61A754640EADC0055EA060E18D04FEA9C
:103F2000051545EA16754FEA06164FEAC30343EA3C
:103F300052734FEAC2025FEA1C1CC0D111F4801F09
:103F40000BD141EA00014FF000004FF0004CB6E702
:103F500011F4801F04BF01430020B4F1FD0C88BFA1
:103F6000BCF5E06F3FF6AFAEB5EB030C04BFB6EBAC
:103F7000020C5FEA500C50F1000041EB045170BD9F
:103F80000EF0004E4EEA113114EB5C04C2BFD4EBCC
:103F90000C0541EA045170BD41F480114FF0000E50
:103FA000013C90E645EA060E8DE60CEA135594EACC
:103FB0000C0F08BF95EA0C0F3FF43BAF94EA0C0FCF
:103FC0000AD150EA01347FF434AF95EA0C0F7FF444
:103FD00025AF104619462CE795EA0C0F06D152EA98
:103FE00003353FF4FDAE1046194622E750EA41067C
:103FF00018BF52EA43067FF4C5AE50EA41047FF48D
:104000000DAF52EA43057FF4EBAE12E74FF0FF3CF1
:1040100006E000BF4FF0010C02E000BF4FF0010CC2
:104020004DF804CD4FEA410C7FEA6C5C4FEA430C3B
:1040300018BF7FEA6C5C1BD001B050EA410C0CBF8A
:1040400052EA430C91EA030F02BF90EA020F0020EC
:10405000704710F1000F91EA030F58BF994208BF53
:1040600090422CBFD8176FEAE37040F00100704710
:104070004FEA410C7FEA6C5C02D150EA013C07D167
:104080004FEA430C7FEA6C5CD6D152EA033CD3D0B2
:104090005DF8040B704700BF8446104662468C46AC
:1040A0001946634600E000BF01B5FFF7B7FF0028DF
:1040B00048BF10F1000F01BD4DF808EDFFF7F4FF08
:1040C0000CBF012000205DF808FB00BF4DF808ED93
:1040D000FFF7EAFF34BF012000205DF808FB00BFB6
:1040E0004DF808EDFFF7E0FF94BF012000205DF8D8
:1040F00008FB00BF4DF808EDFFF7CEFF94BF01208D
:1041000000205DF808FB00BF4DF808EDFFF7C4FF85
:1041100034BF012000205DF808FB00BF4FEA410CCE
:104120007FEA6C5C02D150EA013C0AD14FEA430CB1
:104130007FEA6C5C02D152EA033C02D14FF00000EE
:1041400070474FF0010070474FEA4102B2F1E0437F
:1041500024BFB3F5001CDCF1FE5C0DD901F0004C6E
:104160004FEAC0024CEA5070B2F1004F40EB8300BE
:1041700008BF20F00100704711F0804F21D113F1EA
:104180003872BCBF01F00040704741F480114FEA23
:104190005252C2F11802C2F1200C10FA0CF320FAAC
:1041A00002F018BF40F001004FEAC1234FEAD323C9
:1041B00003FA0CFC40EA0C0023FA02F34FEA430333
:1041C000CCE77FEA625307D150EA01331EBF4FF0BC
:1041D000FE4040F44000704701F0004040F0FE40D7
:1041E00040F40000704700BF014B1868704700BFE3
:1041F00020000020F8B500BFF8BC08BC9E46704700
:10420000F8B500BFF8BC08BC9E467047FFFFFFFF33
:10421000FFFFFFFFFFFFFFFFFFFFFFFF00000000AA
:10422000000000000000D60106010000F9030000B4
:1042300065040000F5030000756172745F6C6F67C0
:104240005F6261636B656E640000000058070020C8
:104250007F000000D80700204261636B656E6473C5
:1042600020666C7573686564000000006170700002
:10427000C8420000F8420000A842000000430000CD
:1042800008430000104300001843000020430000D2
:104290002843000020253032780000002020200034
:1042A0007C000000256300001B5B313B33316D0057
:1042B00025734C6F67732064726F7070656420287B
:1042C00025642925730D0A001B5B306D000000007A
:1042D000257300003C25733E2025733A2000000022
:1042E0000D0A0000000000003043000038430000C9
:1042F00040430000484300001B5B313B33306D00FE
:104300001B5B313B33326D001B5B313B33336D0044
:104310001B5B313B33346D001B5B313B33356D0030
:104320001B5B313B33366D001B5B313B33376D001C
:104330006572726F720000007761726E696E67005D
:10434000696E666F000000006465627567000000BA
:1043500016171800466174616C206572726F7200E6
:1043600053797374656D2072657365740000000085
:10437000303132333435363738394142434445469B
:104380004445000044450000040000007077725F5F
:104390006D676D740000000050504900505253008A
:1043A000534141444300000054494D455200000030
:1043B0005541525400000000554152544500000040
:1043C00000000000020000020000000001000600E2
:1043D000008000400004000047726F76652054653D
:1043E0006D70657261747572652053656E736F725E
:1043F000206578616D706C6520737461727465649A
:104400002E0000002D0000005B25645D54656D707A
:1044100065726174757265203D20257325642E25B3
:1044200030326420646567726565000024000020F6
:104430004300504F534958002E00002020202020D8
:104440002020202028282828282020202020202044
:104450002020202020202020202020881010101034
:104460001010101010101010101010040404040488
:1044700004040404041010101010101041414141B4
:10448000414101010101010101010101010101019C
:1044900001010101010110101010101042424242AE
:1044A000424202020202020202020202020202026C
:1044B0000202020202021010101020000000000090
:1044C00000000000000000000000000000000000EC
:1044D00000000000000000000000000000000000DC
:1044E00000000000000000000000000000000000CC
:1044F00000000000000000000000000000000000BC
:1045000000000000000000000000000000000000AB
:10451000000000000000000000000000000000009B
:10452000000000000000000000000000000000008B
:104530000000000000000000000000006C6F670039
:044540000000000077
:1045440098430000000000009C43000000000000AD
:10455400A043000000000000A84300000000000089
:10456400B043000000000000B84300000000000059
:104574006C420000000003038C43000000000000B4
:104584002C4200000000000038420000140000200B
:10459400640200202C030020340300206C0200205D
:0445A40018000000FB
:0845A800C4BCFF7F010000000C
:1045B000000000000020004000000000002000403B
:1045C0000000000000000000FF0000000090D00389
:1045D0002400002000000000000000000000000097
:1045E00000000000000000000000000000000000CB
:1045F00000000000000000000000000000000000BB
:1046000000000000000000000000000000000000AA
:10461000000000000000000000000000000000009A
:10462000000000000000000000000000000000008A
:104630000000000043000000000000000000000037
:10464000000000000000000000000000000000006A
:104650000000000043000000000000000000000017
:10466000000000000000000000000000000000004A
:1046700000000000430000000000000000000000F7
:10468000000000000000000000000000000000002A
:1046900000000000430000000000000000000000D7
:1046A000000000000000000000000000000000000A
:1046B00000000000430000000000000000000000B7
:1046C00000000000000000000000000000000000EA
:1046D0000000000043000000000000000000000097
:1046E00000000000000000000000000000000000CA
:1046F0000000000043000000000000000000000077
:1047000000000000000000000000000000000000A9
:10471000000000002F330000D53200000000000030
:104720003A44000038440000394400003944000095
:104730003944000039440000394400003944000085
:10474000394400003944000039440000FFFFFFFFF6
:10475000FFFFFFFFFFFFFFFFFFFF000001004153CE
:104760004349490000000000000000000000000074
:1047700000000000000000000000000000004153A5
:104780004349490000000000000000000000000054
:104790000000000000000000000000000000000019
:1047A00001000000250200000102000000000000DE
:04000003000002E116
:00000001FF
