:1000000000000420E1020000090300000B030000CF
:100010000D0300000F0300001103000000000000AA
:1000200000000000000000000000000013030000BA
:100030001503000000000000170300001903000072
:10004000352500001B0300001D2F00001B030000CE
:100050001B0300001B030000292900001B030000F4
:100060001B0300001B0300001B0300001B03000018
:100070001B0300001B0300001B0300001B03000008
:100080001B030000B11200001B0300001B03000053
:10009000511300001B0300001B0300001B030000A2
:1000A0001B0300001B0300001B0300001B030000D8
:1000B0001B0300001B030000000000000000000004
:1000C0001B0300001B0300001B0300001B030000B8
:1000D0001B0300001B0300001B0300001B030000A8
:1000E0001B0300001B0300001B03000000000000B6
:1000F000000000001B030000000000001B030000C4
:1001000000000000000000000000000000000000EF
:1001100000000000000000000000000000000000DF
:1001200000000000000000000000000000000000CF
:1001300000000000000000000000000000000000BF
:1001400000000000000000000000000000000000AF
:10015000000000000000000000000000000000009F
:10016000000000000000000000000000000000008F
:10017000000000000000000000000000000000007F
:10018000000000000000000000000000000000006F
:10019000000000000000000000000000000000005F
:1001A000000000000000000000000000000000004F
:1001B000000000000000000000000000000000003F
:1001C000000000000000000000000000000000002F
:1001D000000000000000000000000000000000001F
:1001E000000000000000000000000000000000000F
:1001F00000000000000000000000000000000000FF
:1002000010B5054C237833B9044B13B10448AFF350
:1002100000800123237010BD0002002000000000B8
:10022000E44800000C4B43B10C480D4910B5AFF346
:1002300000800C48036823B910BD0A48036833B92D
:100240007047094B002BF7D0BDE810401847064B0C
:10025000002BF5D0184700BF00000000E448000064
:1002600004020020F801002000000000154B002BC4
:1002700008BF134B9D46A3F5803A00218B460F46DD
:100280001348144A121A03F0BEFF0F4B002B00D084
:1002900098470E4B002B00D0984700200021040007
:1002A0000D000D48002802D00C48AFF3008003F089
:1002B0005BFF2000290003F019FE03F041FF00BF9F
:1002C0000000080000000420000000000000000002
:1002D00000020020DC0A00200000000000000000F6
:1002E0000649074A074B9B1A03DD043BC858D05008
:1002F000FBDC03F043FEFFF7B9FF000054490000A8
:100300000000002000020020FEE7FEE7FEE7FEE717
:10031000FEE7FEE7FEE7FEE7FEE7FEE7F0B595B095
:10032000002415460F4608461E4601F013FF3846C6
:1003300023460822089505A91A9D09960D950A9449
:100340008DF82C400C9401F061FF9DF81430079853
:1003500006998DF8114003F00302012A02900391DF
:1003600028D0022A04D0384601F0F8FE15B0F0BDBE
:10037000BDF81650C3F3C2038DF81030C5F38915CC
:100380000826082D2C4628BF0824334622460EA9ED
:10039000384601F03BFF2D1B214608AB02AA0EA8F0
:1003A000264400F091FC002DEBD1384601F0D6FE3A
:1003B00015B0F0BDBDF81460059DC6F38316C3F3F8
:1003C000C204B2000EA9384608238DF81040C5F3C8
:1003D000952501F01BFF08AB0093324628460EA975
:1003E00002AB00F0CBFBBEE7014B01221A70704755
:1003F00060020020704700BF00B583B0044B00933B
:10040000044A4023FFF78AFF03B05DF804FB00BFF6
:10041000190400002002002038B50E480E4D037864
:100420000E4CEB5C00252570D2B253B90C3002F0B3
:10043000F9FF58B90A4B1B7813B12378002BFCD075
:1004400038BD043003F07EFA0028F3D000F0E8FE57
:10045000F0E700BF00000020D80A00206002002062
:100460001C02002070B51348134A0378D35C88B08F
:10047000DBB90C3002F058FF104D0FCD6C460FC4A5
:1004800095E80F0008AD142645F8206D84E80F00AC
:1004900029460022074801F0CFFF08B100F0C0FE56
:1004A000074B00221A7008B070BD043003F0CAF97F
:1004B000E2E700BF00000020D80A00206C450000E1
:1004C0001C02002070B50D4D0FCD88B06C460FC4D6
:1004D00095E80F0008AD142645F8206D84E80F005C
:1004E0002946074A074801F0A7FF08B100F098FE27
:1004F000054B01221A7008B070BD00BF6C450000AA
:10050000E9030000000000201C02002008B5FFF7EE
:10051000D9FF0421034800F0E9FA034B01225A7184
:1005200008BD00BF2849000014000020F0B5334D7D
:1005300085B005F5836001F021FA05F2144001F061
:100540001DFA6B68AE6803EA0600C11C05EB810268
:1005500015F8214014F004040ED0117801F00301C5
:1005600001293BD0022903F1020700F1030126D043
:1005700005EB8102002CF0D105EB80005A1CC1680C
:100580000191324005EB820201F00301D268029230
:10059000012903F1020429D0022925D1BDF8063032
:1005A000BDF80A60C3F38913033304EB93041448C2
:1005B00001F0F2F900B16C60304605B0F0BD53882F
:1005C00007EB931306EA0300C11C05EB810215F843
:1005D000214004F00404002CBFD1CDE71188023380
:1005E000C1F383110B44EDE70026E0E7BDF80430CA
:1005F000BDF80A60C3F383131C44D8E7340300201A
:10060000480700200B4B0C4810B50022FF21C3F80F
:10061000182499601A605A60C3F8142483F82024BF
:1006200001F04EFD044610B9044801F04FFE20468B
:1006300010BD00BF3403002038490000AC45000065
:1006400021B9114B03EBC0000068704730B40F4A6A
:100650000D4C121BD2080CD00D4D2B88834210D0AC
:10066000002303E035F82310814205D001339A427C
:10067000F8D1002030BC704704EBC300006830BCE8
:1006800070472046FAE700BFE8480000284900000C
:10069000FC010020094B013903EBC00003290BD8F2
:1006A000DFE801F002080604022070474079704735
:1006B000007970470420704700207047E848000028
:1006C0002DE9F047914C94E80C009A4284B000F078
:1006D000B6800023C4F81834BFF34F8F6368A56851
:1006E00003EA0501CA1C04EB820614F82220500715
:1006F0001AD52768327802F00302012A43D0022A71
:1007000003F1020202D1738802EB931305EA03019D
:10071000D4F81804CA1C04EB820628B99F4238D9C1
:1007200014F822205207E5D404EB81015A1CC96851
:1007300001912A4004EB820201F00301D268029287
:10074000022903F1020828D001297CD0D4F81054E2
:100750003DB12B6828469B689847EB681D68002DC3
:10076000F7D16B486B4B6C49C01AC008000440F0CD
:10077000020000F0D7F860682368C01A18BF012093
:1007800004B0BDE8F08732880233C2F38312134409
:10079000BCE7676004B0BDE8F087BDF806305F488D
:1007A000C3F389194F46502FA8BF502767F38F1303
:1007B00007F10801ADF8063001F084FC0646002878
:1007C000C4D025EA080A0AF1010A01F0C3FC4FEA85
:1007D0008A0A0023082201A9304601F0E1FC5745AE
:1007E0006ED9BAF1000F7AD13A4608234C49304607
:1007F00001F0D6FC09F1030708EB9707D4F8183489
:10080000002B68D1D4F810545DB1EB685A793146A9
:1008100028461AB12B681B689847EB681D68002DA5
:10082000F3D1304601F09AFC002001F06DF8D4F8C5
:10083000183403B96760002001F06EF89BE70020D0
:1008400004B0BDE8F087BDF804303448C3F3831228
:10085000062A28BF0622911C62F389138900ADF88D
:10086000043001F02FFC064600283FF46FAF01F082
:1008700071FC0023082201A9304601F091FCBDF86B
:10088000043013F4707F3FD04FF0000A4FF0080996
:1008900005EA080103314B4604EB8101042230468E
:1008A00001F07EFCBDF804300AF1010AC3F38313A2
:1008B00008F10107534509F10409B846E8D89DE756
:1008C00005EA0801033104EB81013A46082330466A
:1008D00001F066FC8EE7304601F040FC4BE705EA8C
:1008E00008010331A7EB0A0504EB810152463046AB
:1008F000EDB2082301F054FC2A460AF10803084926
:10090000304601F04DFC75E7474677E73403002099
:1009100010490000E8480000B845000038490000D0
:10092000400300202DE9F843DFF8D8900746002067
:100930008846D9F8085000F0E7FFD9F80820D9F820
:100940000430D9F80060134401339B1B012B55D8A8
:1009500009F21C440121204600F0F4FFFFF7E6FDF8
:100960000146204600F0EEFF99E80A00D9F8082079
:10097000134401335B1A012BECD901240A400332E2
:1009800044F004036FF3891349F822300231002048
:10099000C9F8001000F0C0FF0021194800F0C6FFA0
:1009A00080F3100033192B4009EB8303000435401A
:1009B000033540EA1740D86019F8253067F3C503BE
:1009C00009F8253039F825306FF3891329F82530D7
:1009D00059F8252068F39F22134664F301036FF34F
:1009E000820349F8252009F8253099F820341BB1F5
:1009F000FFF766FE0028FBD1BDE8F8833146BCE76F
:100A000050070020340300202DE9F047354C804684
:100A1000002092468946A56800F076FFA2686368C8
:100A2000276813440133DB1B022B59D804F21C4600
:100A30000121304600F086FFFFF778FD0146304681
:100A400000F080FF94E80A00A268134401335B1AA7
:100A5000022BEDD901260A40033246F0040366F367
:100A6000891344F8223003310020216000F054FF44
:100A7000BB1C2B4004EB830300211B48C3F80CA0D4
:100A800000F054FF80F31000BB192B4004EB8303EC
:100A900000043D40033540EA1840D86014F8253082
:100AA00068F3C50304F8253034F8253066F389135C
:100AB00024F8253054F8252069F39F22134666F365
:100AC00001036FF3820344F8252004F8253094F8DD
:100AD00020341BB1FFF7F4FD0028FBD1BDE8F087FF
:100AE0003946B7E7340300205007002030B4174DD3
:100AF000D5F8104400215CB1E3681A798A4204D128
:100B000016E0DB681A798A4212D01B68002BF8D1F4
:100B1000C3681971D5F8103493B1DA68C3681268E4
:100B20001A60D5F81034DB681860084630BC70478E
:100B300001310A29DFD14FF0FF31084630BC704740
:100B4000C5F81004C2681360EFE700BF340300204B
:100B500038B5094BD3F81044012583F820544CB123
:100B6000E3685D71236820465B689847E3681C680A
:100B7000002CF5D138BD00BF340300202DE9F0472B
:100B800084B01D460C9C002394F80C802373EB88E2
:100B900081460E461746002B3BD1297A05290FD0F6
:100BA0006B7A002B3DD1404BA88853F821A000213F
:100BB000FFF746FD524603463C49204600F05EFFE3
:100BC000062F0FD8DFE807F0484D535A0463390069
:100BD000F168B06896E80C00019100904946204603
:100BE00000F04CFF2B7A052B05D06B7A5BB93049AE
:100BF000204600F043FF204600F034FF84F80C80CC
:100C000004B0BDE8F0872B4A2B49204600F036FFA0
:100C1000EDE7284A00922949294A204600F02EFF94
:100C2000BBE7A888FFF736FD264B234953F8202061
:100C3000204600F023FF297AB5E77069316996E80C
:100C40000C000390B068F76802918DE88100494676
:100C5000204600F013FFC5E74946204600F00EFF8E
:100C6000C0E732684946204600F008FFBAE7494627
:100C700096E80C00204600F001FFB3E7B16896E863
:100C80000C0020460091494600F0F8FEAAE7B06843
:100C9000F768316996E80C0002918DE881004946B9
:100CA000204600F0EBFE9DE744460000344600007D
:100CB0004046000028460000304600001046000074
:100CC00008460000D0450000082900D970472DE9EA
:100CD000F04F1D46904600232A7B2B7385B0B8F851
:100CE0000630039207460E46002B6BD198F8081089
:100CF000052911D098F80930002B6BD13C4BB8F87E
:100D0000040053F821400021FFF79AFC22460346D5
:100D10003849284600F0B2FEDFF8F8B0DFF8F89066
:100D20000024A642494628463ED93A5D013400F0E7
:100D3000A5FE082CF5D13049DFF8E090DFF8E0B0EF
:100D4000284600F09BFE002411E017F804A003F0F1
:100D50002FFA50445946437813F0970F14BF524668
:100D60002E222846013400F089FE082C08D0A64225
:100D700049462846E9D8013400F080FE082CF6D117
:100D800098F80830052B02D098F80930A3B91B4910
:100D9000284600F073FE284600F064FE9DF80C30F3
:100DA0002B7305B0BDE8F08F01345946284600F09A
:100DB00065FE082CB5D1BEE7114A1249284600F05D
:100DC0005DFEE4E70E4A00920F49104A284600F003
:100DD00055FE8BE7B8F80400FFF75CFC0C4B0949A3
:100DE00053F82020284600F049FE98F8081085E7BF
:100DF0004446000034460000004600004046000023
:100E0000284600003046000010460000084600005A
:100E1000D0450000FC450000F44500003C460000C1
:100E200004460000074B1B5C1F2B8ABF064A4FF08D
:100E3000A04203F01F03D2F80405D840C04300F0DD
:100E400001007047B046000000030050074B1B5CD8
:100E50001F2B86BF03F01F0305494FF0A04101225D
:100E600002FA03F3C1F80C35704700BFB04600002A
:100E700000030050074B1B5C1F2B86BF03F01F03B2
:100E800005494FF0A041012202FA03F3C1F80835E9
:100E9000704700BFB0460000000300504FF0A04371
:100EA0004FF480004FF400014FF08072C3F8080542
:100EB000C3F80815C3F80825704700BF4FF0A043DA
:100EC0004FF480004FF400014FF08072C3F80C051E
:100ED000C3F80C15C3F80C25704700BF0A4B195C0A
:100EE0001F298ABF09484FF0A04001F01F01D0F828
:100EF000043501228A4022EA03011340C0F8081594
:100F0000C0F80C35704700BFB04600000003005029
:100F10001B2809D01D2809D01F2809D020280CBF64
:100F200003204FF0FF3070470020704701207047CA
:100F300002207047C20730B40FD483070BD54FF09F
:100F4000A04211490023C2F86C37C2F87437C2F8C6
:100F50007C37C1F8003730BC70474FF0A043032204
:100F60004FF480054FF400044FF08071C3F8582708
:100F7000C3F85C27C3F86027C3F80855C3F80845D1
:100F8000C3F80815D9E700BF00030050434B197898
:100F9000002900F081802DE9F04F8C4687B00024B5
:100FA000012503E00134E4B2644560D23C4B27B232
:100FB0001E6816F837E0AEF1200305FA03F9394B45
:100FC000CEF12001D3E9002325FA01F149EA010914
:100FD00005FA0EF808EA020009EA0301014306EBEC
:100FE000C70BDFD02F4922EA080223EA0903704623
:100FF000C1E9002301F088FC16F837E0AEF12002C9
:1010000005FA02F201920199CEF12003C6B225FA47
:1010100003F3AEF12002194306FA02F30393224BC5
:101020000191D3E90023CDE9042305FA0EF30093DF
:10103000CEF12001039B26FA01F10B43039306FA3C
:101040000EF30293DDE90467DDE9002316401F403B
:1010500032463B46DDE90267BB4208BFB24209D0D7
:101060000E4B013493F800C0E4B264459ED307B040
:10107000BDE8F08FDBF80430002BF1D09BF80110B5
:10108000A1F10101B1FA81F14909091AB1FA81F11D
:10109000490970469847E3E7704700BFF007002012
:1010A0002808002020080020180800202DE9F84317
:1010B0000646204800F0F2FBD0B91F4F0123A6F1ED
:1010C000200103FA01F5C6F12002D7E9000123FA55
:1010D00002F2154303FA06F404EA000205EA0103EA
:1010E000134307D020EA040421EA0505C7E90045B7
:1010F000BDE8F883304601F007FC104ED6E90089C0
:1011000098B148EA040849EA0509D7E900231443DD
:101110001D43C6E90089C7E90045094B0548196820
:101120000022BDE8F84300F069BB28EA040829EA78
:101130000509EAE7F8070020200800201808002029
:10114000F4070020042A01D8072070472DE9F04158
:1011500082B00F460546164601F06EFA002834D0DC
:101160001C4C1D4A1D4B1E481E49256017707C1ED5
:1011700000221E600023C0E90023C1E90023E4B27D
:10118000EFB1DFF86C800027032601E0FF2C16D0BA
:1011900023B205EBC30215F8330093788DF806707F
:1011A000424601A98DF804608DF8053001F04EFA31
:1011B000013CE4B20028E9D002B0BDE8F0810A4A5F
:1011C0000A48002100F008FBF6E701F0E3F90028E7
:1011D000C6D0F1E728080020F0070020F40700201F
:1011E00018080020200800208D0F0000B4460000E1
:1011F000AD10000070B5084D2B785BB1074E002490
:101200003368012113F8340001F002FB2B7801341C
:10121000A342F5D8002070BDF00700202808002068
:1012200000B585B000230390194601AA44F20100DD
:101230000193029300F004F805B05DF804FB00BFD1
:1012400010B572B6FFF784FCFFF73AFA0028FBD11D
:10125000104B114C1149E41AE408240444F0010035
:10126000FFF760FB0E4B1B68DB0700D500BE44F0A8
:1012700002000C49FFF756FBBFF34F8F0A490B4B97
:10128000CA6802F4E0621343CB60BFF34F8F00BF24
:10129000FDE700BFE848000010490000B846000024
:1012A000F0ED00E0C446000000ED00E00400FA05A7
:1012B000F8B5204A204B0025C2F84051C2F84451ED
:1012C000C2F84851C2F84C51C2F80051C2F804515A
:1012D0001B6813B31949D2F804450A68A41A1A689E
:1012E00024F07F44A2422F4609D8197CDE69A41A53
:1012F000154499B91EB133461A68A242F5D910496E
:10130000104A0B7812789A420DD00F490F4A41F8D3
:1013100023504FF48013C2F80031F8BD1F745A698E
:1013200098699047E6E7531CDBB2022B08BF002305
:101330000B70EAE7001001404C090020480900202A
:1013400045090020440900203C09002000E100E09C
:101350002DE9F04FB74AB84913780978994285B01A
:1013600033D00133DBB2022B08BF0023B348137024
:10137000B34A0768DFF8E08252F82320D8F800105B
:10138000BB18002423F07F43036025462046A64671
:10139000A9B10B68934200F27D81CC68C1F800E0EE
:1013A000D21A1844CB6934B13E1826F07F46CD617D
:1013B0008C604E600D46194601240029E9D1002CAD
:1013C00040F0A5814FF0010B05E0DFF88C8200258D
:1013D000D8F80010AB469B4B9B4FDFF8809243F050
:1013E000010300930E464FF0000A002D2DD0D5F8D2
:1013F00004E0D5F808C02C46ED69904B93481B6873
:10140000AEEB030222F07F42824255D802EB0C037E
:101410002360002201206260A260E2612074002E3D
:101420006BD03068834261D9B64603E010689842B9
:101430004CD29646DEF81C201B1A002AF6D12360F7
:10144000E261CEF81C40002DD1D197F801C097F889
:1014500000E0F44571D0734603EB43030EF1010045
:10146000BA7807EBC3035FFA80FE7245187987F8F4
:1014700000E004BF4FF0000E87F800E002289A68F1
:101480004CD003283DD00128E3D1107C0028E0D1C6
:10149000D3F80CE0C2F804E0D3F810C0C2F808C0DA
:1014A00014465A69E26099F800209B69A361002AFA
:1014B000A3D060608646A0E7A3EB0E0323F07F4332
:1014C00063450AD2ACEB03032360A2E7C01A1060A5
:1014D0002360E261CEF81C40B5E7002301222360BF
:1014E0006360A360E36122743EB13068C8F80040D5
:1014F000C31A3360E661264677E7C8F800402646FF
:1015000073E7002EA5D0002200E01E46F369327476
:10151000002BFAD1C8F800301E4696E74EB1B24211
:10152000344603D1BDE09A4260D01C46E369002BEB
:10153000F9D100231374F4458DD1BAF1000F02D113
:101540008E4200F09D80002E00F0C5803B4B404A4B
:101550001C68D2F80475DFF80881D6F800A098F866
:1015600000103B1B23F07F43DD1CA9B93949354BE3
:101570004FF48030C2F844030126C2F804034FF44C
:101580000030C1F8800143F00103086016604FF499
:101590003C60984788F80060AA452CBF04EB0A031A
:1015A00063192B4923F07F43C1F84035D1F8042556
:1015B000D21BDB1B22F07F4223F07F4303329A428F
:1015C0000ED9204BD1F80425C1F8402543F0010382
:1015D0004FF43C6098471F4B4FF40032C3F8002192
:1015E000002389F8003005B0BDE8F08FA24239D061
:1015F000D2F81CE01368C4F81CE0BEF1000F11D053
:101600003046DEF800402344CEF80030864209D050
:10161000002397F800E097F801C0137406464FF0D6
:10162000010A88E7002397F800E097F801C01374D7
:1016300081E700BF44090020450900204809002037
:101640003C090020E04600002C080020FEFF7F003F
:101650000010014000E100E04C09002038090020A2
:10166000390900201346F069C8F80000D8B1D3F852
:101670001CE01B68C4F81CE0BEF1000FC1D1C5E737
:10168000BBF1000F7FF45FAF002389F8003005B095
:10169000BDE8F08F002C3DD19B1A0B604FF0010B81
:1016A00099E63346DFE701931C4BDFF87CC00392D9
:1016B0004FF0010E0291C3F808E0009BCCF8000047
:1016C00089F800E04FF43C609847D8F80000019B8F
:1016D0000299039ACBE7114D114A124C4FF4803313
:1016E0004FF400310127C2F880103C43C5F848335D
:1016F0004FF43C60C5F808336F60A0470A4BAF60F9
:101700004FF43C601E60A047084B1E7068E7C8F8A5
:10171000001057E6C8F80010BEE700BF00100140F7
:1017200000E100E0E04600004809002039090020FF
:101730002DE9F8431F4D204E204FDFF898804FF4DD
:1017400080334FF400324FF001090024C6F88020A6
:1017500047EA0907C5F848334FF43C60C5F8083339
:10176000C5F80490B847C5F808904FF43C60C8F835
:101770000040B847124B13481349144A1C70144BCD
:1017800004600C7014704FF48011C0220B2098700C
:101790001C705C70C6F8801186F814233160C5F89F
:1017A000084586F81123D5F80435C8F800302046DE
:1017B000BDE8F8830010014000E100E0E0460000D1
:1017C000390900204C090020440900204509002067
:1017D0002C08002048090020074B9B780BB90820F3
:1017E00070473AB130B10368187C0028F7D15974BA
:1017F0005A617047072070472C0800202DE9F041FE
:10180000234CA37813B90820BDE8F0810028FAD052
:10181000042902D80720BDE8F0814369002BF2D0EB
:10182000437C0546012B4FF000000CBF88468046E4
:1018300017460E4600F068F86378A07821785A1CA5
:10184000D2B2904208BF002291421AD003EB430368
:1018500004EBC30301200F499D601871D1F80415F2
:10186000D9601E61C3F814809F610020627000F08F
:1018700053F8094B4FF48012C3F800210020BDE853
:10188000F081002000F048F80420BDE8F08100BF9E
:101890002C0800200010014000E100E070B5184D58
:1018A000AB780BB9082070BD0028FBD04369002B32
:1018B000F8D0002404740646204600F025F86A7823
:1018C000A8782978531CDBB2984208BF2346994276
:1018D00011D002EB420205EBC202022120469660C3
:1018E00011716B7000F018F8064B4FF48012C3F8BA
:1018F0000021204670BD204600F00EF8042070BD87
:101900002C08002000E100E072B6024A136801339F
:101910001360704750090020034A1368013B1360AD
:1019200003B962B6704700BF5009002000B550E807
:10193000002F0B4640E8003E9EF0000FF7D1104606
:101940005DF804FB00B550E8003F03EB010240E8FE
:10195000002E9EF0000FF6D110465DF804FB00BF8C
:1019600000B550E8003FA3EB010240E8002E9EF0D6
:10197000000FF6D110465DF804FB00BF00B501234F
:1019800050E8002F42EA030E40E800E191F0000F1A
:10199000F6D170465DF804FB00B5002350E800EF77
:1019A0000EEA030240E8002191F0000FF6D17046E4
:1019B0005DF804FBB8B130B4416882680468521A1B
:1019C000D2B2531E2160DBB242B101680A685C1ECC
:1019D000551C0D601370E3B2FF2BF6D10368002095
:1019E000187130BC70470E20704700BF70B50446B8
:1019F0000020FFF789FF236861681A688A4215D9B9
:101A0000511E19602168A3680D680879268A12F8AA
:101A1000012CE4685B1BDBB2984206FB024400D257
:101A20000B710020FFF778FF204670BD00240020D6
:101A3000FFF772FF204670BD38B5054600200C4602
:101A4000FFF762FF2A681368591C1160E9682A8A47
:101A5000641AB4FBF2F41C700020BDE83840FFF7B4
:101A60005BBF00BF826802B9704710B50446436986
:101A70000168006998470023A36010BD0EB400B54B
:101A800082B0039929B102AA04AB42F8043D00F0E8
:101A900095F802B05DF804EB03B070472DE9F84FFC
:101AA0001746B942884606461D46DDF828B00B9A0F
:101AB0007DD30B464FF00109B3FBF7F39F4209F1C9
:101AC0000109F9D9A94538BFA94612F0010A02D186
:101AD000BBF1000F49D1B268012402E0013D07FBD0
:101AE00004F4012DFAD8B8FBF4F18F42F7D9324D46
:101AF00005E0B4FBF7F4A4B1B8FBF4F1B268685C9C
:101B0000531CB36033689854B26873689A4204FBFC
:101B10001188EED33046FFF7A5FFB4FBF7F4002C95
:101B2000EAD1BAF1000F16D0BBF1000F33D0CB458C
:101B300088BF20243ED9B3683268591CB160D454A0
:101B4000B26873689A420BF1FF3B06D2BBF1000FFB
:101B500009D0D945EFD1BDE8F88F3046FFF782FFB5
:101B6000BBF1000FF5D1BDE8F88F93071AD42024FC
:101B7000CB45B0D9B2683368511CB1609C54B2688F
:101B800073689A420BF1FF3B07D2BBF1000FA3D061
:101B9000CB45F0D1A0E7BDE8F88F3046FFF762FFF4
:101BA000B268F2E7002D0CBF30242024E0E74FF0AC
:101BB000010987E7BDE8F88FE8460000002900F03A
:101BC0006F822DE9F04F064685B093460C460B78A0
:101BD0000DE0B2683168501CB0608B54B268736815
:101BE0009A4280F0D3802378002B00F0BA80013431
:101BF000002B00F0B680252BEBD14FF000082346D8
:101C000014F8012B2D2A00F0BB80302A00F0BB8095
:101C10002B2A00F0AD802A2A00F0BC80A2F130050A
:101C2000E9B2092998BF013302D9A9E1A1F1300530
:101C30001C4613F8012BA2F1300005EB85010928A1
:101C400002EB4101F2D92E2A00F0B080002701E01A
:101C500014F8012F02F0FB03682BF9D0253A532A20
:101C60007AD8DFE812F07A017900790079007900FA
:101C7000790079007900790079007900790079009C
:101C8000790079007900790079007900790079008C
:101C9000790079007900790079007900790079007C
:101CA000790079007900790079007900790079006C
:101CB000790079007900790079007900790079005C
:101CC0007900790079007900790079006A0179005A
:101CD000790079007900790079007900790079003C
:101CE00079005501FC007900790079007900FC0049
:101CF0007900790079007900790079005400790041
:101D00007900CA007900BA00790079006A01DBF82D
:101D10000020131DCBF80030B368156831685A1CD9
:101D2000B2604FF03002CA54B3687268934280F0D8
:101D3000A0813268581C7821B060D154B2687368B1
:101D40009A4280F092810022082301922946009352
:101D500010223046FFF7A2FE01342378002B7FF4D7
:101D600046AF337B002B40F0058105B0BDE8F08F16
:101D7000234614F8012B2D2A48F004087FF445AFC0
:101D800048F001083BE748F0020838E73046FFF723
:101D900069FE28E7DBF80020111DCBF8001015685C
:101DA0005A782E2A03F101047FF450AF6278A2F131
:101DB0003003092B04F101044FF000073FF64AAF4E
:101DC00007EB870702EB470714F8012FA2F1300356
:101DD000092BA7F13007F3D93CE7DBF800301A1DD7
:101DE000CBF800201968CDF804803B4600950A2204
:101DF0003046FFF753FE0134AFE7DBF800301A1D21
:101E0000CBF8002018F0010FD3F8009040F0BB8011
:101E1000B9F1000F00F04781484602F0FCF907468F
:101E2000BD4240F2F180002D00F0EE804FF020081E
:101E300005E0BD4200F0E880002D00F0E580B368C9
:101E40003268591CB16002F80380B26873689A4224
:101E500005F1FF35EDD33046FFF704FEE9E7DBF887
:101E600000301A1DCBF80020D3F8009089EAE973FE
:101E7000A3EBE973092B4FF0010A09DD8F4A82FBBE
:101E80000312DB17C3EBA203092B0AF1010AF5DCED
:101E9000BA4538BFBA462DB3B9F1000F02DB18F0CE
:101EA000040F00D0013D18F0020F40F0F58018F04B
:101EB000010F17D1002D00F0FE80AA4538BF202168
:101EC00010D2B2683368501CB0609954B26873681D
:101ED0009A4205F1FF3580F0E880002D00F0EB809C
:101EE000AA45EED1B9F1000FC0F2C88018F0040F76
:101EF0007BD108F00303022B00F09A808DE82001CB
:101F00003B4649460A223046FFF7C8FD013424E724
:101F1000DBF80020131DCBF80030B368316812786D
:101F2000581CB060CA54B26873689A42FFF414AF88
:101F30003046FFF797FD01340FE7DBF800301A1D3C
:101F4000CBF800201968CDF804803B46009510229C
:101F50003046FFF7A3FD0134FFE6B3683268591C31
:101F6000B1604FF02501D154B26873689A42DFD254
:101F70000134F2E6304605B0BDE8F04FFFF772BD20
:101F80001C4600255FE64F46A7EB090817F8013B02
:101F90008BB1B2683168501CB0608B54B268736802
:101FA0009A42F1D33046FFF75DFDA7EB090817F819
:101FB000013B002BEDD145457FF6CEAE202705E055
:101FC00045453FF4C9AE002D3FF4C6AEB368326854
:101FD000591CB160D754B26873689A4205F1FF3555
:101FE000EED33046FFF73EFDEAE7B2683368501C97
:101FF0002B21B0609954B26873689A42FFF479AFAC
:102000003046FFF72FFD74E709F1FF3919F8013F5A
:10201000002B3FF4A1AEB2683168501CB0608B5405
:10202000B26873689A42F1D33046FFF71BFDEDE7C3
:10203000002F7FF463AF002D33D0AA45BFF45EAF0D
:10204000B2683368511CB1604FF030019954B268E6
:1020500073689A4205F1FF3503D215B3AA45EFD153
:102060004CE73046FFF7FEFCF7E73046FFF7FAFC97
:1020700069E63046FFF7F6FCB3685AE6B2683368A3
:10208000501C2D21B0609954B26873689A42C9F10E
:102090000009FFF42EAFB3E7002F3FF423AF06E7AC
:1020A000704700252AE74F46BAE630460391FFF70E
:1020B000D9FC039911E7002514E700BF676666663F
:1020C000FFF778BC2DE9F041B0F81080CF1CA8F1E3
:1020D000040847440646B7FBF8F7FFF787FC80B3D0
:1020E000FFB200250123013F0446A0F806800660E8
:1020F0000571437128D0804609E06379AF4203F14E
:1021000001036371C8F80000066080461CD03046A9
:10211000FFF76CFC01350028EFD16679721E16D0EE
:102120002346013082421B68FBD81F684EB121460E
:1021300000250C6801353846FFF77EFCAE4221468B
:10214000F7D10020BDE8F0812046BDE8F081276886
:10215000EDE700BF04300121FFF7F4BBF8B5012122
:1021600004460430FFF7FCFBC0B200B1F8BD66794D
:10217000721E12D02346013082421B68FBD81F68B2
:10218000002EF3D0214600240D6801343846FFF7B5
:1021900053FCA6422946F7D1F8BD2768F2E700BFF5
:1021A0002DE9F843C78890F805E0154607FB0EFEB9
:1021B000EC18AEF1040E1A1DA6458846B2FBF7F6E0
:1021C00038BFAEEB030507FB1621044616B1013EEE
:1021D0002468FCD17E1AAE4228BF2E469DB14FF036
:1021E0000009081DAD1B08EB09012044324601F02F
:1021F000FFFFAF42B14424683E464FF0000128BFC4
:102200002E46002DEDD1BDE8F88300BF2DE9F8433F
:10221000C78890F805E0154607FB0EFEEC18AEF1F6
:10222000040E1A1DA6458846B2FBF7F638BFAEEB82
:10223000030507FB1621044616B1013E2468FCD1B4
:102240007E1AAE4228BF2E469DB14FF000090431E0
:102250002144AD1B324608EB090001F0C9FFAF4233
:10226000B14424683E464FF0000128BF2E46002DA1
:10227000EDD1BDE8F88300BF0B4B0C480C49C01AE8
:10228000C008000410B540F00300FEF74BFB094AFC
:10229000094B002414701C60BFF35F8F0749084886
:1022A00000F022F8204610BDE84800002049000058
:1022B000F84600005C09002060090020004700008B
:1022C0005409002020BF40BF20BF70478268002310
:1022D000936082681361826853618268D360826808
:1022E000536082681360704701600B6843604A68FE
:1022F000934204BF00234360704700BF10B568B12C
:1023000001280AD10C4C2369A07033B10CCB0120F9
:10231000226198472369002BF8D110BD064CA368B1
:1023200001226270002BF8D00CCB0020A2609847ED
:10233000A368002BF8D110BD6409002010B50B4C28
:10234000237882B013B1852002B010BD08486360C5
:10235000A3602361E36000F0B3F8019000F0BEF8E1
:1023600001980123237002B010BD00BF6409002052
:10237000FD22000038B5154DAB78044673B110B19D
:102380004368012098470020FFF7BEFAEB6801334D
:10239000EB600020BDE83840FFF7BEBA03F0FF0055
:1023A000FFF7B2FA64B12A6942B1944208D01346E9
:1023B00001E09C4204D01B68002BFAD122602C6102
:1023C000EB68002BE2D100F09DF8DFE76409002004
:1023D00070B50A4A0A4B06784568047AC06853F813
:1023E000213052F8211084B003908DF800600195DF
:1023F0008DF808406846984704B070BD7809002001
:102400008009002070B50A4A0A4B0678456884683E
:10241000C06853F8213052F8211084B003908DF831
:10242000006001958DF808406846984704B070BD7B
:1024300078090020800900202DE9F043DFF874803E
:1024400006784B7F08F806300D46074694460FCDB8
:1024500089B06C460FC495E80F003D78DFF85890BE
:10246000DFF858E018F8055049F826C084E80F0056
:102470004EF82600049665B1BCF1000F0B4A694680
:1024800007F1040008BF002201F0CAF809B0BDE856
:10249000F083BCF1000F064A694607F10C0008BF43
:1024A000002200F04DFE09B0BDE8F083D12300000A
:1024B00005240000D80A00208009002078090020A7
:1024C000054A13790BB185207047012110605371C3
:1024D00018461171704700BF88090020084B1A6820
:1024E000D20706D40122C02183F80013C3F880214B
:1024F0001A604FF080430122C3F81825704700BFCF
:1025000000E100E010B4094B094A0021196083B0D2
:102510001B680193019C4FF0804102200123C1F808
:102520000403136003B05DF8044B704704010040DE
:102530000800004010B5144B1A6882B062B1002147
:10254000124A19601B68507900934FF080410123B3
:10255000009CC1F8083390B10D4B1A686AB1002293
:102560001A601B6801934FF080420221074B0198CB
:10257000C2F808131B680120984702B010BD11680B
:1025800053718847E8E700BF000100408809002038
:102590000401004070B5244C94F86A5082B015B123
:1025A000082002B070BD4FF0FF332946FF260622F7
:1025B00004F1640023636363A363E36323646364DC
:1025C000A364E36423656365A365E36523606360D7
:1025D000A360E36023616361A361E361236284F824
:1025E00060306362A36284F86230E36284F863302F
:1025F00084F8616001F007FE0C4B0D4A0D4E15602A
:102600004021C02083F80603C3F8801119601368C5
:10261000019301994FF000430122284684F86A2073
:10262000C6F8043302B070BD9009002000E100E05C
:102630007C61004000600040034B93F86A0000306A
:1026400018BF0120704700BF90090020F0B56D4C05
:10265000231893F93050002D01DB0820F0BD91F8CC
:1026600002E0CEF3400EBEF1000F50D025680135D8
:1026700000F0C2800125082654F8253001334CD0E3
:102680006B1C54F82370013748D0AB1CB3423CD2CA
:1026900054F82370013741D0EB1CB34235D254F8C3
:1026A000237001373AD02B1DB3422ED254F8237039
:1026B000013733D06B1DB34227D254F82370013752
:1026C0002CD0AB1DB34220D254F82370013725D053
:1026D000EB1DB34219D254F8237001371ED005F117
:1026E0000803B34211D254F82370013716D005F114
:1026F0000903B34209D254F8237001370ED00A35CA
:10270000B54202D2E36A013374D00420F0BD256AD9
:1027100001353AD009250C26AEE72B4626185DB2C6
:1027200044F8232086F83050BEF1000F33D08B7868
:102730005A071CD4DE074ED51F2887BF324B00F046
:102740001F0202464FF0A04303EB8203D3F8002799
:1027500022F00202C3F800272C4EC20800F0070E38
:10276000B75C012303FA0EF33B43B3548B7813F0A9
:10277000020314D1083D2C44097894F8602042EA01
:10278000811284F860201846F0BD082683F8306076
:10279000354622623346234483F85800C7E7AD002C
:1027A00005F1804505F5C0450A78D5F8101521F4E6
:1027B0004F3121F44071C5F8101503021204D5F809
:1027C000101502F4403203F47C5313430B43C5F855
:1027D00010350020F0BD1F284A7887BF0A4E00F050
:1027E0001F0303464FF0A04603F5E073920046F83E
:1027F0002320B1E70B2391E70025226083F83050B6
:1028000095E700BF9009002000030050F409002064
:10281000F0B43A4D2E1882B096F93030072B20DDF7
:102820002B4493F858309B09032B45D0012B14BF40
:102830004FF440314FF400311F284DD900F01F00F4
:102840002F4B03EB8000D0F8002722F44032C0F871
:102850000027D0F800370B43C0F8003702B0F0BCB7
:102860007047DAB2072AF9D8980000F1804000F5E5
:10287000C04003F140029200D0F8104592B202F13C
:102880008042002744F0010402F5C042C0F8104520
:102890000197019817600029E0D096F9302055F88B
:1028A0002220002ADAD00122164902FA03F3C1F8E5
:1028B000043302B0F0BC70471F2810D9104BD3F876
:1028C000103500F01F00C340DB0748BF4FF4403114
:1028D000B6D44FF40031B3E74FF0A043B1E74FF067
:1028E000A0421346D2F81025C24012F0010F14BFC7
:1028F0004FF440314FF40031A3E700BF90090020AE
:1029000000030050006000401F288ABF054B4FF0B5
:10291000A04300F01F00D3F8103523FA00F000F0B8
:1029200001007047000300502DE9F04788B00023F4
:10293000CB4A039302931168012900F0A8821E4636
:10294000C84B1A68012A00F09482C74B1A68012A02
:1029500000F08182C54B1A68012A00F06E82C44BD8
:102960001A68012A00F05B82C24B1A68012A00F043
:102970004882C14B1A68012A00F03582BF4B1A68A1
:10298000012A00F02282BE4B1A68012A00F00C8254
:1029900016F0FF0F1AD0BB4F01250024A30003F14E
:1029A00080432E4203F5C0434FEA45050BD0D3F8D0
:1029B000100557F82420D3F81015C0F30520C1F3F3
:1029C000014102B190470134082CE7D1002E02DB0F
:1029D00008B0BDE8F0870DF1100800224FF0FF337A
:1029E000A84CA94FC8F80420049206930793012627
:1029F00094F960305A1C21D05FFA83FE2EF0C0009B
:102A000008AB4FEAD00903EB090C0EF007031CF8E2
:102A1000082C06FA03F31A4040F0388194F961104B
:102A2000481C00F06A8215460DE0022A06D10329EF
:102A300000F06082002D00F03682A84794F9611002
:102A40004A1C51D00025CBB223F0C00008AA4FEA9F
:102A5000D00C02EB0C0E03F007011EF8082C06FA4E
:102A600001F912EA090F4CD194F96210481C11D0F7
:102A7000CBB223F0C00008AA4FEAD00C02EB0C0E38
:102A800003F007011EF8082C06FA01F912EA090FF3
:102A900040F0AD8094F963305A1C0FD0DBB223F0C4
:102AA000C00008AA4FEAD00C02EB0C0E03F007029C
:102AB0001EF8081C06FA02F211425AD1002D87D0E6
:102AC0004FF0A0430299D3F81035D7F8102599425A
:102AD00003D1039991423FF47BAF04980599029387
:102AE00003920690079183E794F962104B1C01D082
:102AF0000025BDE794F963305D1C3FF469AF002504
:102B0000CCE72218990992F9302054F82220002AA3
:102B100000F02381032900F023811F2800F20C819B
:102B200084464FF0A04303EB8C031EF818CCD3F877
:102B300000E71CEA090FCEF3014E40F0F380BEF12E
:102B4000030F91D103290FD14FF4003ED3F800C7F2
:102B50002CF4403CC3F800C7D3F800C701354EEA57
:102B60000C0EEDB2C3F800E7002A3FF47DAF9047AA
:102B70007AE704EB0009990999F9309054F8299003
:102B8000B9F1000F00F0FD80032900F0FD801F283F
:102B90008BBFBC464FF0A04C03F01F0303460CEB69
:102BA00083031EF818CCD3F800E71CEA020FCEF31B
:102BB000014E40F0A680BEF1030F7FF47FAF0329E2
:102BC00040F0A6804FF40032D3F800E72EF4403EE8
:102BD000C3F800E7D3F800E7013542EA0E02EDB290
:102BE000C3F80027B9F1000F40F0968068E722187B
:102BF000990992F9302054F82220002A00F0B78079
:102C0000032900F0B7801F2800F2A38084464FF00C
:102C1000A04303EB8C031EF818CCD3F800E71CEAA2
:102C2000090FCEF3014E40F08B80BEF1030F7FF40D
:102C300031AF03290FD14FF4003ED3F800C72CF475
:102C4000403CC3F800C7D3F800C701354EEA0C0E6C
:102C5000EDB2C3F800E7002A3FF41CAF904719E734
:102C60000061004004610040086100400C610040C8
:102C70001061004014610040186100401C61004078
:102C80007C610040900900200003005022184FEAA8
:102C90009E1192F9302054F82250002D7BD0032948
:102CA0007CD01F283AD802464FF0A04E0EEB820E81
:102CB0001CF8189CDEF8002719EA0309C2F3014248
:102CC0007FF4B3AE032A7FF4B9AE03297FF4B2AE2A
:102CD0004FF40032DEF8003723F44033CEF80037EB
:102CE000DEF800371343CEF80037002D00F0ED80FA
:102CF0000321A84794F961104B1C00F0EB800125DB
:102D0000A1E6BEF1020F7FF4D9AE032900F0EF80F7
:102D1000B9F1000F3FF4D2AEC847CFE60EF01F0264
:102D2000BE46C3E7BEF1020F7FF49EAE03297FF4D7
:102D30001BAF4FF4403E09E703F01F0C3B46F2E6A1
:102D4000BEF1020F7FF4A6AE032984D14FF4403EBA
:102D500073E703F01F0C3B465BE703297FF484AE67
:102D600018F80CA04AEA090A08F80CA0D5E60329CD
:102D70007FF490AE18F80CA04AEA090A08F80CA0F3
:102D800041E703297FF49AAE18F80CA04AEA020A38
:102D900008F80CA0FBE6032940F0858018F809200C
:102DA0001A4308F809207CE700221A601B68019387
:102DB0004FF0A042019BD2F81025564B0292D3F857
:102DC0001035039346F00046E2E5534AD2F8042357
:102DD00011067FF5D8AD00221A601B680093009B96
:102DE00046F08006CFE54C4AD2F8042350067FF522
:102DF000C5AD00221A601B680093009B46F0400698
:102E0000BCE5454AD2F8042394067FF5B2AD002212
:102E10001A601B680093009B46F02006A9E53E4A15
:102E2000D2F80423D5067FF59FAD00221A601B68F7
:102E30000093009B46F0100696E5374AD2F804232B
:102E400017077FF58CAD00221A601B680093009B6A
:102E500046F0080683E5304AD2F8042352077FF58E
:102E600079AD00221A601B680093009B46F00406AF
:102E700070E5294AD2F8042391077FF566AD002258
:102E80001A601B680093009B46F002065DE522492C
:102E9000D1F8046316F001063FF452AD13601368D5
:102EA0000093009B4CE594F961104B1C7FF4CBAD73
:102EB00094F96210481C7FF4DBAD94F963305A1C1E
:102EC0007FF4ECAD08B0BDE8F08794F961104D1CBB
:102ED0007FF415AF94F96210481C01D00125C7E5B5
:102EE00094F96330591C3FF4EBAD0125D6E54FF45E
:102EF000403269E64FF44032ECE694F962104B1C24
:102F000001D01546B4E594F963305D1C3FF460AD23
:102F10001546C3E50003005000600040014B1B68EC
:102F2000184700BFFC09002038B50C4B984201D06F
:102F3000002038BD00200D46FEF7E6FC084B1C794A
:102F400024B10020FEF7E8FC112038BD0122204604
:102F50001D601A71FEF7E0FC204638BD00200040DD
:102F6000FC090020034B984203D1034B00221A6056
:102F70001A71704700200040FC09002030B56E4AED
:102F8000D2F8043399058BB05BD5D2F82431002BED
:102F900057D00023C2F82431D2F8243103934FF4E0
:102FA0000171664B0398C2F8081393F8291009B908
:102FB00001215160604902228DF81820D1F8802447
:102FC000C1F880249869D968099200220890079175
:102FD0009A6193E81200DA6106A8A047564AD2F82F
:102FE0001C31C3B1554B186A5969884265D293F8B0
:102FF000280000F0FF0400285FD1C2F81C41D2F87D
:103000001C11029102999C68186A196A205C0131AE
:103010001962C2F81C05484AD2F844317BB100213C
:10302000464BC2F84411D2F8440193F8291000909D
:10303000009809B1012111609A69002A52D10BB0A0
:1030400030BD3D4AD2F804335B07C7D5D2F808310A
:10305000002BC3D0394B9969002952D00021C2F806
:103060000811D2F8081104910499D868596AD2F865
:10307000182542545A6A996901325A625A6A8A4238
:10308000ACD1DA69002A45D193F8292012B92A4A2D
:1030900001215160284A4FF40171C2F80813596A9E
:1030A000DA6808910024012007928DF8180093E84F
:1030B00006009C6106A8904790E71F4A0020C2F8CE
:1030C0001C01D2F81C210192019A0029A3D09A6810
:1030D0008DF8180008915861079206A893E8060039
:1030E000904798E70022586AD9689A6101220890AF
:1030F00007918DF8182006A893E8060090470BB0BA
:1031000030BDC2F80811D2F8080105900598D2F830
:103110001825B3E7DD685C6A18699A61012100220D
:10312000D860DA615A628DF818100795089493E810
:10313000060006A8904751E700200040040A00203E
:103140002DE9F041734E05792C2303FB056382B012
:1031500093F82A301BB1082002B0BDE8F0810F4679
:1031600004466D4900689046FFF7DEFE18B1112055
:1031700002B0BDE8F0813B68591C19D01F2B4FF0FD
:1031800001028ABF65494FF0A04103F01F0302FA14
:1031900003F3C1F808353B681F2B86BF03F01F03FC
:1031A0005E4A4FF0A04203F5E073032142F823107A
:1031B0007B685A1C0BD01F2B86BF03F01F03574A96
:1031C0004FF0A04203F5E073002142F8231023687A
:1031D000BA69C3F82425397D7B7D22680B43C2F888
:1031E0006C3597E806002368C3F81425C3F80C155E
:1031F0003B7D012B51D02C2303FB05F3F218C2F8C1
:1032000004803A69F250B8F1000F35D023683A7F54
:10321000434F0021C3F81C11D3F81C3100932368DD
:10322000DDF800E0C3F84411D3F84411236801919C
:103230000199C3F804732168090B4BB2002B60DBC2
:1032400003F1604303F561435201D2B283F80023D6
:103250002268120B42F3C40323F0604323F00303FC
:1032600003F1604303F5614302F01F02012101FAFB
:1032700002F2C3F880211A602C23246803FB056343
:10328000002204250121C4F8005583F82A109A6110
:10329000DA6183F829205A615EE7BB68591C0BD0BC
:1032A0001F2B86BF03F01F031C494FF0A04103F5FD
:1032B000E073002241F82320FB685A1C1AD01F2B10
:1032C0008ABF16494FF0A04103F01F03012202FA02
:1032D00003F3C1F80835FB681F2B88BF03F01F03F9
:1032E00003F5E0738CBF0D494FF0A041032241F874
:1032F0002320FB682268B968C2F80835C2F81015A7
:1033000079E7084B01F00F0152010B44D2B21A7653
:103310009EE700BF040A00207D2F0000000300503C
:1033200080000200FCEC00E0F8B53A4D0479026838
:103330002C2303FB045300215B68C2F8001583B102
:103340000368354AC3F808230368344E1B0B5AB28E
:103350005209203203F01F03012101FA03F346F85A
:10336000223003684FF0FF3ED3F80C75D3F8146594
:10337000D3F80825D3F81015C3F814E5C3F80CE505
:1033800003687745C3F808E5C3F810E50CD01F2F94
:1033900086BF07F01F07224B4FF0A04307F5E077E9
:1033A0004FF0020E43F827E0771C0BD01F2E86BF8C
:1033B00006F01F061A4B4FF0A04306F5E0760227F1
:1033C00043F826704E1C0BD01F2986BF01F01F0149
:1033D000134B4FF0A04301F5E071022643F8216042
:1033E000531C0BD01F2A86BF02F01F020C4B4FF05C
:1033F000A04302F5E072022143F822100068FFF7B3
:10340000B1FD2C2303FB0454002384F82A306360AD
:10341000F8BD00BF040A00208402020000E100E0C1
:1034200000030050F0B5304E05792C2303FB0563F3
:1034300085B05C6914B1112005B0F0BD1C629960C3
:1034400083F828405A610268C2F81C41D2F81C1166
:10345000026802910121029F91600268D3F808E09E
:10346000C2F81C41D2F81C1101910199D3F820C077
:10347000196A5F681EF80CC001311962C2F81CC5D8
:1034800017B1204605B0F0BD1A6A5C690168944224
:1034900003D819E093F82820F2B9D1F81C21002AAA
:1034A000F8D0C1F81C71D1F81C210392039AD3F80B
:1034B00020C01A6A1EF80CC001321A62C1F81CC57D
:1034C0001A6AA242E9D30168D1F81C31002BFBD063
:1034D0000123CB60002000E00F202C2303FB0563B9
:1034E00000225A61A8E700BF040A002070B54A4BC9
:1034F000D3F8242188B0002A55D1D3F81011F1B99E
:10350000454BD3F8442152B10020444AC3F844014A
:10351000D3F8444191690194019C002960D13E4B4C
:10352000D3F820214AB100213C4AC3F82011D3F836
:10353000204150690094009C30BB08B070BDC3F8B6
:103540001021D3F810113548039103998169D3F8FC
:103550003C458C42D4D1C569002D50D0D3F800121F
:10356000C668856121F02001C3F800120369C261B9
:1035700001220168C3608DF81840436805968DF8F4
:10358000102004A89847BBE7D3F84C0593688DF842
:1035900018008DF810105161059304A892E80A00F4
:1035A000984708B070BD0021C3F82411D3F8242136
:1035B000029202228DF81020029AD3F88004174A52
:1035C000C3F880040790D3F83C05D3688DF8180041
:1035D0009161D16105931168536804A898478FE7FA
:1035E000D3F83C458DF81840D368906101240593C9
:1035F000116853688DF8104004A898478FE7C36896
:1036000001688561012205938DF8184043688DF8A3
:10361000102004A8984773E700200040300A0020DB
:103620002DE9F0430479824EE7003B1906EB830352
:1036300085B093F820301BB1082005B0BDE8F083B9
:10364000894605467B4900689046FFF76DFC18B136
:10365000112005B0BDE8F083D9F80030591C1AD00C
:103660001F2B4FF001028ABF73494FF0A04103F0B6
:103670001F0302FA03F3C1F80835D9F800301F2BF5
:1036800086BF03F01F036C4A4FF0A04203F5E073BE
:10369000032142F82310D9F804305A1C0BD01F2BF9
:1036A00086BF03F01F03644A4FF0A04203F5E073A6
:1036B000002142F823102B68D9F81820C3F82425DC
:1036C00099F8141099F815202B680A43C3F86C2553
:1036D0002A68D9F80030D9F80410C2F80C35C2F8BD
:1036E000141599F81430012B61D03A199200B318CF
:1036F000C3F80480D9F81030B350B8F1000F47D0A8
:10370000296899F81C20DFF838E10023C1F810314E
:10371000D1F8101100912968DDF800C0C1F82031FE
:10372000D1F8201101912968DDF804C0C1F82431D5
:10373000D1F8241102912968DDF808C0C1F844319C
:10374000D1F844112B6803910399C3F804E3296865
:10375000090B4BB2002B63DB03F1604303F56143BC
:103760005201D2B283F800232A68120B42F3C40339
:1037700023F0604323F0030303F1604303F5614347
:1037800002F01F02012101FA02F2C3F880211A603F
:103790003C442A6806EB840400230125082184F8B0
:1037A0002050C2F80015A361E361636145E7D9F8D1
:1037B0000830591C0BD01F2B86BF03F01F031E4976
:1037C0004FF0A04103F5E073002241F82320D9F81F
:1037D0000C305A1C1CD01F2B8ABF17494FF0A04138
:1037E00003F01F03012202FA03F3C1F80835D9F8E8
:1037F0000C301F2B88BF03F01F0303F5E0738CBF51
:103800000D494FF0A041032241F82320D9F80C3094
:103810002A68D9F80810C2F80835C2F8101564E70C
:10382000064B01F00F0152010B44D2B21A769BE70E
:10383000300A0020ED34000000030050FCEC00E0F2
:1038400010030200F8B506793A4C0268F500AB198E
:1038500004EB830300215B68C2F8001583B10368A1
:10386000354AC3F808230368344F1B0B5AB2520978
:10387000203203F01F03012101FA03F347F822303D
:1038800003684FF0FF3CD3F80CE5D3F81475D3F878
:103890000825D3F81015C3F80CC5C3F814C5036880
:1038A000E645C3F808C5C3F810C50DD0BEF11F0F1B
:1038B00086BF0EF01F0E224B4FF0A0430EF5E07EA8
:1038C0004FF0020C43F82EC07B1C0CD01F2F86BF7C
:1038D00007F01F071A4B4FF0A04307F5E0774FF0B2
:1038E000020E43F827E04F1C0BD01F2986BF01F0C2
:1038F0001F01134B4FF0A04301F5E071022743F87D
:103900002170531C0BD01F2A86BF02F01F020C4BE4
:103910004FF0A04302F5E072022143F82210354433
:1039200004EB85040068FFF71DFB002384F82030BA
:103930006360F8BD300A00201003020000E100E0DF
:103940000003005001F06043B3F1005F01D010208C
:103950007047F0B50579214EEF007C1906EB840421
:1039600083B0636913B1112003B0F0BDA16062613F
:10397000D0F800E0CEF82031DEF820C1D0F800E029
:10398000CDF804C0DDF804C0CEF85831DEF858C1D7
:10399000D0F800E0CDF800C0DDF800C0CEF8441546
:1039A000CEF8482502680121916062680AB1184684
:1039B000DAE7036800E079B9D3F82021D3F8581189
:1039C000002AF8D0002914BF0F2000207B1906EB35
:1039D000830300225A61C7E70F20F7E7300A00206F
:1039E0000220FDF77BBA00BF2DE9F0470D460646E1
:1039F000FDF78EFA03281ED8012D04461FD00ED3E2
:103A0000022D1AD11C4B00EB40041C44657895B183
:103A10001A4B1B687BB12846BDE8F0471847184889
:103A2000FDF73CFF144B174A04EB44010B44125DB5
:103A30009D78AA42EBD0BDE8F087BDE8F0870E4F35
:103A40004FEA400808EB0003FA18FD5C53782BB9E5
:103A5000A04447440B4BBA781A55D8E7DFF82890B2
:103A600007484A464FF40041FDF7C8FE0028EFD151
:103A700089F80060ECE700BFB80A0020CC0A0020FB
:103A8000780A0020D40A0020540A002010B50078DB
:103A9000FDF73EFA03280BD8064B00EB4000184414
:103AA000407828B1044B1B6813B1BDE8104018479B
:103AB00010BD00BFB80A0020CC0A0020AB4B1B6829
:103AC000DB0700D4704770B5A94EAA4D33782C7827
:103AD000FBB9172C1CD8DFE814F0E500050105013F
:103AE0005D0070007D009000570036002900360010
:103AF00029009D00A200A200A200A200A200C8000E
:103B0000D500F500430018001800FDF7D7F92C7018
:103B100070BD994B1B7800203070002B00F0F680B0
:103B2000FDF7A8F90120FDF7A5F9D2E70123184612
:103B30003370FDF7D3F900224FF480418F48BDE880
:103B40007040FDF75BBE012318463370FDF7C6F9E0
:103B5000002240F6CD418948BDE87040FDF74EBED9
:103B6000854B1B78002B00F0F2800020FDF782F9D6
:103B70000120FDF77FF90020FDF768F90120FDF72E
:103B800065F915232B7070BD0020FDF75FF9072341
:103B90002B7070BD0020FDF745F9002800F0CA80A9
:103BA0000020FDF767F946F2666103232B700022BF
:103BB0007248BDE87040FDF721BE0020FDF732F9E4
:103BC000002800F0BC800020FDF754F94FF40031CC
:103BD0000423EBE70020FDF725F9002800F0B4806E
:103BE0000020FDF747F905232B70002241F69A11BA
:103BF0006248BDE87040FDF701BE0020FDF76EF998
:103C000006232B70002240F6CD415C48BDE8704091
:103C1000FDF7F4BDFDF752F90C232B7070BD584829
:103C2000FDF73CFED4F11104054672D0002870D196
:103C3000012C13D0C82303FB04F44FF4FA704FF4A3
:103C400000430021C3FB04014FF47A72002300F00B
:103C5000F9FA2A4601464A48FDF7D0FD0220FDF751
:103C6000F5F8454B01221A7070BD434B1B78002BB1
:103C700070D00020FDF7FEF80120FDF7FBF81223BD
:103C80002B7070BD3C4B1B78002B69D00020FDF7DA
:103C9000F1F80120FDF7EEF80020FDF7D7F8132327
:103CA0002B7070BD344B1B78002B56D00020FDF7D5
:103CB000E1F80120FDF7DEF83048FDF7EFFD0023C5
:103CC0002B7070BD2C4B1B78002B4CD00020FDF7C7
:103CD000D1F80120FDF7CEF80120FDF7B7F8142345
:103CE0002B7070BD0020FDF79DF8C8B10020FDF7D6
:103CF000C1F8022C4EF2666118BF4FF400312C70EF
:103D000000221E48BDE87040FDF778BDFDF7C6F8FB
:103D1000DFE60220FDF7AEF8174B00221A7070BDE7
:103D2000FDF794F843F2333141F69A13022C08BFA1
:103D30001946E4E7FDF78AF841F69A1135E7FDF7F1
:103D400085F843F2333143E7FDF780F84BE7FDF7A1
:103D5000A5F810E7FDF7A2F891E7FDF79FF8ABE7AC
:103D6000FDF79CF898E7FDF799F8B5E7C40A00203D
:103D7000C80A0020D00A0020550A0020980A002016
:103D8000580A0020F8B5254B254A196081070446DA
:103D9000106014D5234B24480E2111250F2710261F
:103DA00019705D7240F266620421DF709E71FDF74A
:103DB000C9F90546C0B1E3072AD42846F8BD10F07A
:103DC0000105FAD00120FDF7B5F8184A184800217E
:103DD000FDF702FD05460028EFD1164A16480121DD
:103DE000BDE8F840FDF7F8BCFDF704FA05460028E9
:103DF000E1D10146114A1248FDF7EEFCE207054603
:103E0000DBD50120FDF796F8002DDED02846F8BD61
:103E10000120FDF78FF82846F8BD00BFCC0A00202E
:103E2000C40A0020B80A002044470000BD3A000040
:103E30006C470000E1390000644700008D3A000043
:103E400068470000032801D907207047012A12D0D3
:103E5000012917D008D30229F6D10D4B00EB400001
:103E6000034400205A707047094B00EB40000344A4
:103E700000209A707047012901D00022E8E700F184
:103E80000E02D2B200EB400301490020CA54704731
:103E9000B80A00200E2808B50FD016280CD10F4BF9
:103EA0000F481049C01AC008000440F00300002267
:103EB000BDE80840FCF7A8BD08BD084B08480A4902
:103EC000C01AC008000440F003000022FCF79CFD6B
:103ED0000020BDE80840FDF701B800BFE848000039
:103EE00010490000944700007047000008B54FF4E7
:103EF00000410020FCF786FB08B1FDF791F9FCF7C3
:103F000005FB1A4B1A481B49C01AC008000440F0B0
:103F10000300FCF707FDFEF711FA08B1FDF780F981
:103F20000020FEF727FAFDF703FC08B1FDF778F94A
:103F300011490220FFF726FF08B1FDF771F90021B2
:103F400008461622FFF77EFF08B1FDF769F9012048
:103F5000FCF7F0FFFEF790F908B1FDF761F9FCF707
:103F6000AFFB0028FBD1FEF7ADF9F8E7E848000009
:103F700010490000B8470000953E000010B44FF013
:103F800080414FF080520020C1F80C015E4BC1F817
:103F90001001C1F83805D2F80414C3F82015D2F87E
:103FA0000814C3F82415D2F80C14C3F82815D2F855
:103FB0001014C3F82C15D2F81414C3F83015D2F825
:103FC0001814C3F83415D2F81C14C3F84015D2F8ED
:103FD0002014C3F84415D2F82414C3F84815D2F8B5
:103FE0002814C3F84C15D2F82C14C3F85015D2F885
:103FF0003014C3F85415D2F83414C3F86015D2F84D
:104000003814C3F86415D2F83C04C3F86805D2F834
:1040100040043E49C3F86C050968D2F84424C3F84B
:104020007025082924D04FF08043D3F80024D2070C
:1040300044BF6FF00102C3F80024354AD2F888303B
:1040400043F47003C2F88830BFF34F8FBFF36F8F14
:104050004FF01023D3F80022002A23DBD3F80432D8
:10406000002B1FDB2B4B2C4A1A605DF8044B70476A
:104070002A4B1B68002BD6D129482A4A2A4C0460B7
:104080002A492B4BFB20C2F818050A681B682948EF
:1040900022F00F0203F00F0313434FF400720B6082
:1040A0000260C0E7244B0122C3F80425D3F80024A2
:1040B000002AFBD04FF0102312221F49C3F8002220
:1040C000D1F80034002BFBD04FF0102212211A4BF4
:1040D000C2F80412D3F80024002AFBD000221649AB
:1040E000C3F80425D1F80034002BFBD0BFF34F8F69
:1040F0000749124BCA6802F4E0621343CB60BFF376
:104100004F8F00BFFDE700BF00C00040300100102E
:1041100000ED00E01C0000200090D00334010010EE
:104120008C56004000F0004048810300E40E00403F
:10413000580200104096024000E001400400FA05D9
:1041400008B5074B044613B10021AFF30080054BBF
:104150001868836A03B19847204600F071F800BFE1
:1041600000000000D447000070B50D4E0D4CA41B9C
:10417000A4100025A54209D10B4E0C4C00F0EAF921
:10418000A41BA4100025A54205D170BD56F825300A
:1041900098470135EEE756F8253098470135F2E7A4
:1041A000F0010020F0010020F0010020F4010020C7
:1041B000044B054A1B681B6A002B08BF1346D3F843
:1041C000EC007047200000208400002082B001B97C
:1041D00001A942B14BB113780B601278101C18BFC3
:1041E000012002B070471046FBE76FF00100F8E7CE
:1041F00010B5431E0A44914200D110BD11F8014B85
:1042000003F8014FF7E702440346934200D1704799
:1042100003F8011BF9E7034613F8012B002AFBD131
:10422000181A0138704749B1FF2A85BF8A230360F5
:104230000A704FF0FF3098BF012070470846704762
:10424000FEE700BF53B94AB9002908BF00281CBFC8
:104250004FF0FF314FF0FF3000F07AB9ADF1080CAC
:104260006DE904CE00F006F8DDF804E0DDE9022394
:1042700004B070472DE9F0478C460D460446089E71
:10428000002B51D18A4217466DD9B2FA82FEBEF197
:10429000000F0BD0CEF1200C01FA0EF520FA0CFC29
:1042A00002FA0EF74CEA050C00FA0EF44FEA174A30
:1042B000250CBCFBFAF81FFA87F90AFB18CC45EA73
:1042C0000C4508FB09F3AB420AD9ED1908F1FF329E
:1042D00080F02381AB4240F22081A8F102083D44E6
:1042E000ED1AA4B2B5FBFAF00AFB105544EA0544F6
:1042F00000FB09F9A14509D9E41900F1FF3380F069
:104300000A81A14540F2078102383C44A4EB09042C
:1043100040EA08400021002E61D024FA0EF4002368
:1043200034607360BDE8F0878B4207D9002E54D00B
:10433000002186E821000846BDE8F087B3FA83F142
:10434000002940F08E80AB4202D3824200F2FA8014
:10435000841A65EB03050120AC46002E3FD086E8A9
:104360001010BDE8F08712B90127B7FBF2F7B7FAD2
:1043700087FEBEF1000F34D1EB1B3A0C1FFA87FC0D
:104380000121B3FBF2F8250C02FB183345EA034583
:104390000CFB08F3AB4207D9ED1908F1FF3002D24C
:1043A000AB4200F2D1808046ED1AA3B2B5FBF2F029
:1043B00002FB105543EA05440CFB00FCA44507D959
:1043C000E41900F1FF3302D2A44500F2B880184688
:1043D000A4EB0C0440EA08409DE731463046BDE8B6
:1043E000F087CEF1200405FA0EF307FA0EF720FA53
:1043F00004F83A0C25FA04F448EA0308B4FBF2F195
:104400004FEA184502FB11441FFA87FC45EA0445B0
:1044100001FB0CF3AB4200FA0EF409D9ED1901F1DE
:10442000FF3080F08A80AB4240F2878002393D4401
:10443000EB1A1FFA88F5B3FBF2F002FB103345EAE2
:10444000034500FB0CF3AB4207D9ED1900F1FF382F
:104450006FD2AB426DD902383D44EB1A40EA0141BC
:104460008FE7C1F1200722FA07F88B4005FA01F423
:1044700048EA030320FA07FE4FEA134CFD404EEAD8
:10448000040EB5FBFCF94FEA1E440CFB19551FFA4C
:1044900083F844EA054509FB08F4AC4202FA01F24C
:1044A00000FA01FA08D9ED1809F1FF3043D2AC4205
:1044B00041D9A9F102091D442D1B1FFA8EFEB5FB3F
:1044C000FCF00CFB10554EEA054400FB08F8A04533
:1044D00007D9E41800F1FF3529D2A04527D90238C1
:1044E0001C4440EA0940A4EB0804A0FB02894C45A7
:1044F000C6464D4615D312D056B1BAEB0E0364EB47
:10450000050404FA07F7CB401F43CC4037607460C2
:104510000021BDE8F0871846F8E69046E0E6C2457F
:10452000EAD2B8EB020E69EB03050138E4E728464E
:10453000D7E7404691E78146BEE7014678E7023873
:104540003C4445E7084608E7A8F102083D442BE74C
:10455000704700BFF8B500BFF8BC08BC9E46704766
:10456000F8B500BFF8BC08BC9E467047FFFFFFFFD0
:10457000FFFFFFFFFFFFFFFFFFFFFFFF0000000047
:10458000000000000000D60106010000F903000051
:1045900065040000F5030000756172745F6C6F675D
:1045A0005F6261636B656E64000000005807002065
:1045B0007F000000D80700204261636B656E647362
:1045C00020666C757368656400000000617070009F
:1045D00028460000584600000846000060460000DB
:1045E00068460000704600007846000080460000E3
:1045F000884600002025303278000000202020006E
:104600007C000000256300001B5B313B33316D00F3
:1046100025734C6F67732064726F70706564202817
:1046200025642925730D0A001B5B306D0000000016
:10463000257300003C25733E2025733A20000000BE
:104640000D0A00000000000090460000984600009F
:10465000A0460000A84600001B5B313B33306D00D4
:104660001B5B313B33326D001B5B313B33336D00E1
:104670001B5B313B33346D001B5B313B33356D00CD
:104680001B5B313B33366D001B5B313B33376D00B9
:104690006572726F720000007761726E696E6700FA
:1046A000696E666F00000000646562756700000057
:1046B00016171800F8070020466174616C206572B7
:1046C000726F720053797374656D207265736574CF
:1046D00000000000000000000000000000000000DA
:1046E0000338FDD870470000303132333435363767
:1046F0003839414243444546496E69740000000020
:10470000E8480000E8480000040000007077725F8D
:104710006D676D7400000000636C6F636B000000D8
:10472000434C4F434B0000004750494F5445000055
:10473000505253005541525400000000554152540C
:10474000450000001B000000E93900001D000000CA
:10475000E93900001F000000E939000020000000D6
:10476000E9390000580A0020780A0020980A002041
:1047700047726F766520546F7563682053656E735A
:104780006F722025642069732072656C65617365A2
:104790006421000047726F766520546F756368204E
:1047A00053656E736F7220256420697320746F7572
:1047B000636865642100000047726F766520546F5E
:1047C0007563682053656E736F72206578616D70D4
:1047D0006C650000240000204300504F53495800EE
:1047E0002E000020202020202020202028282828DB
:1047F00028202020202020202020202020202020B1
:104800002020208810101010101010101010101000
:104810001010100404040404040404040410101010
:1048200010101010414141414141010101010101BC
:10483000010101010101010101010101010110104A
:104840001010101042424242424202020202020290
:10485000020202020202020202020202020210101C
:104860001010200000000000000000000000000008
:104870000000000000000000000000000000000038
:104880000000000000000000000000000000000028
:104890000000000000000000000000000000000018
:1048A0000000000000000000000000000000000008
:1048B00000000000000000000000000000000000F8
:1048C00000000000000000000000000000000000E8
:1048D00000000000000000000000000000000000D8
:0848E0000000000000000000D0
:1048E80020470000000000002847000000000000EA
:1048F80030470000000000003447000000000000BE
:104908003C47000000000000CC4500000000040403
:1049180018470000000000000C47000000000404D5
:104928008C4500000000000098450000140000209D
:10493800640200202C030020340300206C020020B5
:044948001800000053
:08494C0020B9FF7F010000000B
:104954000000000000200040000000000020004093
:104964000000000000000000FF0000000090D003E1
:1049740024000020000000000000000000000000EF
:104984000000000000000000000000000000000023
:104994000000000000000000000000000000000013
:1049A4000000000000000000000000000000000003
:1049B40000000000000000000000000000000000F3
:1049C40000000000000000000000000000000000E3
:1049D4000000000043000000000000000000000090
:1049E40000000000000000000000000000000000C3
:1049F4000000000043000000000000000000000070
:104A040000000000000000000000000000000000A2
:104A1400000000004300000000000000000000004F
:104A24000000000000000000000000000000000082
:104A3400000000004300000000000000000000002F
:104A44000000000000000000000000000000000062
:104A5400000000004300000000000000000000000F
:104A64000000000000000000000000000000000042
:104A740000000000430000000000000000000000EF
:104A84000000000000000000000000000000000022
:104A940000000000430000000000000000000000CF
:104AA4000000000000000000000000000000000002
:104AB4000000000027420000CD410000000000007B
:104AC400E2470000E0470000E1470000E147000042
:104AD400E1470000E1470000E1470000E147000032
:104AE400E1470000E1470000E1470000FFFFFFFF4E
:104AF400FFFFFFFFFFFFFFFFFFFF00000100415327
:104B040043494900000000000000000000000000CC
:104B140000000000000000000000000000004153FD
:104B240043494900000000000000000000000000AC
:104B34000000000000000000000000000000000071
:0C4B44002502000001020000000000003B
:04000003000002E116
:00000001FF
