:1000000000000120E1020000090300000B030000D2
:100010000D0300000F0300001103000000000000AA
:1000200000000000000000000000000013030000BA
:100030001503000000000000170300001903000072
:10004000192500001B030000CD2D00001B0300003C
:100050001B0300001B030000A52800001B03000079
:100060001B0300001B0300001B0300001B03000018
:100070001B0300001B0300001B0300001B03000008
:100080001B0300006D1200001B0300001B03000097
:100090000D1300001B0300001B0300001B030000E6
:1000A0001B0300001B0300001B0300001B030000D8
:1000B0001B0300001B030000000000000000000004
:1000C0001B0300001B0300001B0300001B030000B8
:1000D0001B0300001B0300001B03000000000000C6
:1000E0000000000000000000000000000000000010
:1000F0000000000000000000000000000000000000
:1001000000000000000000000000000000000000EF
:1001100000000000000000000000000000000000DF
:1001200000000000000000000000000000000000CF
:1001300000000000000000000000000000000000BF
:1001400000000000000000000000000000000000AF
:10015000000000000000000000000000000000009F
:10016000000000000000000000000000000000008F
:10017000000000000000000000000000000000007F
:10018000000000000000000000000000000000006F
:10019000000000000000000000000000000000005F
:1001A000000000000000000000000000000000004F
:1001B000000000000000000000000000000000003F
:1001C000000000000000000000000000000000002F
:1001D000000000000000000000000000000000001F
:1001E000000000000000000000000000000000000F
:1001F00000000000000000000000000000000000FF
:1002000010B5054C237833B9044B13B10448AFF350
:1002100000800123237010BD0002002000000000B8
:10022000944800000C4B43B10C480D4910B5AFF396
:1002300000800C48036823B910BD0A48036833B92D
:100240007047094B002BF7D0BDE810401847064B0C
:10025000002BF5D0184700BF0000000094480000B4
:1002600004020020F801002000000000154B002BC4
:1002700008BF134B9D46A3F5803A00218B460F46DD
:100280001348144A121A03F09CFF0F4B002B00D0A6
:1002900098470E4B002B00D0984700200021040007
:1002A0000D000D48002802D00C48AFF3008003F089
:1002B00039FF2000290003F0F3FC03F01FFF00BF0B
:1002C0000000080000000120000000000000000005
:1002D00000020020C40A002000000000000000000E
:1002E0000649074A074B9B1A03DD043BC858D05008
:1002F000FBDC03F01DFDFFF7B9FF0000044900001F
:100300000000002000020020FEE7FEE7FEE7FEE717
:10031000FEE7FEE7FEE7FEE7FEE7FEE7F0B595B095
:10032000002415460F4608461E4601F0F1FE3846E9
:1003300023460822089505A91A9D09960D950A9449
:100340008DF82C400C9401F03FFF9DF81430079875
:1003500006998DF8114003F00302012A02900391DF
:1003600028D0022A04D0384601F0D6FE15B0F0BDE0
:10037000BDF81650C3F3C2038DF81030C5F38915CC
:100380000826082D2C4628BF0824334622460EA9ED
:10039000384601F019FF2D1B214608AB02AA0EA812
:1003A000264400F091FC002DEBD1384601F0B4FE5C
:1003B00015B0F0BDBDF81460059DC6F38316C3F3F8
:1003C000C204B2000EA9384608238DF81040C5F3C8
:1003D000952501F0F9FE08AB0093324628460EA998
:1003E00002AB00F0CBFBBEE7014B01221A70704755
:1003F00060020020704700BF00B583B0044B00933B
:10040000044A4023FFF78AFF03B05DF804FB00BFF6
:10041000190400002002002038B50E480E4D037864
:100420000E4CEB5C00252570D2B253B90C3002F0B3
:1004300011FF58B90A4B1B7813B12378002BFCD05D
:1004400038BD043003F058F90028F3D000F0C6FEA0
:10045000F0E700BF00000020C00A0020600200207A
:100460001C02002070B51348134A0378D35C88B08F
:10047000DBB90C3002F088FE104D0FCD6C460FC476
:1004800095E80F0008AD142645F8206D84E80F00AC
:1004900029460022074801F0ADFF08B100F09EFE9A
:1004A000074B00221A7008B070BD043003F0BCF88E
:1004B000E2E700BF00000020C00A0020284500003D
:1004C0001C02002070B50D4D0FCD88B06C460FC4D6
:1004D00095E80F0008AD142645F8206D84E80F005C
:1004E0002946074A074801F085FF08B100F076FE6B
:1004F000054B01221A7008B070BD00BF28450000EE
:10050000E9030000000000201C02002008B5FFF7EE
:10051000D9FF0421034800F0E9FA034B01225A7184
:1005200008BD00BFD848000014000020F0B5334DCE
:1005300085B005F5836001F0FFF905F2144001F084
:10054000FBF96B68AE6803EA0600C11C05EB81028B
:1005500015F8214014F004040ED0117801F00301C5
:1005600001293BD0022903F1020700F1030126D043
:1005700005EB8102002CF0D105EB80005A1CC1680C
:100580000191324005EB820201F00301D268029230
:10059000012903F1020429D0022925D1BDF8063032
:1005A000BDF80A60C3F38913033304EB93041448C2
:1005B00001F0D0F900B16C60304605B0F0BD538851
:1005C00007EB931306EA0300C11C05EB810215F843
:1005D000214004F00404002CBFD1CDE71188023380
:1005E000C1F383110B44EDE70026E0E7BDF80430CA
:1005F000BDF80A60C3F383131C44D8E7340300201A
:10060000480700200B4B0C4810B50022FF21C3F80F
:10061000182499601A605A60C3F8142483F82024BF
:1006200001F02CFD044610B9044801F02DFE2046CF
:1006300010BD00BF34030020E848000068450000FA
:1006400021B9114B03EBC0000068704730B40F4A6A
:100650000D4C121BD2080CD00D4D2B88834210D0AC
:10066000002303E035F82310814205D001339A427C
:10067000F8D1002030BC704704EBC300006830BCE8
:1006800070472046FAE700BF98480000D8480000AD
:10069000FC010020094B013903EBC00003290BD8F2
:1006A000DFE801F002080604022070474079704735
:1006B0000079704704207047002070479848000078
:1006C0002DE9F047914C94E80C009A4284B000F078
:1006D000B6800023C4F81834BFF34F8F6368A56851
:1006E00003EA0501CA1C04EB820614F82220500715
:1006F0001AD52768327802F00302012A43D0022A71
:1007000003F1020202D1738802EB931305EA03019D
:10071000D4F81804CA1C04EB820628B99F4238D9C1
:1007200014F822205207E5D404EB81015A1CC96851
:1007300001912A4004EB820201F00301D268029287
:10074000022903F1020828D001297CD0D4F81054E2
:100750003DB12B6828469B689847EB681D68002DC3
:10076000F7D16B486B4B6C49C01AC008000440F0CD
:10077000020000F0D7F860682368C01A18BF012093
:1007800004B0BDE8F08732880233C2F38312134409
:10079000BCE7676004B0BDE8F087BDF806305F488D
:1007A000C3F389194F46502FA8BF502767F38F1303
:1007B00007F10801ADF8063001F062FC064600289A
:1007C000C4D025EA080A0AF1010A01F0A1FC4FEAA7
:1007D0008A0A0023082201A9304601F0BFFC5745D0
:1007E0006ED9BAF1000F7AD13A4608234C49304607
:1007F00001F0B4FC09F1030708EB9707D4F81834AB
:10080000002B68D1D4F810545DB1EB685A793146A9
:1008100028461AB12B681B689847EB681D68002DA5
:10082000F3D1304601F078FC002001F04BF8D4F809
:10083000183403B96760002001F04CF89BE70020F2
:1008400004B0BDE8F087BDF804303448C3F3831228
:10085000062A28BF0622911C62F389138900ADF88D
:10086000043001F00DFC064600283FF46FAF01F0A4
:100870004FFC0023082201A9304601F06FFCBDF8AF
:10088000043013F4707F3FD04FF0000A4FF0080996
:1008900005EA080103314B4604EB8101042230468E
:1008A00001F05CFCBDF804300AF1010AC3F38313C4
:1008B00008F10107534509F10409B846E8D89DE756
:1008C00005EA0801033104EB81013A46082330466A
:1008D00001F044FC8EE7304601F01EFC4BE705EAD0
:1008E00008010331A7EB0A0504EB810152463046AB
:1008F000EDB2082301F032FC2A460AF10803084948
:10090000304601F02BFC75E7474677E734030020BB
:10091000C04800009848000074450000E848000006
:10092000400300202DE9F843DFF8D8900746002067
:100930008846D9F8085000F0C5FFD9F80820D9F842
:100940000430D9F80060134401339B1B012B55D8A8
:1009500009F21C440121204600F0D2FFFFF7E6FD1A
:100960000146204600F0CCFF99E80A00D9F808209B
:10097000134401335B1A012BECD901240A400332E2
:1009800044F004036FF3891349F822300231002048
:10099000C9F8001000F09EFF0021194800F0A4FFE4
:1009A00080F3100033192B4009EB8303000435401A
:1009B000033540EA1740D86019F8253067F3C503BE
:1009C00009F8253039F825306FF3891329F82530D7
:1009D00059F8252068F39F22134664F301036FF34F
:1009E000820349F8252009F8253099F820341BB1F5
:1009F000FFF766FE0028FBD1BDE8F8833146BCE76F
:100A000050070020340300202DE9F047354C804684
:100A1000002092468946A56800F054FFA2686368EA
:100A2000276813440133DB1B022B59D804F21C4600
:100A30000121304600F064FFFFF778FD01463046A3
:100A400000F05EFF94E80A00A268134401335B1AC9
:100A5000022BEDD901260A40033246F0040366F367
:100A6000891344F8223003310020216000F032FF66
:100A7000BB1C2B4004EB830300211B48C3F80CA0D4
:100A800000F032FF80F31000BB192B4004EB83030E
:100A900000043D40033540EA1840D86014F8253082
:100AA00068F3C50304F8253034F8253066F389135C
:100AB00024F8253054F8252069F39F22134666F365
:100AC00001036FF3820344F8252004F8253094F8DD
:100AD00020341BB1FFF7F4FD0028FBD1BDE8F087FF
:100AE0003946B7E7340300205007002030B4174DD3
:100AF000D5F8104400215CB1E3681A798A4204D128
:100B000016E0DB681A798A4212D01B68002BF8D1F4
:100B1000C3681971D5F8103493B1DA68C3681268E4
:100B20001A60D5F81034DB681860084630BC70478E
:100B300001310A29DFD14FF0FF31084630BC704740
:100B4000C5F81004C2681360EFE700BF340300204B
:100B500038B5094BD3F81044012583F820544CB123
:100B6000E3685D71236820465B689847E3681C680A
:100B7000002CF5D138BD00BF340300202DE9F0472B
:100B800084B01D460C9C002394F80C802373EB88E2
:100B900081460E461746002B3BD1297A05290FD0F6
:100BA0006B7A002B3DD1404BA88853F821A000213F
:100BB000FFF746FD524603463C49204600F03CFF05
:100BC000062F0FD8DFE807F0484D535A0463390069
:100BD000F168B06896E80C00019100904946204603
:100BE00000F02AFF2B7A052B05D06B7A5BB93049D0
:100BF000204600F021FF204600F012FF84F80C8010
:100C000004B0BDE8F0872B4A2B49204600F014FFC2
:100C1000EDE7284A00922949294A204600F00CFFB6
:100C2000BBE7A888FFF736FD264B234953F8202061
:100C3000204600F001FF297AB5E77069316996E82E
:100C40000C000390B068F76802918DE88100494676
:100C5000204600F0F1FEC5E74946204600F0ECFED4
:100C6000C0E732684946204600F0E6FEBAE749464A
:100C700096E80C00204600F0DFFEB3E7B16896E886
:100C80000C0020460091494600F0D6FEAAE7B06865
:100C9000F768316996E80C0002918DE881004946B9
:100CA000204600F0C9FE9DE700460000F045000028
:100CB000FC450000E4450000EC450000CC45000088
:100CC000C44500008C450000082900D970472DE973
:100CD000F04F1D46904600232A7B2B7385B0B8F851
:100CE0000630039207460E46002B6BD198F8081089
:100CF000052911D098F80930002B6BD13C4BB8F87E
:100D0000040053F821400021FFF79AFC22460346D5
:100D10003849284600F090FEDFF8F8B0DFF8F89088
:100D20000024A642494628463ED93A5D013400F0E7
:100D300083FE082CF5D13049DFF8E090DFF8E0B011
:100D4000284600F079FE002411E017F804A003F013
:100D50000DFA50445946437813F0970F14BF52468A
:100D60002E222846013400F067FE082C08D0A64247
:100D700049462846E9D8013400F05EFE082CF6D139
:100D800098F80830052B02D098F80930A3B91B4910
:100D9000284600F051FE284600F042FE9DF80C3037
:100DA0002B7305B0BDE8F08F01345946284600F09A
:100DB00043FE082CB5D1BEE7114A1249284600F07F
:100DC0003BFEE4E70E4A00920F49104A284600F025
:100DD00033FE8BE7B8F80400FFF75CFC0C4B0949C5
:100DE00053F82020284600F027FE98F8081085E7E1
:100DF00000460000F0450000BC450000FC45000036
:100E0000E4450000EC450000CC450000C44500006E
:100E10008C450000B8450000B0450000F8450000D2
:100E2000C0450000054A4FF0A043105CD3F80435DC
:100E300023FA00F0C04300F0010070476C46000048
:100E4000044B195C4FF0A04201238B40C2F80C35D3
:100E5000704700BF6C460000044B195C4FF0A04285
:100E600001238B40C2F80835704700BF6C46000074
:100E70004FF0A0434FF480004FF400014FF0807218
:100E8000C3F80805C3F80815C3F80825704700BF64
:100E90004FF0A0434FF480004FF400014FF08072F8
:100EA000C3F80C05C3F80C15C3F80C25704700BF38
:100EB000074B4FF0A041185CD1F804350122824065
:100EC00022EA03001340C1F80805C1F80C35704749
:100ED0006C4600001B2809D01D2809D01F2809D006
:100EE00003280CBF03204FF0FF30704700207047ED
:100EF0000120704702207047C20730B414D54FF06C
:100F0000A04303224FF480054FF400044FF080719A
:100F1000C3F85827C3F85C27C3F86027C3F80855FF
:100F2000C3F80845C3F8081583070AD54FF0A04356
:100F30000022C3F86C27C3F87427C3F87C27C3F8D2
:100F40000C2730BC704700BF434B1978002900F0D4
:100F500081802DE9F04F8C4687B00024012503E005
:100F60000134E4B2644560D23C4B27B21E6816F8E7
:100F700037E0AEF1200305FA03F9394BCEF1200139
:100F8000D3E9002325FA01F149EA010905FA0EF82F
:100F900008EA020009EA0301014306EBC70BDFD0B0
:100FA0002F4922EA080223EA09037046C1E9002317
:100FB00001F06EFC16F837E0AEF1200205FA02F2FD
:100FC00001920199CEF12003C6B225FA03F3AEF1E6
:100FD0002002194306FA02F30393224B0191D3E94D
:100FE0000023CDE9042305FA0EF30093CEF120018E
:100FF000039B26FA01F10B43039306FA0EF30293C7
:10100000DDE90467DDE9002316401F4032463B4618
:10101000DDE90267BB4208BFB24209D00E4B013482
:1010200093F800C0E4B264459ED307B0BDE8F08FEA
:10103000DBF80430002BF1D09BF80110A1F1010185
:10104000B1FA81F14909091AB1FA81F149097046E9
:101050009847E3E7704700BFF0070020280800200A
:1010600020080020180800202DE9F84306462048F3
:1010700000F0F2FBD0B91F4F0123A6F1200103FAC3
:1010800001F5C6F12002D7E9000123FA02F2154367
:1010900003FA06F404EA000205EA0103134307D049
:1010A00020EA040421EA0505C7E90045BDE8F88304
:1010B000304601F0EDFB104ED6E9008998B148EAC0
:1010C000040849EA0509D7E9002314431D43C6E98A
:1010D0000089C7E90045094B054819680022BDE8A9
:1010E000F84300F069BB28EA040829EA0509EAE7A1
:1010F000F80700202008002018080020F40700202E
:10110000042A01D8072070472DE9F04182B00F462C
:101110000546164601F07EFA002834D01C4C1D4AC4
:101120001D4B1E481E49256017707C1E00221E6044
:101130000023C0E90023C1E90023E4B2EFB1DFF8E6
:101140006C800027032601E0FF2C16D023B205EBAC
:10115000C30215F8330093788DF80670424601A952
:101160008DF804608DF8053001F05EFA013CE4B2C0
:101170000028E9D002B0BDE8F0810A4A0A480021FF
:1011800000F008FBF6E701F0F7F90028C6D0F1E718
:1011900028080020F0070020F4070020180800208D
:1011A00020080020490F0000704600006910000070
:1011B00070B5084D2B785BB1074E002433680121D0
:1011C00013F8340001F002FB2B780134A342F5D868
:1011D000002070BDF00700202808002000B585B071
:1011E00000230390194601AA44F2010001930293DF
:1011F00000F004F805B05DF804FB00BF10B572B64E
:10120000FFF7A6FCFFF75CFA0028FBD1104B114C4E
:101210001149E41AE408240444F00100FFF782FBBA
:101220000E4B1B68DB0700D500BE44F002000C49E2
:10123000FFF778FBBFF34F8F0A490B4BCA6802F4E4
:10124000E0621343CB60BFF34F8F00BFFDE700BFE9
:1012500098480000C048000074460000F0ED00E02F
:101260008046000000ED00E00400FA05F8B5204AD1
:10127000204B0025C2F84051C2F84451C2F84851F1
:10128000C2F84C51C2F80051C2F804511B6813B3A4
:101290001949D2F804450A68A41A1A6824F07F4450
:1012A000A2422F4609D8197CDE69A41A154499B9BF
:1012B0001EB133461A68A242F5D91049104A0B787C
:1012C00012789A420DD00F490F4A41F823504FF43B
:1012D0008013C2F80031F8BD1F745A6998699047AD
:1012E000E6E7531CDBB2022B08BF00230B70EAE7D2
:1012F000001001404C090020480900204509002049
:10130000440900203C09002000E100E02DE9F04FF5
:10131000B74AB84913780978994285B033D0013378
:10132000DBB2022B08BF0023B3481370B34A07682F
:10133000DFF8E08252F82320D8F80010BB18002410
:1013400023F07F43036025462046A646A9B10B68DB
:10135000934200F27D81CC68C1F800E0D21A1844B3
:10136000CB6934B13E1826F07F46CD618C604E606B
:101370000D46194601240029E9D1002C40F0A58131
:101380004FF0010B05E0DFF88C820025D8F8001043
:10139000AB469B4B9B4FDFF8809243F001030093D9
:1013A0000E464FF0000A002D2DD0D5F804E0D5F8F8
:1013B00008C02C46ED69904B93481B68AEEB0302C6
:1013C00022F07F42824255D802EB0C0323600022B8
:1013D00001206260A260E2612074002E6BD0306850
:1013E000834261D9B64603E0106898424CD29646D3
:1013F000DEF81C201B1A002AF6D12360E261CEF829
:101400001C40002DD1D197F801C097F800E0F445B9
:1014100071D0734603EB43030EF10100BA7807EB7A
:10142000C3035FFA80FE7245187987F800E004BFB5
:101430004FF0000E87F800E002289A684CD003288D
:101440003DD00128E3D1107C0028E0D1D3F80CE096
:10145000C2F804E0D3F810C0C2F808C014465A69B4
:10146000E26099F800209B69A361002AA3D0606024
:101470008646A0E7A3EB0E0323F07F4363450AD221
:10148000ACEB03032360A2E7C01A10602360E261A3
:10149000CEF81C40B5E70023012223606360A360FF
:1014A000E36122743EB13068C8F80040C31A33606B
:1014B000E661264677E7C8F80040264673E7002E27
:1014C000A5D0002200E01E46F3693274002BFAD149
:1014D000C8F800301E4696E74EB1B242344603D1FA
:1014E000BDE09A4260D01C46E369002BF9D100238D
:1014F0001374F4458DD1BAF1000F02D18E4200F081
:101500009D80002E00F0C5803B4B404A1C68D2F8FD
:101510000475DFF80881D6F800A098F800103B1B8E
:1015200023F07F43DD1CA9B93949354B4FF4803096
:10153000C2F844030126C2F804034FF40030C1F896
:10154000800143F00103086016604FF43C60984747
:1015500088F80060AA452CBF04EB0A0363192B49E5
:1015600023F07F43C1F84035D1F80425D21BDB1BA3
:1015700022F07F4223F07F4303329A420ED9204B60
:10158000D1F80425C1F8402543F001034FF43C6035
:1015900098471F4B4FF40032C3F80021002389F80D
:1015A000003005B0BDE8F08FA24239D0D2F81CE07F
:1015B0001368C4F81CE0BEF1000F11D03046DEF80D
:1015C00000402344CEF80030864209D0002397F82B
:1015D00000E097F801C0137406464FF0010A88E74F
:1015E000002397F800E097F801C0137481E700BF6B
:1015F0004409002045090020480900203C0900203A
:10160000904600002C080020FEFF7F0000100140E3
:1016100000E100E04C0900203809002039090020D1
:101620001346F069C8F80000D8B1D3F81CE01B6875
:10163000C4F81CE0BEF1000FC1D1C5E7BBF1000F3B
:101640007FF45FAF002389F8003005B0BDE8F08F6C
:10165000002C3DD19B1A0B604FF0010B99E63346ED
:10166000DFE701931C4BDFF87CC003924FF0010EC3
:101670000291C3F808E0009BCCF8000089F800E074
:101680004FF43C609847D8F80000019B0299039AF8
:10169000CBE7114D114A124C4FF480334FF4003117
:1016A0000127C2F880103C43C5F848334FF43C6032
:1016B000C5F808336F60A0470A4BAF604FF43C6039
:1016C0001E60A047084B1E7068E7C8F8001057E678
:1016D000C8F80010BEE700BF0010014000E100E0C4
:1016E0009046000048090020390900202DE9F84300
:1016F0001F4D204E204FDFF898804FF480334FF479
:1017000000324FF001090024C6F8802047EA09079B
:10171000C5F848334FF43C60C5F80833C5F8049069
:10172000B847C5F808904FF43C60C8F80040B84787
:10173000124B13481349144A1C70144B04600C706C
:1017400014704FF48011C0220B2098701C705C70D4
:10175000C6F8801186F814233160C5F8084586F86C
:101760001123D5F80435C8F800302046BDE8F883C9
:101770000010014000E100E090460000390900201F
:101780004C09002044090020450900202C080020B5
:1017900048090020074B9B780BB9082070473AB1E5
:1017A00030B10368187C0028F7D159745A6170472A
:1017B000072070472C0800202DE9F041234CA37826
:1017C00013B90820BDE8F0810028FAD0042902D816
:1017D0000720BDE8F0814369002BF2D0437C054629
:1017E000012B4FF000000CBF8846804617460E467E
:1017F00000F068F86378A07821785A1CD2B2904241
:1018000008BF002291421AD003EB430304EBC30349
:1018100001200F499D601871D1F80415D9601E612F
:10182000C3F814809F610020627000F053F8094BE8
:101830004FF48012C3F800210020BDE8F0810020A1
:1018400000F048F80420BDE8F08100BF2C0800201B
:101850000010014000E100E070B5184DAB780BB905
:10186000082070BD0028FBD04369002BF8D000246D
:1018700004740646204600F025F86A78A87829788E
:10188000531CDBB2984208BF2346994211D002EBA9
:10189000420205EBC20202212046966011716B7074
:1018A00000F018F8064B4FF48012C3F800212046D0
:1018B00070BD204600F00EF8042070BD2C080020FA
:1018C00000E100E072B6024A13680133136070470A
:1018D00050090020034A1368013B136003B962B644
:1018E000704700BF5009002000B550E8002F0B469C
:1018F00040E8003E9EF0000FF7D110465DF804FB73
:1019000000B550E8003F03EB010240E8002E9EF0D6
:10191000000FF6D110465DF804FB00BF00B550E89B
:10192000003FA3EB010240E8002E9EF0000FF6D12D
:1019300010465DF804FB00BF00B5012350E8002FFE
:1019400042EA030E40E800E191F0000FF6D1704644
:101950005DF804FB00B5002350E800EF0EEA030237
:1019600040E8002191F0000FF6D170465DF804FBCD
:10197000B8B130B4416882680468521AD2B2531EBA
:101980002160DBB242B101680A685C1E551C0D6023
:101990001370E3B2FF2BF6D103680020187130BC3E
:1019A00070470E20704700BF70B504460020FFF757
:1019B00089FF236861681A688A4215D9511E196027
:1019C0002168A3680D680879268A12F8012CE4685A
:1019D0005B1BDBB2984206FB024400D20B71002075
:1019E000FFF778FF204670BD00240020FFF772FF4C
:1019F000204670BD38B5054600200C46FFF762FF53
:101A00002A681368591C1160E9682A8A641AB4FBB1
:101A1000F2F41C700020BDE83840FFF75BBF00BF48
:101A2000826802B9704710B50446436901680069CD
:101A300098470023A36010BD0EB400B582B003998F
:101A400029B102AA04AB42F8043D00F095F802B0B7
:101A50005DF804EB03B070472DE9F84F1746B94223
:101A6000884606461D46DDF828B00B9A7DD30B4606
:101A70004FF00109B3FBF7F39F4209F10109F9D9CE
:101A8000A94538BFA94612F0010A02D1BBF1000FE7
:101A900049D1B268012402E0013D07FB04F4012DA5
:101AA000FAD8B8FBF4F18F42F7D9324D05E0B4FB18
:101AB000F7F4A4B1B8FBF4F1B268685C531CB360EE
:101AC00033689854B26873689A4204FB1188EED365
:101AD0003046FFF7A5FFB4FBF7F4002CEAD1BAF1CA
:101AE000000F16D0BBF1000F33D0CB4588BF2024A8
:101AF0003ED9B3683268591CB160D454B268736877
:101B00009A420BF1FF3B06D2BBF1000F09D0D94539
:101B1000EFD1BDE8F88F3046FFF782FFBBF1000F31
:101B2000F5D1BDE8F88F93071AD42024CB45B0D95E
:101B3000B2683368511CB1609C54B26873689A42B1
:101B40000BF1FF3B07D2BBF1000FA3D0CB45F0D187
:101B5000A0E7BDE8F88F3046FFF762FFB268F2E712
:101B6000002D0CBF30242024E0E74FF0010987E767
:101B7000BDE8F88F98460000002900F06F822DE93B
:101B8000F04F064685B093460C460B780DE0B268E0
:101B90003168501CB0608B54B26873689A4280F010
:101BA000D3802378002B00F0BA800134002B00F0A2
:101BB000B680252BEBD14FF00008234614F8012BFB
:101BC0002D2A00F0BB80302A00F0BB802B2A00F0C9
:101BD000AD802A2A00F0BC80A2F13005E9B20929C3
:101BE00098BF013302D9A9E1A1F130051C4613F8D1
:101BF000012BA2F1300005EB8501092802EB410120
:101C0000F2D92E2A00F0B080002701E014F8012F4D
:101C100002F0FB03682BF9D0253A532A7AD8DFE883
:101C200012F07A0179007900790079007900790061
:101C300079007900790079007900790079007900DC
:101C400079007900790079007900790079007900CC
:101C500079007900790079007900790079007900BC
:101C600079007900790079007900790079007900AC
:101C7000790079007900790079007900790079009C
:101C800079007900790079006A017900790079009A
:101C9000790079007900790079007900790055019F
:101CA000FC007900790079007900FC007900790066
:101CB0007900790079007900540079007900CA0030
:101CC0007900BA00790079006A01DBF80020131D61
:101CD000CBF80030B368156831685A1CB2604FF019
:101CE0003002CA54B3687268934280F0A0813268AF
:101CF000581C7821B060D154B26873689A4280F061
:101D00009281002208230192294600931022304636
:101D1000FFF7A2FE01342378002B7FF446AF337B1C
:101D2000002B40F0058105B0BDE8F08F234614F884
:101D3000012B2D2A48F004087FF445AF48F0010834
:101D40003BE748F0020838E73046FFF769FE28E72E
:101D5000DBF80020111DCBF8001015685A782E2AE8
:101D600003F101047FF450AF6278A2F13003092B34
:101D700004F101044FF000073FF64AAF07EB870775
:101D800002EB470714F8012FA2F13003092BA7F14A
:101D90003007F3D93CE7DBF800301A1DCBF8002000
:101DA0001968CDF804803B4600950A223046FFF7BB
:101DB00053FE0134AFE7DBF800301A1DCBF80020EA
:101DC00018F0010FD3F8009040F0BB80B9F1000F7C
:101DD00000F04781484602F0FCF90746BD4240F258
:101DE000F180002D00F0EE804FF0200805E0BD42AC
:101DF00000F0E880002D00F0E580B3683268591CDF
:101E0000B16002F80380B26873689A4205F1FF3549
:101E1000EDD33046FFF704FEE9E7DBF800301A1D8A
:101E2000CBF80020D3F8009089EAE973A3EBE973BB
:101E3000092B4FF0010A09DD8F4A82FB0312DB17E1
:101E4000C3EBA203092B0AF1010AF5DCBA4538BF3E
:101E5000BA462DB3B9F1000F02DB18F0040F00D021
:101E6000013D18F0020F40F0F58018F0010F17D176
:101E7000002D00F0FE80AA4538BF202110D2B268A4
:101E80003368501CB0609954B26873689A4205F187
:101E9000FF3580F0E880002D00F0EB80AA45EED100
:101EA000B9F1000FC0F2C88018F0040F7BD108F020
:101EB0000303022B00F09A808DE820013B4649463F
:101EC0000A223046FFF7C8FD013424E7DBF8002082
:101ED000131DCBF80030B36831681278581CB0601D
:101EE000CA54B26873689A42FFF414AF3046FFF7E1
:101EF00097FD01340FE7DBF800301A1DCBF8002006
:101F00001968CDF804803B46009510223046FFF753
:101F1000A3FD0134FFE6B3683268591CB1604FF08D
:101F20002501D154B26873689A42DFD20134F2E6D7
:101F3000304605B0BDE8F04FFFF772BD1C460025E6
:101F40005FE64F46A7EB090817F8013B8BB1B26873
:101F50003168501CB0608B54B26873689A42F1D3F8
:101F60003046FFF75DFDA7EB090817F8013B002B92
:101F7000EDD145457FF6CEAE202705E045453FF43F
:101F8000C9AE002D3FF4C6AEB3683268591CB160CB
:101F9000D754B26873689A4205F1FF35EED33046E4
:101FA000FFF73EFDEAE7B2683368501C2B21B060B2
:101FB0009954B26873689A42FFF479AF3046FFF7DC
:101FC0002FFD74E709F1FF3919F8013F002B3FF4A9
:101FD000A1AEB2683168501CB0608B54B2687368AF
:101FE0009A42F1D33046FFF71BFDEDE7002F7FF457
:101FF00063AF002D33D0AA45BFF45EAFB26833683B
:10200000511CB1604FF030019954B26873689A4224
:1020100005F1FF3503D215B3AA45EFD14CE73046A1
:10202000FFF7FEFCF7E73046FFF7FAFC69E63046BB
:10203000FFF7F6FCB3685AE6B2683368501C2D21EE
:10204000B0609954B26873689A42C9F10009FFF40C
:102050002EAFB3E7002F3FF423AF06E7704700250C
:102060002AE74F46BAE630460391FFF7D9FC0399B9
:1020700011E7002514E700BF67666666FFF778BCC6
:102080002DE9F041B0F81080CF1CA8F104084744B6
:102090000646B7FBF8F7FFF787FC80B3FFB20025D1
:1020A0000123013F0446A0F80680066005714371D4
:1020B00028D0804609E06379AF4203F101036371E0
:1020C000C8F80000066080461CD03046FFF76CFC64
:1020D00001350028EFD16679721E16D023460130F3
:1020E00082421B68FBD81F684EB1214600250C6850
:1020F00001353846FFF77EFCAE422146F7D100207D
:10210000BDE8F0812046BDE8F0812768EDE700BF1B
:1021100004300121FFF7F4BBF8B501210446043077
:10212000FFF7FCFBC0B200B1F8BD6679721E12D099
:102130002346013082421B68FBD81F68002EF3D073
:10214000214600240D6801343846FFF753FCA642AF
:102150002946F7D1F8BD2768F2E700BF2DE9F8431B
:10216000C78890F805E0154607FB0EFEEC18AEF1A7
:10217000040E1A1DA6458846B2FBF7F638BFAEEB33
:10218000030507FB1621044616B1013E2468FCD165
:102190007E1AAE4228BF2E469DB14FF00009081DA1
:1021A000AD1B08EB09012044324601F0FFFFAF42AE
:1021B000B14424683E464FF0000128BF2E46002D52
:1021C000EDD1BDE8F88300BF2DE9F843C78890F84A
:1021D00005E0154607FB0EFEEC18AEF1040E1A1DC5
:1021E000A6458846B2FBF7F638BFAEEB030507FB02
:1021F0001621044616B1013E2468FCD17E1AAE4277
:1022000028BF2E469DB14FF0000904312144AD1B7B
:10221000324608EB090001F0C9FFAF42B14424681F
:102220003E464FF0000128BF2E46002DEDD1BDE8FF
:10223000F88300BF0B4B0C480C49C01AC0080004BF
:1022400010B540F00300FEF76DFB094A094B00246E
:1022500014701C60BFF35F8F0749084800F022F834
:10226000204610BD98480000D0480000A846000055
:102270005C09002060090020B046000054090020DD
:1022800020BF40BF20BF70478268002393608268F0
:102290001361826853618268D36082685360826888
:1022A0001360704701600B6843604A68934204BF43
:1022B00000234360704700BF10B568B101280AD100
:1022C0000C4C2369A07033B10CCB012022619847DC
:1022D0002369002BF8D110BD064CA368012262705F
:1022E000002BF8D00CCB0020A2609847A368002BED
:1022F000F8D110BD6409002010B50B4C237882B0D2
:1023000013B1852002B010BD08486360A36023614B
:10231000E36000F0AFF8019000F0BAF801980123F3
:10232000237002B010BD00BF64090020B922000074
:1023300038B5154DAB78044673B110B14368012030
:1023400098470020FFF7BEFAEB680133EB600020EE
:10235000BDE83840FFF7BEBA03F0FF00FFF7B2FA5E
:1023600064B12A6942B1944208D0134601E09C420C
:1023700004D01B68002BFAD122602C61EB68002B83
:10238000E2D100F099F8DFE76409002070B50A4A4D
:102390000A4B06784568047AC06853F8213052F831
:1023A000211084B003908DF8006001958DF80840ED
:1023B0006846984704B070BD780900207C09002069
:1023C00070B50A4A0A4B067845688468C06853F8B5
:1023D000213052F8211084B003908DF800600195EF
:1023E0008DF808406846984704B070BD7809002011
:1023F0007C090020F0B51A4B06781A4D0C6991F84B
:102400001DC045F826400746174803F806C040F8A7
:1024100026200C4696460FCC89B06D460FC594E831
:102420000F0085E80F000496BCF1000F0BD0BEF141
:10243000000F0E4A694607F1040008BF002201F0B0
:1024400007F809B0F0BDBEF1000F094A694607F16F
:102450000C0008BF002200F0CBFD09B0F0BD00BFAA
:10246000C00A0020780900207C0900208D2300008C
:10247000C1230000054A13790BB185207047012163
:102480001060537118461171704700BF8009002019
:10249000084B1A68D20706D40122C02183F8001322
:1024A000C3F880211A604FF080430122C3F8182539
:1024B000704700BF00E100E010B41349134B144A09
:1024C0000020086083B0096801914FF0804102202C
:1024D000019CC1F80403D86840F08071D960146889
:1024E00044F001031360516853685B1AB3F50A5F47
:1024F000FAD30649074B14600122C8601A6003B082
:102500005DF8044B704700BF04010040F0ED00E0AF
:10251000001000E00800004010B5144B1A6882B0AB
:1025200062B10021124A19601B68507900934FF084
:1025300080410123009CC1F8083390B10D4B1A680B
:102540006AB100221A601B6801934FF08042022199
:10255000074B0198C2F808131B680120984702B086
:1025600010BD116853718847E8E700BF00010040C3
:10257000800900200401004070B5224C94F85850A6
:1025800082B015B1082002B070BD4FF0FF3329466C
:10259000FF26042204F1540023636363A363E3630F
:1025A00023646364A364E36423606360A360E36003
:1025B00023616361A361E361236284F85030636245
:1025C000A36284F85230E36284F8533084F8516097
:1025D00001F0F7FD0C4B0D4A0D4E15604021C02057
:1025E00083F80603C3F880111960136801930199F9
:1025F0004FF000430122284684F85820C6F80433DF
:1026000002B070BD8809002000E100E07C6100405C
:1026100000600040034B93F85800003018BF0120C1
:10262000704700BF88090020F0B5664C231893F965
:102630003050002D01DB0820F0BD91F802E0CEF310
:10264000400EBEF1000F50D02568013500F0B58076
:102650000125082654F8253001334CD06B1C54F862
:102660002370013748D0AB1CB3423CD254F82370DE
:10267000013741D0EB1CB34235D254F823700137F7
:102680003AD02B1DB3422ED254F82370013733D0E9
:102690006B1DB34227D254F8237001372CD0AB1DE9
:1026A000B34220D254F82370013725D0EB1DB3423A
:1026B00019D254F8237001371ED005F10803B34234
:1026C00011D254F82370013716D005F10903B34233
:1026D00009D254F8237001370ED00A35B54202D220
:1026E000E36A013367D00420F0BD256A013533D099
:1026F00009250C26AEE72B4626185DB244F82320A8
:1027000086F83050BEF1000F2CD08B785A0715D4C4
:10271000DE0747D5830003F1A043D3F8002722F05A
:102720000202C3F80027284EC20800F0070EB75C6B
:10273000012303FA0EF33B43B3548B7813F00203E7
:1027400014D1083D2C44097894F8502042EA8112B3
:1027500084F850201846F0BD082683F830603546CE
:1027600022623346234483F84800CEE7AD0005F1EA
:10277000804505F5C0450A78D5F8101521F4473194
:1027800021F44071C5F8101503021204D5F8101594
:1027900002F4403203F4F85313430B43C5F81035E9
:1027A0000020F0BD4A784FF0A04600F5E07392009B
:1027B00046F82320B7E70B239EE70025226083F825
:1027C0003050A2E788090020DC090020F0B42E4D2B
:1027D0002E1882B096F93030072B1CDD2B4493F86D
:1027E00048309B09032B41D0012B14BF4FF44031DB
:1027F0004FF40031800000F1A040D0F8002722F40F
:102800004032C0F80027D0F800370B43C0F800373B
:1028100002B0F0BC7047DAB2072AF9D8980000F18C
:10282000804000F5C04003F140029200D0F810450E
:1028300092B202F18042002744F0010402F5C04246
:10284000C0F810450197019817600029E0D096F96B
:10285000302055F82220002ADAD001220B4902FA52
:1028600003F3C1F8043302B0F0BC70474FF0A0434B
:10287000D3F81035C34013F0010F0CBF4FF40031F3
:102880004FF44031B6E700BF8809002000600040E7
:102890004FF0A043D3F8103523FA00F000F0010008
:1028A000704700BF2DE9F04F87B00023CC4A019359
:1028B0001168012900F00A821E46CA4B1A68012AD3
:1028C00000F0F681C84B1A68012A00F0E381C74B7B
:1028D0001A68012A00F0D081C54B1A68012A00F05D
:1028E000BD81C44B1A68012A00F0AA81C24B1A6844
:1028F000012A00F09781C14B1A68012A00F08481F7
:10290000BF4B1A68012A00F05E8116F0FF0F1AD043
:10291000BC4F01250024A30003F180432E4203F5A0
:10292000C0434FEA45050BD0D3F8100557F82420D3
:10293000D3F81015C0F30420C1F3014102B1904750
:102940000134082CE7D1002E02DB07B0BDE8F08F80
:1029500000224FF0FF33AB4C02920393012502AEED
:1029600094F950104F1C2DD0C9B221F0C00006AB15
:102970004FEAD00E03EB0E0701F0070317F80C2CFB
:1029800005FA03F31A421DD02218890992F9302062
:1029900054F82220002A00F0F080032900F0F08093
:1029A0004FEA800E0EF1A04E17F814CCDEF8007737
:1029B0001CEA0303C7F3014940F0B880B9F1030FE3
:1029C00000F0D7814FF0030A4FF002094FF00108E1
:1029D000002794F95110481C2DD0C9B221F0C00035
:1029E00006AB4FEAD00C03EB0C0E01F007031EF808
:1029F0000C2C05FA03F31A421DD02218890992F90A
:102A0000302054F82220002A00F0CA80032900F068
:102A1000CA804FEA800C0CF1A04C1EF814BCDCF804
:102A200000E71BEA030FCEF3014E40F09080BEF1A9
:102A3000030F00F08A8194F952104A1C2CD0C9B2BD
:102A400021F0C00006AB4FEAD00C03EB0C0E01F0F6
:102A500007031EF80C2C05FA03F31A421CD02218A7
:102A6000890992F9302054F82220002A00F08F8042
:102A7000032900F08E804FEA800C0CF1A04C1EF868
:102A800014ACDCF800E71AEA030FCEF3014E6AD16A
:102A9000BEF1030F00F0468194F953104B1C2CD06B
:102AA000C9B221F0C00006AB4FEAD00E03EB0E0214
:102AB00001F0070312F80CCC05FA03F31CEA030F2C
:102AC0001BD004EB000C89099CF930C054F82C9001
:102AD000B9F1000F6ED003296ED04FEA800E0EF1CF
:102AE000A04E12F814CCDEF800271CEA030FC2F344
:102AF000014211D1032A00F0F580002F3FF425AFE9
:102B00004FF0A043019AD3F810359A423FF41DAF1D
:102B1000029A0193039223E7022AEED1032900F0DF
:102B20004681B9F1000FE8D0C847E6E7B9F1020FD6
:102B30007FF448AF032900F043814FF0030A4FF0C0
:102B400001080027002A3FF444AF904741E7BEF157
:102B5000020F7FF470AF032900F02C81002A3FF4AC
:102B60006AAF904767E7BEF1020F95D1032900F0E5
:102B70002481002A90D090478EE703297FF422AF6A
:102B800016F80EC04CEA030C06F80EC008E703293D
:102B900082D116F80CA04AEA030A06F80CA06AE7EC
:102BA00003297FF448AF16F80CB04BEA030B06F884
:102BB0000CB02EE70329A0D116F80EC04CEA030C86
:102BC00006F80EC089E700221A601B6805934FF0D3
:102BD000A043059AD3F81035019346F0004694E6D9
:102BE0000061004004610040086100400C61004049
:102BF0001061004014610040186100401C610040F9
:102C00007C610040880900206F4AD2F80423120634
:102C10007FF576AE00221A601B680493049B46F091
:102C200080066DE6684AD2F8042351067FF563AE4C
:102C300000221A601B680493049B46F040065AE683
:102C4000614AD2F8042390067FF550AE00221A6044
:102C50001B680493049B46F0200647E65A4AD2F8C4
:102C60000423D4067FF53DAE00221A601B6804934E
:102C7000049B46F0100634E6534AD2F804231507A5
:102C80007FF52AAE00221A601B680493049B46F06D
:102C9000080621E64C4AD2F8042357077FF517AE01
:102CA00000221A601B680493049B46F004060EE69B
:102CB000454AD2F8042392077FF504AE00221A6039
:102CC0001B680493049B46F00206FBE53E49D1F8DD
:102CD000046316F001063FF4F0AD1360136804932B
:102CE000049BEAE503297FF41CAF4FF40032DEF8C1
:102CF000003723F44033CEF80037DEF800371343B3
:102D0000CEF80037B9F1000F01D047460CE74FF07D
:102D1000A043019AD3F8103593427FF4F9AE07B07F
:102D2000BDE8F08F03297FF424AF4FF40037DCF8BF
:102D3000003723F44033CCF80037DCF800373B434E
:102D4000CCF800374746C84613E703297FF406AF9F
:102D50004FF40037DCF8003723F44033CCF8003769
:102D6000DCF800373B43CCF800374746C846D1462D
:102D7000F4E6032906D0CA461F464FF002094FF079
:102D80000108DFE64FF40037DEF8003723F4403364
:102D9000CEF80037DEF800373B43CEF800374FF06F
:102DA000040A4FF003094FF002080127CAE64FF466
:102DB00040329CE74FF44037CCE74FF44037B6E75A
:102DC0004FF44037E0E700BF00600040014B1B6854
:102DD000184700BFE409002038B50C4B984201D0D9
:102DE000002038BD00200D46FEF76CFD084B1C7915
:102DF00024B10020FEF76EFD112038BD01222046CF
:102E00001D601A71FEF766FD204638BD00200040A7
:102E1000E4090020034B984203D1034B00221A60BF
:102E20001A71704700200040E409002030B56E4A56
:102E3000D2F8043399058BB05BD5D2F82431002B3E
:102E400057D00023C2F82431D2F8243103934FF431
:102E50000171664B0398C2F8081393F8291009B959
:102E600001215160604902228DF81820D1F8802498
:102E7000C1F880249869D9680992002208900791C6
:102E80009A6193E81200DA6106A8A047564AD2F880
:102E90001C31C3B1554B186A5969884265D293F801
:102EA000280000F0FF0400285FD1C2F81C41D2F8CE
:102EB0001C11029102999C68186A196A205C013100
:102EC0001962C2F81C05484AD2F844317BB100218E
:102ED000464BC2F84411D2F8440193F829100090EF
:102EE000009809B1012111609A69002A52D10BB0F2
:102EF00030BD3D4AD2F804335B07C7D5D2F808315C
:102F0000002BC3D0394B9969002952D00021C2F857
:102F10000811D2F8081104910499D868596AD2F8B6
:102F2000182542545A6A996901325A625A6A8A4289
:102F3000ACD1DA69002A45D193F8292012B92A4A7E
:102F400001215160284A4FF40171C2F80813596AEF
:102F5000DA6808910024012007928DF8180093E8A0
:102F600006009C6106A8904790E71F4A0020C2F81F
:102F70001C01D2F81C210192019A0029A3D09A6861
:102F80008DF8180008915861079206A893E806008A
:102F9000904798E70022586AD9689A610122089000
:102FA00007918DF8182006A893E8060090470BB00B
:102FB00030BDC2F80811D2F8080105900598D2F882
:102FC0001825B3E7DD685C6A18699A61012100225F
:102FD000D860DA615A628DF818100795089493E862
:102FE000060006A8904751E700200040EC090020A9
:102FF0002DE9F041604E05792C2303FB056382B077
:1030000093F82A301BB1082002B0BDE8F0810F46CA
:1030100004465A4900689046FFF7DEFE18B11120B9
:1030200002B0BDE8F0813A68511C0BD04FF0A041CE
:1030300001239340C1F808353B6803F5E073032290
:1030400041F823207B685A1C06D003F5E0734FF04B
:10305000A042002142F823102368BA69C3F824254E
:10306000397D7B7D22680B43C2F86C3597E80600FA
:103070002368C3F81425C3F80C153B7D012B51D0F0
:103080002C2303FB05F3F218C2F804803A69F250CE
:10309000B8F1000F35D023683A7F394F0021C3F8CB
:1030A0001C11D3F81C3100932368DDF800E0C3F84D
:1030B0004411D3F84411236801910199C3F80473B2
:1030C0002168090B4BB2002B4EDB03F1604303F583
:1030D00061435201D2B283F800232268120B42F3FB
:1030E000C40323F0604323F0030303F1604303F5BB
:1030F000614302F01F02012101FA02F2C3F88021AC
:103100001A602C23246803FB056300220425012197
:10311000C4F8005583F82A109A61DA6183F82920EF
:103120005A6171E7BB68591C06D003F5E0734FF094
:10313000A042002142F82310FB685A1C0DD0012246
:103140004FF0A04102FA03F3C1F80835FB6803F51C
:10315000E073032241F82320FB682268B968C2F8B3
:103160000835C2F810158BE7064B01F00F0152012C
:103170000B44D2B21A76B0E7EC0900202D2E0000E5
:1031800080000200FCEC00E0F8B52F4D04790268E5
:103190002C2303FB045300215B68C2F8001583B1A4
:1031A00003682A4AC3F808230368294E1B0B5AB246
:1031B0005209203203F01F03012101FA03F346F8FC
:1031C000223003684FF0FF32D3F80CE5D3F81475C2
:1031D000D3F80815D3F81065C3F81425C3F80C25E7
:1031E00003689645C3F80825C3F8102506D00EF5E8
:1031F000E07E4FF0A043022243F82E207B1C06D035
:1032000007F5E0774FF0A043022243F82720721C15
:1032100006D006F5E0764FF0A043022243F82620C0
:103220004B1C06D001F5E0714FF0A043022243F899
:1032300021200068FFF7EEFD2C2303FB045400233C
:1032400084F82A306360F8BDEC0900208402020093
:1032500000E100E0F0B5304E05792C2303FB056357
:1032600085B05C6914B1112005B0F0BD1C62996095
:1032700083F828405A610268C2F81C41D2F81C1138
:10328000026802910121029F91600268D3F808E070
:10329000C2F81C41D2F81C1101910199D3F820C049
:1032A000196A5F681EF80CC001311962C2F81CC5AA
:1032B00017B1204605B0F0BD1A6A5C6901689442F6
:1032C00003D819E093F82820F2B9D1F81C21002A7C
:1032D000F8D0C1F81C71D1F81C210392039AD3F8DD
:1032E00020C01A6A1EF80CC001321A62C1F81CC54F
:1032F0001A6AA242E9D30168D1F81C31002BFBD035
:103300000123CB60002000E00F202C2303FB05638A
:1033100000225A61A8E700BFEC09002070B54A4BB3
:10332000D3F8242188B0002A55D1D3F81011F1B96F
:10333000454BD3F8442152B10020444AC3F844011C
:10334000D3F8444191690194019C002960D13E4B1E
:10335000D3F820214AB100213C4AC3F82011D3F808
:10336000204150690094009C30BB08B070BDC3F888
:103370001021D3F810113548039103998169D3F8CE
:103380003C458C42D4D1C569002D50D0D3F80012F1
:10339000C668856121F02001C3F800120369C2618B
:1033A00001220168C3608DF81840436805968DF8C6
:1033B000102004A89847BBE7D3F84C0593688DF814
:1033C00018008DF810105161059304A892E80A00C6
:1033D000984708B070BD0021C3F82411D3F8242108
:1033E000029202228DF81020029AD3F88004174A24
:1033F000C3F880040790D3F83C05D3688DF8180013
:103400009161D16105931168536804A898478FE7CB
:10341000D3F83C458DF81840D3689061012405939A
:10342000116853688DF8104004A898478FE7C36867
:1034300001688561012205938DF8184043688DF875
:10344000102004A8984773E700200040180A0020C5
:103450002DE9F0430479704EE7003B1906EB830336
:1034600085B093F820301BB1082005B0BDE8F0838B
:1034700089460546694900689046FFF7ADFC18B1DA
:10348000112005B0BDE8F083D9F80020511C0CD004
:103490004FF0A04101239340C1F80835D9F800301E
:1034A00003F5E073032241F82320D9F804305A1CB5
:1034B00006D003F5E0734FF0A042002142F823103C
:1034C0002B68D9F81820C3F8242599F8141099F816
:1034D00015202B680A43C3F86C252A68D9F80030F8
:1034E000D9F80410C2F80C35C2F8141599F8143044
:1034F000012B61D03A199200B318C3F80480D9F8AF
:103500001030B350B8F1000F47D0296899F81C204B
:10351000DFF810E10023C1F81031D1F8101100914B
:103520002968DDF800C0C1F82031D1F820110191DF
:103530002968DDF804C0C1F82431D1F824110291C2
:103540002968DDF808C0C1F84431D1F844112B686E
:1035500003910399C3F804E32968090B4BB2002BCC
:1035600051DB03F1604303F561435201D2B283F8AA
:1035700000232A68120B42F3C40323F0604323F0B4
:10358000030303F1604303F5614302F01F020121CD
:1035900001FA02F2C3F880211A603C442A6806EB63
:1035A000840400230125082184F82050C2F8001566
:1035B000A361E361636158E7D9F80830591C06D06C
:1035C00003F5E0734FF0A042002142F82310D9F830
:1035D0000C305A1C0FD001224FF0A04102FA03F325
:1035E000C1F80835D9F80C3003F5E073032241F82F
:1035F0002320D9F80C302A68D9F80810C2F8083509
:10360000C2F8101576E7064B01F00F0152010B448A
:10361000D2B21A76ADE700BF180A00201D330000B1
:10362000FCEC00E010030200F8B506792F4C0268AC
:10363000F500AB1904EB830300215B68C2F80015A9
:1036400083B103682A4AC3F808230368294F1B0B78
:103650005AB25209203203F01F03012101FA03F389
:1036600047F8223003684FF0FF32D3F80CC5D3F887
:1036700014E5D3F80815D3F81075C3F80C25C3F872
:10368000142503689445C3F80825C3F8102506D00F
:103690000CF5E07C4FF0A043022243F82C20BEF151
:1036A000FF3F06D00EF5E07E4FF0A043022243F824
:1036B0002E207A1C06D007F5E0774FF0A0430222B7
:1036C00043F827204B1C06D001F5E0714FF0A043D2
:1036D000022243F82120354404EB85040068FFF7FB
:1036E00099FB002384F820306360F8BD180A00209D
:1036F0001003020000E100E001F06043B3F1005F5D
:1037000001D010207047F0B50579214EEF007C19EB
:1037100006EB840483B0636913B1112003B0F0BDDC
:10372000A1606261D0F800E0CEF82031DEF820C15F
:10373000D0F800E0CDF804C0DDF804C0CEF8583170
:10374000DEF858C1D0F800E0CDF800C0DDF800C0C8
:10375000CEF84415CEF848250268012191606268D0
:103760000AB11846DAE7036800E079B9D3F82021F6
:10377000D3F85811002AF8D0002914BF0F200020D8
:103780007B1906EB830300225A61C7E70F20F7E796
:10379000180A00200220FDF78BBB00BF2DE9F0477F
:1037A0000D460646FDF796FB03281ED8012D04465C
:1037B0001FD00ED3022D1AD11C4B00EB40041C4429
:1037C000657895B11A4B1B687BB12846BDE8F04778
:1037D00018471848FEF740F8144B174A04EB440109
:1037E0000B44125D9D78AA42EBD0BDE8F087BDE89E
:1037F000F0870E4F4FEA400808EB0003FA18FD5C13
:1038000053782BB9A04447440B4BBA781A55D8E7E4
:10381000DFF8289007484A464FF40041FDF7CCFFF7
:103820000028EFD189F80060ECE700BFA00A002073
:10383000B40A0020600A0020BC0A00203C0A0020D4
:1038400010B50078FDF746FB03280BD8064B00EBBC
:1038500040001844407828B1044B1B6813B1BDE800
:103860001040184710BD00BFA00A0020B40A002075
:10387000AB4B1B68DB0700D4704770B5A94EAA4D4F
:1038800033782C78FBB9172C1CD8DFE814F0E5004E
:10389000050105015D0070007D00900057003600B5
:1038A0002900360029009D00A200A200A200A2006B
:1038B000A200C800D500F500430018001800FDF76D
:1038C000E7FA2C7070BD994B1B7800203070002BEC
:1038D00000F0F680FDF7C0FA0120FDF7BDFAD2E74F
:1038E000012318463370FDF7E3FA00224FF48041BC
:1038F0008F48BDE87040FDF75FBF01231846337065
:10390000FDF7D6FA002240F6CD418948BDE8704067
:10391000FDF752BF854B1B78002B00F0F280002092
:10392000FDF79AFA0120FDF797FA0020FDF788FAD3
:103930000120FDF785FA15232B7070BD0020FDF7DF
:103940007FFA07232B7070BD0020FDF76BFA00286B
:1039500000F0CA800020FDF77FFA46F2666103237B
:103960002B7000227248BDE87040FDF725BF002093
:10397000FDF758FA002800F0BC800020FDF76CFA33
:103980004FF400310423EBE70020FDF74BFA002849
:1039900000F0B4800020FDF75FFA05232B700022B1
:1039A00041F69A116248BDE87040FDF705BF00205E
:1039B000FDF77EFA06232B70002240F6CD415C48CD
:1039C000BDE87040FDF7F8BEFDF762FA0C232B70DE
:1039D00070BD5848FDF740FFD4F11104054672D080
:1039E000002870D1012C13D0C82303FB04F44FF43A
:1039F000FA704FF400430021C3FB04014FF47A72C4
:103A0000002300F0FDFB2A4601464A48FDF7D4FE9C
:103A10000220FDF715FA454B01221A7070BD434B89
:103A20001B78002B70D00020FDF716FA0120FDF75F
:103A300013FA12232B7070BD3C4B1B78002B69D0FE
:103A40000020FDF709FA0120FDF706FA0020FDF736
:103A5000F7F913232B7070BD344B1B78002B56D015
:103A60000020FDF7F9F90120FDF7F6F93048FDF7E0
:103A7000F3FE00232B7070BD2C4B1B78002B4CD019
:103A80000020FDF7E9F90120FDF7E6F90120FDF737
:103A9000D7F914232B7070BD0020FDF7C3F9C8B10E
:103AA0000020FDF7D9F9022C4EF2666118BF4FF4E1
:103AB00000312C7000221E48BDE87040FDF77CBE2E
:103AC000FDF7D6F9DFE60220FDF7C6F9174B002215
:103AD0001A7070BDFDF7B4F943F2333141F69A1311
:103AE000022C08BF1946E4E7FDF7AAF941F69A113E
:103AF00035E7FDF7A5F943F2333143E7FDF7A0F9C8
:103B00004BE7FDF7B5F910E7FDF7B2F991E7FDF7DF
:103B1000AFF9ABE7FDF7ACF998E7FDF7A9F9B5E721
:103B2000AC0A0020B00A0020B80A00203D0A00209C
:103B3000800A0020400A0020F8B5254B254A19606C
:103B400081070446106014D5234B24480E2111250B
:103B50000F27102619705D7240F266620421DF7033
:103B60009E71FDF7CDFA0546C0B1E3072AD4284679
:103B7000F8BD10F00105FAD00120FDF7BDF9184A93
:103B800018480021FDF706FE05460028EFD1164A29
:103B900016480121BDE8F840FDF7FCBDFDF708FB24
:103BA00005460028E1D10146114A1248FDF7F2FD11
:103BB000E2070546DBD50120FDF79EF9002DDED09A
:103BC0002846F8BD0120FDF797F92846F8BD00BF4B
:103BD000B40A0020AC0A0020A00A0020F44600002D
:103BE000713800001C4700009537000014470000A2
:103BF0004138000018470000032801D9072070470A
:103C0000012A12D0012917D008D30229F6D10D4B71
:103C100000EB4000034400205A707047094B00EB52
:103C20004000034400209A707047012901D000220F
:103C3000E8E700F10E02D2B200EB40030149002098
:103C4000CA547047A00A00200E2808B50FD01628C5
:103C50000CD10F4B0F481049C01AC008000440F0A7
:103C600003000022BDE80840FCF7CEBE08BD084BAB
:103C700008480A49C01AC008000440F003000022A6
:103C8000FCF7C2FE0020BDE80840FDF711B900BFF7
:103C900098480000C048000044470000204700004A
:103CA00008B54FF400410020FCF7ACFC08B1FDF76B
:103CB00095FAFCF72BFC1A4B1A481B49C01AC0088E
:103CC000000440F00300FCF72DFEFEF715FB08B1E1
:103CD000FDF784FA0020FEF72BFBFDF707FD08B186
:103CE000FDF77CFA11490220FFF726FF08B1FDF726
:103CF00075FA002108461622FFF77EFF08B1FDF78E
:103D00006DFA0120FDF7F8F8FEF794FA08B1FDF717
:103D100065FAFCF7D5FC0028FBD1FEF7B1FAF8E70D
:103D200098480000C048000068470000493C000077
:103D3000F0B4B44B1A78062A20D0B34B1B68062B7C
:103D400000F08A80B14AD2F8883043F47003C2F898
:103D50008830BFF34F8FBFF36F8F4FF01023D3F82E
:103D60000022002AC0F28A81D3F80432002BC0F26C
:103D70008581A74BA74A1A60F0BC704704331B68C3
:103D80001807DAD1A44B1B6803F0F002302A00F0C8
:103D9000658103F0E003402B00F060819E4B1B68BF
:103DA00003F0F003302B00F01E819B4B1B6803F0E7
:103DB000F002302A00F0078103F0E003402B00F00E
:103DC0000281954B1B6803F0F003302B00F0EB8071
:103DD000914B1B6803F0F002302A00F0D08003F012
:103DE000E003402B00F0CB808B4B1B6803F0F0030B
:103DF000302B00F0B680884B1B6803F0F003302BAB
:103E000000F09880844B1B6803F0F003502B3FD0E8
:103E1000814B1B6803F0F002302A28D003F0E00346
:103E2000402B24D07C4B1B6803F0F002302A03D0D7
:103E300003F0E003402B80D14FF08043D3F80024FF
:103E4000D2077FF57AAF6FF00102C3F800246E4B02
:103E50001B68062B7FF476AF704B1B68062B7FF434
:103E600071AF6F4A136843F4806313606AE76D4B68
:103E70006D4A1B6803F04F031360624B1B78062BDF
:103E80007FF45BAF694B1B6818077FF456AFC9E737
:103E90004FF08052664BD2F80414C3F82015D2F8C4
:103EA0000814C3F82415D2F80C14C3F82815D2F856
:103EB0001014C3F82C15D2F81414C3F83015D2F826
:103EC0001814C3F83415D2F81C14C3F84015D2F8EE
:103ED0002014C3F84415D2F82414C3F84815D2F8B6
:103EE0002814C3F84C15D2F82C14C3F85015D2F886
:103EF0003014C3F85415D2F83414C3F86015D2F84E
:103F00003814C3F86415D2F83C14C3F86815D2F815
:103F100040143C48C3F86C15D2F844140278C3F836
:103F20007015062A7FF409AF404B1B681C077FF40D
:103F300004AF6DE73F4E404C4049414B05270125FA
:103F400000203F223760256008601A602D4B1B78E7
:103F5000062B7FF4F2AE354B1B681D077FF4EDAEE8
:103F600050E7284B374A1B780321062B11607FF45A
:103F7000E4AE2E4B1B681E077FF4DFAE3BE74FF02D
:103F800080430022C3F80C21C3F81021C3F8382560
:103F90001C4B1B78062B7FF470AF244B1B681F074C
:103FA0007FF4CBAE20E72849164ACB68127823F07D
:103FB0008073062ACB607FF4C0AE1C4B1B681B07C6
:103FC0007FF4BBAE04E7214B0E4A1B6812782049F0
:103FD000C3F34233062A0B60B8D1144B1B681A078F
:103FE0007FF4ABAEEDE6074B1A4A1B781A49116015
:103FF000062B7FF4A2AE0D4B1B6819077FF49DAE14
:10400000D3E600BFE00F00F03001001000ED00E04B
:104010001C0000200090D003E80F00F034010010D5
:104020003C17004058020010E40E0040E40F00F07E
:1040300000C000401056004088560040185600400E
:1040400014560040A0050040F0ED00E044020010CE
:104050003C05004074C007400DF0ADBA204B214A2A
:104060001B6812782049C3F30423062A0B608FD102
:104070001E4B1B6819073FF491AE5EE61C4B0122F4
:10408000C3F80425D3F80024002AFBD04FF01023F6
:1040900015221749C3F80022D1F80034002BFBD0B9
:1040A0004FF010221521124BC2F80412D3F800244D
:1040B000002AFBD000220E49C3F80425D1F80034B1
:1040C000002BFBD0BFF34F8F0A490B4BCA6802F499
:1040D000E0621343CB60BFF34F8F00BFFDE700BF2B
:1040E00024030010E00F00F040350140E40F00F021
:1040F00000E0014000ED00E00400FA0508B5074BC0
:10410000044613B10021AFF30080054B1868836AA1
:1041100003B19847204600F071F800BF000000008E
:104120008447000070B50D4E0D4CA41BA410002553
:10413000A54209D10B4E0C4C00F0EAF9A41BA410C7
:104140000025A54205D170BD56F8253098470135A8
:10415000EEE756F8253098470135F2E7F0010020E8
:10416000F0010020F0010020F4010020044B054A7A
:104170001B681B6A002B08BF1346D3F8EC0070477E
:10418000200000208400002082B001B901A942B1C2
:104190004BB113780B601278101C18BF012002B0CD
:1041A00070471046FBE76FF00100F8E710B5431EBB
:1041B0000A44914200D110BD11F8014B03F8014FA0
:1041C000F7E702440346934200D1704703F8011B0E
:1041D000F9E7034613F8012B002AFBD1181A01381E
:1041E000704749B1FF2A85BF8A2303600A704FF0E8
:1041F000FF3098BF0120704708467047FEE700BFB8
:1042000053B94AB9002908BF00281CBF4FF0FF313D
:104210004FF0FF3000F07AB9ADF1080C6DE904CE33
:1042200000F006F8DDF804E0DDE9022304B0704791
:104230002DE9F0478C460D460446089E002B51D1CF
:104240008A4217466DD9B2FA82FEBEF1000F0BD03A
:10425000CEF1200C01FA0EF520FA0CFC02FA0EF752
:104260004CEA050C00FA0EF44FEA174A250CBCFB89
:10427000FAF81FFA87F90AFB18CC45EA0C4508FB47
:1042800009F3AB420AD9ED1908F1FF3280F023811E
:10429000AB4240F22081A8F102083D44ED1AA4B2DD
:1042A000B5FBFAF00AFB105544EA054400FB09F996
:1042B000A14509D9E41900F1FF3380F00A81A14535
:1042C00040F2078102383C44A4EB090440EA08406C
:1042D0000021002E61D024FA0EF4002334607360B4
:1042E000BDE8F0878B4207D9002E54D0002186E824
:1042F00021000846BDE8F087B3FA83F1002940F0B9
:104300008E80AB4202D3824200F2FA80841A65EBBF
:1043100003050120AC46002E3FD086E81010BDE812
:10432000F08712B90127B7FBF2F7B7FA87FEBEF1A3
:10433000000F34D1EB1B3A0C1FFA87FC0121B3FBB1
:10434000F2F8250C02FB183345EA03450CFB08F391
:10435000AB4207D9ED1908F1FF3002D2AB4200F2AF
:10436000D1808046ED1AA3B2B5FBF2F002FB1055E6
:1043700043EA05440CFB00FCA44507D9E41900F10D
:10438000FF3302D2A44500F2B8801846A4EB0C0417
:1043900040EA08409DE731463046BDE8F087CEF15F
:1043A000200405FA0EF307FA0EF720FA04F83A0C87
:1043B00025FA04F448EA0308B4FBF2F14FEA184581
:1043C00002FB11441FFA87FC45EA044501FB0CF38C
:1043D000AB4200FA0EF409D9ED1901F1FF3080F07B
:1043E0008A80AB4240F2878002393D44EB1A1FFAC3
:1043F00088F5B3FBF2F002FB103345EA034500FBFE
:104400000CF3AB4207D9ED1900F1FF386FD2AB4284
:104410006DD902383D44EB1A40EA01418FE7C1F102
:10442000200722FA07F88B4005FA01F448EA030353
:1044300020FA07FE4FEA134CFD404EEA040EB5FB8E
:10444000FCF94FEA1E440CFB19551FFA83F844EAA5
:10445000054509FB08F4AC4202FA01F200FA01FA40
:1044600008D9ED1809F1FF3043D2AC4241D9A9F186
:1044700002091D442D1B1FFA8EFEB5FBFCF00CFB40
:1044800010554EEA054400FB08F8A04507D9E4188A
:1044900000F1FF3529D2A04527D902381C4440EA53
:1044A0000940A4EB0804A0FB02894C45C6464D46D2
:1044B00015D312D056B1BAEB0E0364EB050404FA1F
:1044C00007F7CB401F43CC40376074600021BDE844
:1044D000F0871846F8E69046E0E6C245EAD2B8EB27
:1044E000020E69EB03050138E4E72846D7E74046AA
:1044F00091E78146BEE7014678E702383C4445E74C
:10450000084608E7A8F102083D442BE7704700BFC2
:10451000F8B500BFF8BC08BC9E467047F8B500BFB0
:10452000F8BC08BC9E467047FFFFFFFFFFFFFFFF80
:10453000FFFFFFFFFFFFFFFF000000000000000083
:104540000000D60106010000F90300006504000028
:10455000F5030000756172745F6C6F675F62616381
:104560006B656E6400000000580700207F000000AB
:10457000D80700204261636B656E647320666C75BA
:10458000736865640000000061707000E44500001D
:1045900014460000C44500001C46000024460000EC
:1045A0002C460000344600003C4600004446000013
:1045B0002025303278000000202020007C00000000
:1045C000256300001B5B313B33316D0025734C6F5D
:1045D00067732064726F70706564202825642925D4
:1045E000730D0A001B5B306D000000002573000096
:1045F0003C25733E2025733A200000000D0A000080
:10460000000000004C460000544600005C460000DC
:10461000644600001B5B313B33306D001B5B313B5C
:1046200033326D001B5B313B33336D001B5B313B21
:1046300033346D001B5B313B33356D001B5B313B0D
:1046400033366D001B5B313B33376D006572726F23
:10465000720000007761726E696E6700696E666F46
:1046600000000000646562756700000016171800FE
:10467000F8070020466174616C206572726F7200E9
:1046800053797374656D2072657365740000000062
:104690000338FDD8704700003031323334353637B7
:1046A0003839414243444546496E69740000000070
:1046B0009848000098480000040000007077725F7E
:1046C0006D676D7400000000636C6F636B00000029
:1046D000434C4F434B0000004750494F54450000A6
:1046E000505253005541525400000000554152545D
:1046F000450000001B0000009D3700001D00000069
:104700009D3700001F0000009D37000003000000DF
:104710009D370000400A0020600A0020800A002027
:1047200047726F766520546F7563682053656E73AA
:104730006F722025642069732072656C65617365F2
:104740006421000047726F766520546F756368209E
:1047500053656E736F7220256420697320746F75C2
:10476000636865642100000047726F766520546FAE
:104770007563682053656E736F72206578616D7024
:104780006C650000240000204300504F534958003E
:104790002E0000202020202020202020282828282B
:1047A0002820202020202020202020202020202001
:1047B0002020208810101010101010101010101051
:1047C0001010100404040404040404040410101061
:1047D000101010104141414141410101010101010D
:1047E000010101010101010101010101010110109B
:1047F00010101010424242424242020202020202E1
:10480000020202020202020202020202020210106C
:104810001010200000000000000000000000000058
:104820000000000000000000000000000000000088
:104830000000000000000000000000000000000078
:104840000000000000000000000000000000000068
:104850000000000000000000000000000000000058
:104860000000000000000000000000000000000048
:104870000000000000000000000000000000000038
:104880000000000000000000000000000000000028
:08489000000000000000000020
:10489800D046000000000000D846000000000000DC
:1048A800E046000000000000E446000000000000B0
:1048B800EC460000000000008845000000000404E9
:1048C800C846000000000000BC46000000000404C8
:1048D8004845000000000000544500001400002076
:1048E800640200202C030020340300206C02002006
:0448F80018000000A4
:0848FC0070B9FF7F010000000C
:1049040000000000002000400000000000200040E3
:104914000000000000000000FF0000000090D00331
:10492400240000200000000000000000000000003F
:104934000000000000000000000000000000000073
:104944000000000000000000000000000000000063
:104954000000000000000000000000000000000053
:104964000000000000000000000000000000000043
:104974000000000000000000000000000000000033
:1049840000000000430000000000000000000000E0
:104994000000000000000000000000000000000013
:1049A40000000000430000000000000000000000C0
:1049B40000000000000000000000000000000000F3
:1049C40000000000430000000000000000000000A0
:1049D40000000000000000000000000000000000D3
:1049E4000000000043000000000000000000000080
:1049F40000000000000000000000000000000000B3
:104A0400000000004300000000000000000000005F
:104A14000000000000000000000000000000000092
:104A2400000000004300000000000000000000003F
:104A34000000000000000000000000000000000072
:104A4400000000004300000000000000000000001F
:104A54000000000000000000000000000000000052
:104A640000000000E3410000894100000000000054
:104A740092470000904700009147000091470000D2
:104A840091470000914700009147000091470000C2
:104A9400914700009147000091470000FFFFFFFF8E
:104AA400FFFFFFFFFFFFFFFFFFFF00000100415377
:104AB400434949000000000000000000000000001D
:104AC400000000000000000000000000000041534E
:104AD40043494900000000000000000000000000FD
:104AE40000000000000000000000000000000000C2
:0C4AF4002502000001020000000000008C
:04000003000002E116
:00000001FF
