:1000000000000420E102000009030000B911000013
:100010000D0300000F0300001103000000000000AA
:1000200000000000000000000000000013030000BA
:100030001503000000000000170300001903000072
:10004000091F00001B030000691F00001B030000C4
:100050001B0300004D3200001B0300001B030000C7
:100060001B0300001B0300001B0300001B03000018
:100070001B0300001B0300001B0300001B03000008
:100080001B0300001B0300001B0300001B030000F8
:100090001B0300001B0300001B0300001B030000E8
:1000A0001B0300001B0300001B030000952E000033
:1000B0001B0300001B030000000000000000000004
:1000C0001B0300001B0300001B0300001B030000B8
:1000D0001B0300001B0300001B0300001B030000A8
:1000E0001B0300001B0300001B03000000000000B6
:1000F000000000001B030000000000001B030000C4
:1001000000000000000000000000000000000000EF
:1001100000000000000000000000000000000000DF
:1001200000000000000000000000000000000000CF
:1001300000000000000000000000000000000000BF
:1001400000000000000000000000000000000000AF
:10015000000000000000000000000000000000009F
:10016000000000000000000000000000000000008F
:10017000000000000000000000000000000000007F
:10018000000000000000000000000000000000006F
:10019000000000000000000000000000000000005F
:1001A000000000000000000000000000000000004F
:1001B000000000000000000000000000000000003F
:1001C000000000000000000000000000000000002F
:1001D000000000000000000000000000000000001F
:1001E000000000000000000000000000000000000F
:1001F00000000000000000000000000000000000FF
:1002000010B5054C237833B9044B13B10448AFF350
:1002100000800123237010BD0002002000000000B8
:10022000104700000C4B43B10C480D4910B5AFF31B
:1002300000800C48036823B910BD0A48036833B92D
:100240007047094B002BF7D0BDE810401847064B0C
:10025000002BF5D0184700BF000000001047000039
:1002600004020020FC01002000000000154B002BC0
:1002700008BF134B9D46A3F5803A00218B460F46DD
:100280001348144A121A03F064FD0F4B002B00D0E0
:1002900098470E4B002B00D0984700200021040007
:1002A0000D000D48002802D00C48AFF3008003F089
:1002B00001FD2000290002F0D1FB03F0E7FC00BFA4
:1002C0000000080000000420000000000000000002
:1002D00000020020240A00200000000000000000AE
:1002E0000649074A074B9B1A03DD043BC858D05008
:1002F000FBDC02F0FBFBFFF7B9FF000078470000D2
:100300000000002000020020FEE7FEE7FEE7FEE717
:10031000FEE7FEE7FEE7FEE7FEE7FEE7F0B595B095
:10032000002415460F4608461E4601F00FFC3846CD
:1003300023460822089505A91A9D09960D950A9449
:100340008DF82C400C9401F05DFC9DF8143007985A
:1003500006998DF8114003F00302012A02900391DF
:1003600028D0022A04D0384601F0F4FB15B0F0BDC5
:10037000BDF81650C3F3C2038DF81030C5F38915CC
:100380000826082D2C4628BF0824334622460EA9ED
:10039000384601F037FC2D1B214608AB02AA0EA8F7
:1003A000264400F0ADFD002DEBD1384601F0D2FB24
:1003B00015B0F0BDBDF81460059DC6F38316C3F3F8
:1003C000C204B2000EA9384608238DF81040C5F3C8
:1003D000952501F017FC08AB0093324628460EA97C
:1003E00002AB00F0E7FCBEE7014B01221A70704738
:1003F00060020020704700BF00B583B0044B00933B
:10040000044A4023FFF78AFF03B05DF804FB00BFF6
:10041000190400002002002038B50E480E4D037864
:100420000E4CEB5C00252570D2B253B90C3002F0B3
:100430001FF858B90A4B1B7813B12378002BFCD056
:1004400038BD043002F0A4FA0028F3D000F05AFEC0
:10045000F0E700BF0000002020090020600200201B
:100460001C02002070B51348134A0378D35C88B08F
:10047000DBB90C3001F07EFF104D0FCD6C460FC480
:1004800095E80F0008AD142645F8206D84E80F00AC
:1004900029460022074801F0ABFC08B100F032FE0B
:1004A000074B00221A7008B070BD043002F0F0F95A
:1004B000E2E700BF0000002020090020A83D000066
:1004C0001C02002070B50D4D0FCD88B06C460FC4D6
:1004D00095E80F0008AD142645F8206D84E80F005C
:1004E0002946074A074801F083FC08B100F00AFEDC
:1004F000054B01221A7008B070BD00BFA83D000076
:10050000E9030000000000201C02002008B5FFF7EE
:10051000D9FF0421034800F005FC034B01225A7166
:1005200008BD00BF4C47000014000020F0B5334D5B
:1005300085B005F5836000F01DFF05F2144000F062
:1005400019FF6B68AE6803EA0600C11C05EB810267
:1005500015F8214014F004040ED0117801F00301C5
:1005600001293BD0022903F1020700F1030126D043
:1005700005EB8102002CF0D105EB80005A1CC1680C
:100580000191324005EB820201F00301D268029230
:10059000012903F1020429D0022925D1BDF8063032
:1005A000BDF80A60C3F38913033304EB93041448C2
:1005B00000F0EEFE00B16C60304605B0F0BD53882F
:1005C00007EB931306EA0300C11C05EB810215F843
:1005D000214004F00404002CBFD1CDE71188023380
:1005E000C1F383110B44EDE70026E0E7BDF80430CA
:1005F000BDF80A60C3F383131C44D8E7340300201A
:10060000480700200B4B0C4810B50022FF21C3F80F
:10061000182499601A605A60C3F8142483F82024BF
:1006200001F04AFA044610B9044801F021FB2046C3
:1006300010BD00BF340300205C470000E83D00000F
:1006400021B9114B03EBC0000068704730B40F4A6A
:100650000D4C121BD2080CD00D4D2B88834210D0AC
:10066000002303E035F82310814205D001339A427C
:10067000F8D1002030BC704704EBC300006830BCE8
:1006800070472046FAE700BF144700004C470000BF
:1006900000020020094B013903EBC00003290BD8ED
:1006A000DFE801F002080604022070474079704735
:1006B00000797047042070470020704714470000FD
:1006C0002DE9F047914C94E80C009A4284B000F078
:1006D000B6800023C4F81834BFF34F8F6368A56851
:1006E00003EA0501CA1C04EB820614F82220500715
:1006F0001AD52768327802F00302012A43D0022A71
:1007000003F1020202D1738802EB931305EA03019D
:10071000D4F81804CA1C04EB820628B99F4238D9C1
:1007200014F822205207E5D404EB81015A1CC96851
:1007300001912A4004EB820201F00301D268029287
:10074000022903F1020828D001297CD0D4F81054E2
:100750003DB12B6828469B689847EB681D68002DC3
:10076000F7D16B486B4B6C49C01AC008000440F0CD
:10077000020000F0D7F860682368C01A18BF012093
:1007800004B0BDE8F08732880233C2F38312134409
:10079000BCE7676004B0BDE8F087BDF806305F488D
:1007A000C3F389194F46502FA8BF502767F38F1303
:1007B00007F10801ADF8063001F080F9064600287F
:1007C000C4D025EA080A0AF1010A01F0BFF94FEA8C
:1007D0008A0A0023082201A9304601F0DDF95745B5
:1007E0006ED9BAF1000F7AD13A4608234C49304607
:1007F00001F0D2F909F1030708EB9707D4F8183490
:10080000002B68D1D4F810545DB1EB685A793146A9
:1008100028461AB12B681B689847EB681D68002DA5
:10082000F3D1304601F096F9002000F0B3FCD4F883
:10083000183403B96760002000F0B4FC9BE7002087
:1008400004B0BDE8F087BDF804303448C3F3831228
:10085000062A28BF0622911C62F389138900ADF88D
:10086000043001F02BF9064600283FF46FAF01F089
:100870006DF90023082201A9304601F08DF9BDF879
:10088000043013F4707F3FD04FF0000A4FF0080996
:1008900005EA080103314B4604EB8101042230468E
:1008A00001F07AF9BDF804300AF1010AC3F38313A9
:1008B00008F10107534509F10409B846E8D89DE756
:1008C00005EA0801033104EB81013A46082330466A
:1008D00001F062F98EE7304601F03CF94BE705EA9A
:1008E00008010331A7EB0A0504EB810152463046AB
:1008F000EDB2082301F050F92A460AF1080308492D
:10090000304601F049F975E7474677E734030020A0
:100910003447000014470000F43D00005C4700002D
:10092000400300202DE9F843DFF8D8900746002067
:100930008846D9F8085000F02DFCD9F80820D9F8DD
:100940000430D9F80060134401339B1B012B55D8A8
:1009500009F21C440121204600F0F0FCFFF7E6FDFF
:100960000146204600F0EAFC99E80A00D9F8082080
:10097000134401335B1A012BECD901240A400332E2
:1009800044F004036FF3891349F822300231002048
:10099000C9F8001000F006FC0021194800F0C2FC64
:1009A00080F3100033192B4009EB8303000435401A
:1009B000033540EA1740D86019F8253067F3C503BE
:1009C00009F8253039F825306FF3891329F82530D7
:1009D00059F8252068F39F22134664F301036FF34F
:1009E000820349F8252009F8253099F820341BB1F5
:1009F000FFF766FE0028FBD1BDE8F8833146BCE76F
:100A000050070020340300202DE9F047354C804684
:100A1000002092468946A56800F0BCFBA268636886
:100A2000276813440133DB1B022B59D804F21C4600
:100A30000121304600F082FCFFF778FD0146304688
:100A400000F07CFC94E80A00A268134401335B1AAE
:100A5000022BEDD901260A40033246F0040366F367
:100A6000891344F8223003310020216000F09AFB02
:100A7000BB1C2B4004EB830300211B48C3F80CA0D4
:100A800000F050FC80F31000BB192B4004EB8303F3
:100A900000043D40033540EA1840D86014F8253082
:100AA00068F3C50304F8253034F8253066F389135C
:100AB00024F8253054F8252069F39F22134666F365
:100AC00001036FF3820344F8252004F8253094F8DD
:100AD00020341BB1FFF7F4FD0028FBD1BDE8F087FF
:100AE0003946B7E734030020500700202DE9F04FC6
:100AF0003F4C83B08046002089460193A668934608
:100B000000F048FBA168636827680B440133DB1BD6
:100B1000042B6BD804F21C450121284600F00EFC82
:100B2000FFF704FD0146284600F008FC94E80C009D
:100B3000A1680B4401339B1A042BEDD90125114008
:100B40004FF0030A033145F0040305326AF38913B9
:100B5000002044F82130226000F024FBB81C07EB91
:100B60000A0E30400EEA060E3A1D324004EB8000B9
:100B700004EB8E0E04EB8202019BC0F80CB0002146
:100B8000CEF80C301B480C9BD36000F0CBFB80F3FD
:100B900010007A19324004EB820200043E405644B1
:100BA00040EA1840D06014F8262068F3C50204F823
:100BB000262034F826206AF3891224F8262054F8D7
:100BC000262069F39F22134665F301036FF3820326
:100BD00044F8262004F8263094F820341BB1FFF79F
:100BE0006FFD0028FBD103B0BDE8F08F3A46A5E7C2
:100BF00034030020500700202DE9F04F87B0474C08
:100C0000109D0393804699460020119B02929246C4
:100C10000593A66804958B4600F0BCFAA268636849
:100C2000276813440133DB1B052B74D804F21C45E1
:100C30000121284600F082FBFFF778FC0146284698
:100C400000F07CFB94E80A00A268134401335B1AAD
:100C5000052BEDD90A400125D31C45F0040E0422D2
:100C600062F3891E0631002044F823E001922160DE
:100C700000F098FAB91C07F1030C07F1040E31409B
:100C80000CEA060C0EEA060E7B1D334004EB8101D4
:100C900004EB8C0C04EB8E0E04EB8303109AC1F86A
:100CA0000CA01F48CCF80C900021CEF80C20119A13
:100CB000DA6000F037FB80F310007B19334004EB5F
:100CC000830300043E40033640EA1840D86014F81D
:100CD0002630019A68F3C50304F8263034F826302C
:100CE00062F3891324F8263054F826206BF39F22F0
:100CF000134665F301036FF3820344F8262004F8DA
:100D0000263094F820341BB1FFF7DAFC0028FBD121
:100D100007B0BDE8F08F39469CE700BF34030020E0
:100D20005007002030B4174DD5F8104400215CB1B5
:100D3000E3681A798A4204D116E0DB681A798A429C
:100D400012D01B68002BF8D1C3681971D5F8103484
:100D500093B1DA68C36812681A60D5F81034DB689A
:100D60001860084630BC704701310A29DFD14FF0C6
:100D7000FF31084630BC7047C5F81004C2681360E4
:100D8000EFE700BF3403002038B5094BD3F8104417
:100D9000012583F820544CB1E3685D712368204637
:100DA0005B689847E3681C68002CF5D138BD00BF2C
:100DB000340300202DE9F04784B01D460C9C00232D
:100DC00094F80C802373EB8881460E461746002B5F
:100DD0003BD1297A05290FD06B7A002B3DD1404BAE
:100DE000A88853F821A00021FFF72AFC52460346A9
:100DF0003C49204600F03EFB062F0FD8DFE807F005
:100E0000484D535A04633900F168B06896E80C0005
:100E1000019100904946204600F02CFB2B7A052BCF
:100E200005D06B7A5BB93049204600F023FB2046A1
:100E300000F014FB84F80C8004B0BDE8F0872B4A66
:100E40002B49204600F016FBEDE7284A009229497D
:100E5000294A204600F00EFBBBE7A888FFF71AFCE2
:100E6000264B234953F82020204600F003FB297A23
:100E7000B5E77069316996E80C000390B068F768CF
:100E800002918DE881004946204600F0F3FAC5E75B
:100E90004946204600F0EEFAC0E73268494620464F
:100EA00000F0E8FABAE7494696E80C00204600F060
:100EB000E1FAB3E7B16896E80C0020460091494694
:100EC00000F0D8FAAAE7B068F768316996E80C0034
:100ED00002918DE881004946204600F0CBFA9DE75B
:100EE000803E0000703E00007C3E0000643E00003A
:100EF0006C3E00004C3E0000443E00000C3E0000F2
:100F0000082900D970472DE9F04F1D46904600236F
:100F10002A7B2B7385B0B8F80630039207460E463D
:100F2000002B6BD198F80810052911D098F80930DA
:100F3000002B6BD13C4BB8F8040053F82140002142
:100F4000FFF77EFB224603463849284600F092FA16
:100F5000DFF8F8B0DFF8F8900024A64249462846AA
:100F60003ED93A5D013400F085FA082CF5D13049BC
:100F7000DFF8E090DFF8E0B0284600F07BFA0024CC
:100F800011E017F804A002F0B9FE50445946437826
:100F900013F0970F14BF52462E222846013400F05A
:100FA00069FA082C08D0A64249462846E9D80134F7
:100FB00000F060FA082CF6D198F80830052B02D022
:100FC00098F80930A3B91B49284600F053FA28467F
:100FD00000F044FA9DF80C302B7305B0BDE8F08F9B
:100FE00001345946284600F045FA082CB5D1BEE731
:100FF000114A1249284600F03DFAE4E70E4A0092F1
:101000000F49104A284600F035FA8BE7B8F804007B
:10101000FFF740FB0C4B094953F82020284600F00D
:1010200029FA98F8081085E7803E0000703E00001D
:101030003C3E00007C3E0000643E00006C3E000030
:101040004C3E0000443E00000C3E0000383E0000D4
:10105000303E0000783E0000403E0000074B1B5C25
:101060001F2B86BF03F01F0305494FF0A04101224B
:1010700002FA03F3C1F80C35704700BFE43E0000EC
:1010800000030050074B1B5C1F2B86BF03F01F03A0
:1010900005494FF0A041012202FA03F3C1F80835D7
:1010A000704700BFE43E000000030050C20730B4A8
:1010B0000FD483070BD54FF0A04211490023C2F88B
:1010C0006C37C2F87437C2F87C37C1F8003730BCCF
:1010D00070474FF0A04303224FF480054FF4000403
:1010E0004FF08071C3F85827C3F85C27C3F8602716
:1010F000C3F80855C3F80845C3F80815D9E700BF79
:101100000003005000B585B000230390194601AAE2
:1011100044F201000193029300F004F805B05DF879
:1011200004FB00BF10B572B6FFF72EFEFFF7C8FA3A
:101130000028FBD1104B114C1149E41AE408240497
:1011400044F00100FFF7EEFB0E4B1B68DB0700D5F8
:1011500000BE44F002000C49FFF7E4FBBFF34F8FE1
:101160000A490B4BCA6802F4E0621343CB60BFF339
:101170004F8F00BFFDE700BF144700003447000059
:10118000E83E0000F0ED00E0F43E000000ED00E07D
:101190000400FA0572B6024A1368013313607047FF
:1011A000F0070020034A1368013B136003B962B6DD
:1011B000704700BFF00700201EF0040F1CBFEFF3C4
:1011C00009800AE0EFF308800549064A884201D801
:1011D000904202D88D464FF00000034B18470000A4
:1011E0000000042000E0032011120000BFF34F8F25
:1011F0000549064BCA6802F4E0621343CB60BFF3B3
:101200004F8F00BFFDE700BF00ED00E00400FA05CE
:101210002DE9F04782B08146FFF7B6FDFFF750FA9F
:101220000028FBD1334B344F9D6A344BB9F1000F8A
:1012300056D0FF1AFF083F0447F00107D9F81820DD
:101240002F493846FFF7E0FBD9F80C00D9F8081011
:1012500099E80C000190009138462A49FFF7CCFC30
:10126000D9F81C10D9F81430D9F81020009138465C
:101270002549FFF73BFC1F4BDB6A99072BD4DFF8AE
:101280009CA0DFF89C800024012606FA04F32B4280
:1012900007D05AF8243041461A4638460BB1FFF7BA
:1012A000B3FB01341A2CF0D12A060DD42B0405D53A
:1012B000104B16499A6B3846FFF7A6FB4846FFF7D6
:1012C00095FF02B0BDE8F0870A4B11495A6B3846CA
:1012D000FFF79AFBEAE70F493846FFF723FBCEE713
:1012E000FF1AFF083F0447F001070B493846FFF794
:1012F00019FBC0E700ED00E0444700001447000080
:10130000043F00001C3F0000543F0000204000004C
:1013100000400000B03F00007C3F00003C40000067
:10132000F43F000000B550E8002F0B4640E8003EB7
:101330009EF0000FF7D110465DF804FB00B550E8B1
:10134000003F03EB010240E8002E9EF0000FF6D1B3
:1013500010465DF804FB00BF00B550E8003FA3EB6A
:10136000010240E8002E9EF0000FF6D110465DF815
:1013700004FB00BF00B5012350E8002F42EA030E32
:1013800040E800E191F0000FF6D170465DF804FBF3
:1013900000B5002350E800EF0EEA030240E8002108
:1013A00091F0000FF6D170465DF804FBB8B130B48F
:1013B000416882680468521AD2B2531E2160DBB2BF
:1013C00042B101680A685C1E551C0D601370E3B2DF
:1013D000FF2BF6D103680020187130BC70470E2037
:1013E000704700BF70B504460020FFF7D3FE2368A6
:1013F00061681A688A4215D9511E19602168A3686C
:101400000D680879268A12F8012CE4685B1BDBB2B0
:10141000984206FB024400D20B710020FFF7C2FE87
:10142000204670BD00240020FFF7BCFE204670BDA2
:1014300038B5054600200C46FFF7ACFE2A68136855
:10144000591C1160E9682A8A641AB4FBF2F41C7012
:101450000020BDE83840FFF7A5BE00BF826802B992
:10146000704710B504464369016800699847002336
:10147000A36010BD0EB400B582B0039929B102AAD1
:1014800004AB42F8043D00F095F802B05DF804EBBF
:1014900003B070472DE9F84F1746B9428846064613
:1014A0001D46DDF828B00B9A7DD30B464FF001099D
:1014B000B3FBF7F39F4209F10109F9D9A94538BFF8
:1014C000A94612F0010A02D1BBF1000F49D1B2685E
:1014D000012402E0013D07FB04F4012DFAD8B8FB1A
:1014E000F4F18F42F7D9324D05E0B4FBF7F4A4B123
:1014F000B8FBF4F1B268685C531CB360336898546D
:10150000B26873689A4204FB1188EED33046FFF745
:10151000A5FFB4FBF7F4002CEAD1BAF1000F16D006
:10152000BBF1000F33D0CB4588BF20243ED9B36830
:101530003268591CB160D454B26873689A420BF196
:10154000FF3B06D2BBF1000F09D0D945EFD1BDE872
:10155000F88F3046FFF782FFBBF1000FF5D1BDE8F1
:10156000F88F93071AD42024CB45B0D9B2683368DA
:10157000511CB1609C54B26873689A420BF1FF3BF6
:1015800007D2BBF1000FA3D0CB45F0D1A0E7BDE857
:10159000F88F3046FFF762FFB268F2E7002D0CBF0C
:1015A00030242024E0E74FF0010987E7BDE8F88FF9
:1015B00084450000002900F06F822DE9F04F0646B7
:1015C00085B093460C460B780DE0B2683168501C2C
:1015D000B0608B54B26873689A4280F0D3802378ED
:1015E000002B00F0BA800134002B00F0B680252BD0
:1015F000EBD14FF00008234614F8012B2D2A00F000
:10160000BB80302A00F0BB802B2A00F0AD802A2A54
:1016100000F0BC80A2F13005E9B2092998BF01337E
:1016200002D9A9E1A1F130051C4613F8012BA2F162
:10163000300005EB8501092802EB4101F2D92E2A81
:1016400000F0B080002701E014F8012F02F0FB0346
:10165000682BF9D0253A532A7AD8DFE812F07A01BC
:1016600079007900790079007900790079007900B2
:1016700079007900790079007900790079007900A2
:101680007900790079007900790079007900790092
:101690007900790079007900790079007900790082
:1016A0007900790079007900790079007900790072
:1016B0007900790079007900790079007900790062
:1016C000790079006A017900790079007900790060
:1016D000790079007900790079005501FC007900E2
:1016E000790079007900FC007900790079007900AF
:1016F00079007900540079007900CA007900BA00B5
:10170000790079006A01DBF80020131DCBF8003066
:10171000B368156831685A1CB2604FF03002CA5481
:10172000B3687268934280F0A0813268581C7821B7
:10173000B060D154B26873689A4280F092810022FE
:10174000082301922946009310223046FFF7A2FE9B
:1017500001342378002B7FF446AF337B002B40F01D
:10176000058105B0BDE8F08F234614F8012B2D2A22
:1017700048F004087FF445AF48F001083BE748F023
:10178000020838E73046FFF769FE28E7DBF800205B
:10179000111DCBF8001015685A782E2A03F10104A8
:1017A0007FF450AF6278A2F13003092B04F10104F9
:1017B0004FF000073FF64AAF07EB870702EB4707FA
:1017C00014F8012FA2F13003092BA7F13007F3D948
:1017D0003CE7DBF800301A1DCBF800201968CDF883
:1017E00004803B4600950A223046FFF753FE013441
:1017F000AFE7DBF800301A1DCBF8002018F0010F1E
:10180000D3F8009040F0BB80B9F1000F00F04781A1
:10181000484602F0A6FA0746BD4240F2F180002D8C
:1018200000F0EE804FF0200805E0BD4200F0E880B7
:10183000002D00F0E580B3683268591CB16002F8F1
:101840000380B26873689A4205F1FF35EDD33046E4
:10185000FFF704FEE9E7DBF800301A1DCBF80020A3
:10186000D3F8009089EAE973A3EBE973092B4FF0F1
:10187000010A09DD8F4A82FB0312DB17C3EBA203C7
:10188000092B0AF1010AF5DCBA4538BFBA462DB377
:10189000B9F1000F02DB18F0040F00D0013D18F081
:1018A000020F40F0F58018F0010F17D1002D00F065
:1018B000FE80AA4538BF202110D2B2683368501C80
:1018C000B0609954B26873689A4205F1FF3580F0B0
:1018D000E880002D00F0EB80AA45EED1B9F1000FB1
:1018E000C0F2C88018F0040F7BD108F00303022B6C
:1018F00000F09A808DE820013B4649460A22304696
:10190000FFF7C8FD013424E7DBF80020131DCBF8F6
:101910000030B36831681278581CB060CA54B2689D
:1019200073689A42FFF414AF3046FFF797FD013415
:101930000FE7DBF800301A1DCBF800201968CDF84E
:1019400004803B46009510223046FFF7A3FD01348A
:10195000FFE6B3683268591CB1604FF02501D154DD
:10196000B26873689A42DFD20134F2E6304605B0BD
:10197000BDE8F04FFFF772BD1C4600255FE64F46FD
:10198000A7EB090817F8013B8BB1B2683168501C0E
:10199000B0608B54B26873689A42F1D33046FFF757
:1019A0005DFDA7EB090817F8013B002BEDD145457C
:1019B0007FF6CEAE202705E045453FF4C9AE002DA9
:1019C0003FF4C6AEB3683268591CB160D754B268F0
:1019D00073689A4205F1FF35EED33046FFF73EFDBE
:1019E000EAE7B2683368501C2B21B0609954B268A2
:1019F00073689A42FFF479AF3046FFF72FFD74E722
:101A000009F1FF3919F8013F002B3FF4A1AEB2688C
:101A10003168501CB0608B54B26873689A42F1D33D
:101A20003046FFF71BFDEDE7002F7FF463AF002D7D
:101A300033D0AA45BFF45EAFB2683368511CB160C1
:101A40004FF030019954B26873689A4205F1FF353E
:101A500003D215B3AA45EFD14CE73046FFF7FEFCA1
:101A6000F7E73046FFF7FAFC69E63046FFF7F6FC89
:101A7000B3685AE6B2683368501C2D21B06099549F
:101A8000B26873689A42C9F10009FFF42EAFB3E758
:101A9000002F3FF423AF06E7704700252AE74F46A3
:101AA000BAE630460391FFF7D9FC039911E7002508
:101AB00014E700BF67666666FFF778BC2DE9F04162
:101AC000B0F81080CF1CA8F1040847440646B7FBC5
:101AD000F8F7FFF787FC80B3FFB200250123013F31
:101AE0000446A0F8068006600571437128D0804640
:101AF00009E06379AF4203F101036371C8F80000A4
:101B0000066080461CD03046FFF76CFC013500288B
:101B1000EFD16679721E16D02346013082421B68CF
:101B2000FBD81F684EB1214600250C6801353846A8
:101B3000FFF77EFCAE422146F7D10020BDE8F081E0
:101B40002046BDE8F0812768EDE700BF04300121A1
:101B5000FFF7F4BBF8B5012104460430FFF7FCFBA6
:101B6000C0B200B1F8BD6679721E12D023460130B2
:101B700082421B68FBD81F68002EF3D02146002448
:101B80000D6801343846FFF753FCA6422946F7D1C9
:101B9000F8BD2768F2E700BF2DE9F843C78890F841
:101BA00005E0154607FB0EFEEC18AEF1040E1A1DFB
:101BB000A6458846B2FBF7F638BFAEEB030507FB38
:101BC0001621044616B1013E2468FCD17E1AAE42AD
:101BD00028BF2E469DB14FF00009081DAD1B08EB34
:101BE00009012044324602F0A9F8AF42B14424680A
:101BF0003E464FF0000128BF2E46002DEDD1BDE836
:101C0000F88300BF2DE9F843C78890F805E0154632
:101C100007FB0EFEEC18AEF1040E1A1DA645884611
:101C2000B2FBF7F638BFAEEB030507FB16210446FF
:101C300016B1013E2468FCD17E1AAE4228BF2E4662
:101C40009DB14FF0000904312144AD1B324608EB31
:101C5000090002F073F8AF42B14424683E464FF0E9
:101C6000000128BF2E46002DEDD1BDE8F88300BF4E
:101C7000826800239360826813618268536182687E
:101C8000D3608268536082681360704710B568B192
:101C900001280AD10C4C2369A07033B10CCB012070
:101CA000226198472369002BF8D110BD064CA36828
:101CB00001226270002BF8D00CCB0020A260984764
:101CC000A368002BF8D110BDF407002010B50B4C11
:101CD000237882B013B1852002B010BD084863603C
:101CE000A3602361E36000F0C7F8019000F0D2F830
:101CF00001980123237002B010BD00BFF40700203B
:101D00008D1C000038B5154D6B78044673B110B1C9
:101D10004368002098470020FFF73CFA6B680133C6
:101D20006B600020BDE83840FFF73CBA03F0FF00CD
:101D3000FFF730FA64B1AA6842B1944208D0134662
:101D400001E09C4204D01B68002BFAD12260AC60F9
:101D50006B68002BE2D100F0B1F8DFE7F407002058
:101D600038B5084C0020FFF715FA6368013B636043
:101D7000656815B900F0B4F865700020BDE838401A
:101D8000FFF710BAF407002070B50A4A0A4B06782C
:101D90004568047AC06853F8213052F8211084B0A5
:101DA00003908DF8006001958DF8084068469847CB
:101DB00004B070BD080800201008002070B50A4A61
:101DC0000A4B067845688468C06853F8213052F899
:101DD000211084B003908DF8006001958DF80840C3
:101DE0006846984704B070BD08080020100800201D
:101DF0002DE9F043DFF8748006784B7F08F8063051
:101E00000D46074694460FCD89B06C460FC495E841
:101E10000F003D78DFF85890DFF858E018F80550CB
:101E200049F826C084E80F004EF82600049665B1F4
:101E3000BCF1000F0B4A694607F1040008BF0022FD
:101E400000F014FC09B0BDE8F083BCF1000F064AB5
:101E5000694607F10C0008BF002200F097F909B0AD
:101E6000BDE8F083891D0000BD1D00002009002091
:101E70001008002008080020054A13790BB18520BE
:101E8000704701211060537118461171704700BFEF
:101E900018080020084B1A68D20706D40122C02176
:101EA00083F80013C3F880211A604FF080430122A9
:101EB000C3F81825704700BF00E100E0074B00227F
:101EC0001A6082B01B68019301994FF08043012290
:101ED000C3F804231A6002B0704700BF000100403D
:101EE000074B01221A604FF08042D2F80C3403F005
:101EF0000113B3F1011FF8D0024B00225A71704751
:101F0000040000401808002010B5144B1A6882B075
:101F100062B10021124A19601B68507900934FF09A
:101F200080410123009CC1F8083390B10D4B1A6821
:101F30006AB100221A601B6801934FF080420221AF
:101F4000074B0198C2F808131B680120984702B09C
:101F500010BD116853718847E8E700BF00010040D9
:101F60001808002004010040014B1B68184700BFFF
:101F70002008002038B50C4B984201D0002038BD15
:101F800000200D46FFF706F9084B1C7924B100200C
:101F9000FFF708F9112038BD012220461D601A7193
:101FA000FFF700F9204638BD00200040200800203F
:101FB000034B984203D1034B00221A601A717047F9
:101FC000002000402008002030B56E4AD2F80433CB
:101FD00099058BB05BD5D2F82431002B57D0002364
:101FE000C2F82431D2F8243103934FF40171664BC7
:101FF0000398C2F8081393F8291009B90121516018
:10200000604902228DF81820D1F88024C1F880247C
:102010009869D96809920022089007919A6193E81B
:102020001200DA6106A8A047564AD2F81C31C3B1A3
:10203000554B186A5969884265D293F8280000F018
:10204000FF0400285FD1C2F81C41D2F81C11029194
:1020500002999C68186A196A205C01311962C2F8F9
:102060001C05484AD2F844317BB10021464BC2F8E6
:102070004411D2F8440193F829100090009809B156
:10208000012111609A69002A52D10BB030BD3D4A3E
:10209000D2F804335B07C7D5D2F80831002BC3D080
:1020A000394B9969002952D00021C2F80811D2F8A1
:1020B000081104910499D868596AD2F81825425435
:1020C0005A6A996901325A625A6A8A42ACD1DA690B
:1020D000002A45D193F8292012B92A4A01215160DA
:1020E000284A4FF40171C2F80813596ADA68089156
:1020F0000024012007928DF8180093E806009C61E7
:1021000006A8904790E71F4A0020C2F81C01D2F8A9
:102110001C210192019A0029A3D09A688DF8180019
:1021200008915861079206A893E80600904798E73F
:102130000022586AD9689A610122089007918DF8A7
:10214000182006A893E8060090470BB030BDC2F8EF
:102150000811D2F8080105900598D2F81825B3E7C0
:10216000DD685C6A18699A6101210022D860DA6131
:102170005A628DF818100795089493E8060006A88F
:10218000904751E700200040280800202DE9F04149
:10219000734E05792C2303FB056382B093F82A3034
:1021A0001BB1082002B0BDE8F0810F4604466D491E
:1021B00000689046FFF7DEFE18B1112002B0BDE8BE
:1021C000F0813B68591C19D01F2B4FF001028ABFC8
:1021D00065494FF0A04103F01F0302FA03F3C1F871
:1021E00008353B681F2B86BF03F01F035E4A4FF084
:1021F000A04203F5E073032142F823107B685A1CC8
:102200000BD01F2B86BF03F01F03574A4FF0A0428D
:1022100003F5E073002142F823102368BA69C3F87C
:102220002425397D7B7D22680B43C2F86C3597E805
:1022300006002368C3F81425C3F80C153B7D012B59
:1022400051D02C2303FB05F3F218C2F804803A693D
:10225000F250B8F1000F35D023683A7F434F002188
:10226000C3F81C11D3F81C3100932368DDF800E09B
:10227000C3F84411D3F84411236801910199C3F8BC
:1022800004732168090B4BB2002B60DB03F1604340
:1022900003F561435201D2B283F800232268120B86
:1022A00042F3C40323F0604323F0030303F16043CC
:1022B00003F5614302F01F02012101FA02F2C3F8A3
:1022C00080211A602C23246803FB05630022042567
:1022D0000121C4F8005583F82A109A61DA6183F865
:1022E00029205A615EE7BB68591C0BD01F2B86BFA3
:1022F00003F01F031C494FF0A04103F5E0730022D7
:1023000041F82320FB685A1C1AD01F2B8ABF16499C
:102310004FF0A04103F01F03012202FA03F3C1F8BA
:102320000835FB681F2B88BF03F01F0303F5E0731C
:102330008CBF0D494FF0A041032241F82320FB68D8
:102340002268B968C2F80835C2F8101579E7084B59
:1023500001F00F0152010B44D2B21A769EE700BF82
:1023600028080020C91F0000000300508000020060
:10237000FCEC00E0F8B53A4D047902682C2303FB2D
:10238000045300215B68C2F8001583B10368354A25
:10239000C3F808230368344E1B0B5AB2520920328B
:1023A00003F01F03012101FA03F346F8223003680A
:1023B0004FF0FF3ED3F80C75D3F81465D3F8082519
:1023C000D3F81015C3F814E5C3F80CE50368774596
:1023D000C3F808E5C3F810E50CD01F2F86BF07F03F
:1023E0001F07224B4FF0A04307F5E0774FF0020E96
:1023F00043F827E0771C0BD01F2E86BF06F01F0680
:102400001A4B4FF0A04306F5E076022743F82670FA
:102410004E1C0BD01F2986BF01F01F01134B4FF03C
:10242000A04301F5E071022643F82160531C0BD054
:102430001F2A86BF02F01F020C4B4FF0A04302F58B
:10244000E072022143F822100068FFF7B1FD2C234F
:1024500003FB0454002384F82A306360F8BD00BFF6
:10246000280800208402020000E100E00003005080
:10247000F0B5304E05792C2303FB056385B05C690C
:1024800014B1112005B0F0BD1C62996083F828409A
:102490005A610268C2F81C41D2F81C11026802910C
:1024A0000121029F91600268D3F808E0C2F81C4144
:1024B000D2F81C1101910199D3F820C0196A5F6804
:1024C0001EF80CC001311962C2F81CC517B12046B4
:1024D00005B0F0BD1A6A5C690168944203D819E03E
:1024E00093F82820F2B9D1F81C21002AF8D0C1F8BD
:1024F0001C71D1F81C210392039AD3F820C01A6AE8
:102500001EF80CC001321A62C1F81CC51A6AA24238
:10251000E9D30168D1F81C31002BFBD00123CB603B
:10252000002000E00F202C2303FB056300225A61EA
:10253000A8E700BF2808002070B54A4BD3F8242133
:1025400088B0002A55D1D3F81011F1B9454BD3F812
:10255000442152B10020444AC3F84401D3F8444115
:1025600091690194019C002960D13E4BD3F8202150
:102570004AB100213C4AC3F82011D3F820415069E8
:102580000094009C30BB08B070BDC3F81021D3F894
:1025900010113548039103998169D3F83C458C4269
:1025A000D4D1C569002D50D0D3F80012C66885611A
:1025B00021F02001C3F800120369C2610122016801
:1025C000C3608DF81840436805968DF8102004A864
:1025D0009847BBE7D3F84C0593688DF818008DF841
:1025E00010105161059304A892E80A00984708B0BA
:1025F00070BD0021C3F82411D3F8242102920222D5
:102600008DF81020029AD3F88004174AC3F880048A
:102610000790D3F83C05D3688DF818009161D1611B
:1026200005931168536804A898478FE7D3F83C4591
:102630008DF81840D36890610124059311685368A0
:102640008DF8104004A898478FE7C368016885613A
:10265000012205938DF8184043688DF8102004A8D6
:10266000984773E700200040540800202DE9F0430C
:102670000479824EE7003B1906EB830385B093F89B
:1026800020301BB1082005B0BDE8F083894605461F
:102690007B4900689046FFF76DFC18B1112005B02A
:1026A000BDE8F083D9F80030591C1AD01F2B4FF029
:1026B00001028ABF73494FF0A04103F01F0302FAE1
:1026C00003F3C1F80835D9F800301F2B86BF03F09B
:1026D0001F036C4A4FF0A04203F5E073032142F858
:1026E0002310D9F804305A1C0BD01F2B86BF03F0DF
:1026F0001F03644A4FF0A04203F5E073002142F843
:1027000023102B68D9F81820C3F8242599F8141041
:1027100099F815202B680A43C3F86C252A68D9F864
:102720000030D9F80410C2F80C35C2F8141599F825
:102730001430012B61D03A199200B318C3F8048009
:10274000D9F81030B350B8F1000F47D0296899F884
:102750001C20DFF838E10023C1F81031D1F8101146
:1027600000912968DDF800C0C1F82031D1F82011AE
:1027700001912968DDF804C0C1F82431D1F8241191
:1027800002912968DDF808C0C1F84431D1F844113C
:102790002B6803910399C3F804E32968090B4BB232
:1027A000002B63DB03F1604303F561435201D2B2B6
:1027B00083F800232A68120B42F3C40323F060431A
:1027C00023F0030303F1604303F5614302F01F02AA
:1027D000012101FA02F2C3F880211A603C442A6800
:1027E00006EB840400230125082184F82050C2F858
:1027F0000015A361E361636145E7D9F80830591C0E
:102800000BD01F2B86BF03F01F031E494FF0A041C2
:1028100003F5E073002241F82320D9F80C305A1C4C
:102820001CD01F2B8ABF17494FF0A04103F01F0394
:10283000012202FA03F3C1F80835D9F80C301F2B36
:1028400088BF03F01F0303F5E0738CBF0D494FF001
:10285000A041032241F82320D9F80C302A68D9F886
:102860000810C2F80835C2F8101564E7064B01F0ED
:102870000F0152010B44D2B21A769BE75408002094
:102880003925000000030050FCEC00E010030200BA
:10289000F8B506793A4C0268F500AB1904EB8303EE
:1028A00000215B68C2F8001583B10368354AC3F89C
:1028B00008230368344F1B0B5AB25209203203F02D
:1028C0001F03012101FA03F347F8223003684FF098
:1028D000FF3CD3F80CE5D3F81475D3F80825D3F8EA
:1028E0001015C3F80CC5C3F814C50368E645C3F852
:1028F00008C5C3F810C50DD0BEF11F0F86BF0EF07E
:102900001F0E224B4FF0A0430EF5E07E4FF0020C5D
:1029100043F82EC07B1C0CD01F2F86BF07F01F076B
:102920001A4B4FF0A04307F5E0774FF0020E43F843
:1029300027E04F1C0BD01F2986BF01F01F01134B4E
:102940004FF0A04301F5E071022743F82170531CBA
:102950000BD01F2A86BF02F01F020C4B4FF0A04382
:1029600002F5E072022143F82210354404EB85049D
:102970000068FFF71DFB002384F820306360F8BD7A
:10298000540800201003020000E100E000030050A2
:1029900001F06043B3F1005F01D010207047F0B543
:1029A0000579214EEF007C1906EB840483B063693E
:1029B00013B1112003B0F0BDA1606261D0F800E056
:1029C000CEF82031DEF820C1D0F800E0CDF804C008
:1029D000DDF804C0CEF85831DEF858C1D0F800E078
:1029E000CDF800C0DDF800C0CEF84415CEF848257B
:1029F00002680121916062680AB11846DAE703684B
:102A000000E079B9D3F82021D3F85811002AF8D082
:102A1000002914BF0F2000207B1906EB830300223E
:102A20005A61C7E70F20F7E754080020012910B5C5
:102A30000BD002290C4607D10020FEF70FFB2046E1
:102A4000BDE81040FEF71EBB10BD0020FEF71AFBCC
:102A50000220BDE81040FEF701BB00BF00B5002119
:102A600085B00846FDF7CEFD58BBFDF74FFD0120B0
:102A7000FEF71CFB0020FEF7F1FA0021184801F0D8
:102A80001FF850BB04AA4FF4807342F8043D154967
:102A90000092154B0E22042000F01CFED0B90399C1
:102AA000114801F045F890B901F0DAF860B9FDF786
:102AB00007FE0028FBD120BFFDF702FE0028F6D15B
:102AC000F9E7FEF71FFBD0E7FEF71CFBEFE7FEF789
:102AD00019FBE9E7FEF716FBE1E7FEF713FBD1E789
:102AE0002D2A0000B84500002409002010B44FF042
:102AF00080414FF080520020C1F80C015E4BC1F8BC
:102B00001001C1F83805D2F80414C3F82015D2F822
:102B10000814C3F82415D2F80C14C3F82815D2F8F9
:102B20001014C3F82C15D2F81414C3F83015D2F8C9
:102B30001814C3F83415D2F81C14C3F84015D2F891
:102B40002014C3F84415D2F82414C3F84815D2F859
:102B50002814C3F84C15D2F82C14C3F85015D2F829
:102B60003014C3F85415D2F83414C3F86015D2F8F1
:102B70003814C3F86415D2F83C04C3F86805D2F8D9
:102B800040043E49C3F86C050968D2F84424C3F8F0
:102B90007025082924D04FF08043D3F80024D207B1
:102BA00044BF6FF00102C3F80024354AD2F88830E0
:102BB00043F47003C2F88830BFF34F8FBFF36F8FB9
:102BC0004FF01023D3F80022002A23DBD3F804327D
:102BD000002B1FDB2B4B2C4A1A605DF8044B70470F
:102BE0002A4B1B68002BD6D129482A4A2A4C04605C
:102BF0002A492B4BFB20C2F818050A681B68294894
:102C000022F00F0203F00F0313434FF400720B6026
:102C10000260C0E7244B0122C3F80425D3F8002446
:102C2000002AFBD04FF0102312221F49C3F80022C4
:102C3000D1F80034002BFBD04FF0102212211A4B98
:102C4000C2F80412D3F80024002AFBD0002216494F
:102C5000C3F80425D1F80034002BFBD0BFF34F8F0D
:102C60000749124BCA6802F4E0621343CB60BFF31A
:102C70004F8F00BFFDE700BF00C0004030010010D3
:102C800000ED00E01C0000200090D0033401001093
:102C90008C56004000F0004048810300E40E0040E4
:102CA000580200104096024000E001400400FA057E
:102CB000F0B5284B19780A2985B046D0264A07294D
:102CC00013781ED056789578D4788DF804307340F8
:102CD0006B4063400422FF210DF109008DF808309C
:102CE0008DF805608DF806508DF8074001F031F839
:102CF00003238DF80D300A2101A800F097FF05B0DD
:102D0000F0BD5778D57814795079967891798DF807
:102D1000043085EA04027B4083F08803424073401C
:102D20004A408DF8057003278DF807308DF806604E
:102D30008DF808508DF809408DF80C208DF80A00A8
:102D40008DF80B108DF80D70D5E7034800F06EFF7D
:102D5000D5E700BFB2080020A808002038B93E4BD4
:102D60001B78082B04D03D4B01221A607047704736
:102D70003B4B1B681A07F6D13A4B1B6813F0F00F58
:102D800004D1394B1B6813F0F00FECD070B5374904
:102D9000087880B9364B1A6801321A601A68022A1C
:102DA00000D070BD334A2D4C1860012323600B7096
:102DB000D360136070BD304A2748002313700B7036
:102DC0000378082B1CD0117801F0FF0341BB184693
:102DD000224B2A4CD3F83C142368194221D0284CAA
:102DE000237853B930B9224B22491860012313705C
:102DF000CB600B602348FEF785FF0123237070BD75
:102E0000174B1B681B07DED1164B1B6813F0F00F26
:102E1000D9D1154B1B6813F0F00FD4D10120D7E79F
:102E200070BD012208B1184B1A600C4E0125B56027
:102E3000FEF796FF1248154A00234FF4886103708D
:102E4000C6F8081316682560002EAAD0104A294635
:102E500010681A46B04770BDE00F00F00050004007
:102E6000E40F00F0E80F00F0EC0F00F0780800200D
:102E70008808002000B001408C08002020000020BD
:102E8000840800207C08002010500040900800209A
:102E90009408002070B53648364C0123036125782C
:102EA000B5B9354A1168013111601168022904D0A1
:102EB0002F4B0022C3F8402170BD304915600B60D4
:102EC0002370C36003602A4B0022C3F8402170BD09
:102ED0002B482C490022027022700A78082A1CD044
:102EE000027802F0FF03002AE2D1244A264CD2F8ED
:102EF0003C14226811421FD0244C227852B933B9B5
:102F00001D491B4A0B6001230370D36013602048E6
:102F1000FEF7F8FE01232370CAE71E4A1268120763
:102F2000DED11D4A126812F0F00FD9D11B4A126887
:102F300012F0F00FD4D1D8E701220BB1184B1A6070
:102F40000E4E0125B560FEF70BFF1048154A002311
:102F50004FF488610370C6F8081316682560002EC8
:102F6000A6D0114A294610681A46B047A0E700BF0C
:102F700000B0014078080020880800200050004080
:102F80008C080020E00F00F02000002084080020C2
:102F90007C080020E40F00F0E80F00F0EC0F00F0D8
:102FA000105000409008002094080020F8B5774A9F
:102FB000774D784B147828601960002C6BD0764BD5
:102FC0001B78082B00F0AE80744B754875490625B8
:102FD0000322042CC0F80453C0F80413C0F80C25D5
:102FE00000F09E80072C00F0CB8059781D789C78EB
:102FF0006D4A0B0243EA05432343C0F89835842405
:1030000053781578907866491B0243EA05430343D9
:103010000332C1F8943553781578D0789178604AA6
:103020001B0443EA0563034343EA0123C2F89035D6
:10303000C2F8A045FFF73CFE5C4B5D4A5A60002297
:103040001A60FEF743FE544B1B78082B56D0594BA1
:10305000594A00210424C3F804154FF47A77C3F8C1
:1030600008150126C3F810454FF000614FF4803574
:10307000C024C3F84075C3F80062C3F80453C2F813
:10308000801182F81B43116020B1852814BF0320F2
:103090000020F8BDF8BD4FF0805307211170D3F820
:1030A0005044D3F85414D3F858043C4B250A0F0A63
:1030B0000E0C5D700D0EC9B24FEA144E1C70D87123
:1030C000040A88294FEA104083F802E01F715E71FC
:1030D0009D71D9701C7258721FD02F490978082928
:1030E00040D02F4B2F482D4A06240321C3F8044318
:1030F000C3F804034424C3F80C1581E72F4B1B6865
:103100001C07A4D12E4B1B6813F0F00F9FD12D4B41
:103110001B6813F0F00F9AD1B6E79921D970DCE75C
:103120001E4A78E7254B1B6813F00F0F1B4B7FF4EB
:103130004CAF2349096811F0F00F7FF446AF2149E5
:10314000096811F0F0017FF440AF1F4D1F4C204F74
:10315000204E21482F6001273F2537602560016000
:10316000147832E71549096809070CD00C4B0D4952
:1031700006200322C3F80403C3F80413C3F80C2584
:10318000064A44243CE70724D3E700BFB2080020E6
:103190009008002094080020E00F00F0A80800200C
:1031A0000050004080000800AB0800207C08002090
:1031B0005D2D000000B0014000E100E0E40F00F0F0
:1031C000E80F00F0EC0F00F08C5600402C56004049
:1031D000488103001C5600403C56004030B4084B68
:1031E000084901242022C025C1F804448C60C3F89A
:1031F000802183F805531A60002030BC704700BF5F
:1032000000E100E00050004009B90C20704770B4A4
:103210000C4C0D4A0023236083B024680194019E66
:10322000C2F8100540F6F87404EAC1011025012423
:103230001846C2F81C15C2F80453D46003B070BC21
:10324000704700BF1051004000500040F0B59C4B4B
:10325000D3F804218BB022B1D3F80023900700F1FA
:10326000AA80974BD3F80821002A40F0DE80944BC7
:10327000D3F818211AB1D3F80023520677D4904A14
:10328000D2F810311BB1D2F80033DE0655D48C4A87
:10329000D2F84C311BB1D2F800331D031ED4884B39
:1032A000D3F81C21C2B1D3F80023140614D5854AE3
:1032B000D3F804040021116012680992C007099A2A
:1032C00006D5814A107818B10120C3F804041170A2
:1032D0007B4B0122C3F804240BB0F0BD7B4C7C482F
:1032E0007C49DFF804E27C4E7C4D00232360246897
:1032F0000894089C03600068079007980B600968B1
:1033000006910698C2F810E501214FF48864102751
:103310000D20C2F81475D161C2F80443C2F80C0440
:10332000C2F80414346802222A60002CB7D06C4A18
:10333000194610681A46A047B1E76A496A4D6648BF
:1033400000230B600968059101241021059EC2F835
:103350000813C2F81055C2F81415D4610468002C83
:1033600095D05F4A032110681A46A0478FE7584A54
:10337000D3F824050021116012680392039AD3F850
:103380002821002A5ED1584A1378302B00F0D280D1
:103390001378502B00F0DB80494BD3F8202412F037
:1033A000010F4FF0010214BF9A625A62444B40224F
:1033B000C3F8082363E74D4A0021116012680192A7
:1033C000019AD3F80821002A4DD0D3F800335A07C8
:1033D00049D5474B19601B680293029B0323454A5A
:1033E0001278082A184640D0434A117801F0FF02AB
:1033F00000297FF43CAF032B00F08E80012B44D0DA
:10340000022B7FF434AF3D4C23785BB93AB93C4B87
:103410003C4939481A6001230370CB600B603A487D
:10342000FEF770FC0123237021E7D3F800335B071C
:103430007FF51DAF2E4B00221A601B680293029B82
:103440000123CCE7D3F8002357059CD5214AD3F8B4
:103450000C441160126804920D2214420499C3F8BE
:103460000C249AD18FE70223B9E7284A1268110782
:10347000BAD1274A126812F0F00FB5D1254A126866
:1034800012F0F00FB0D10122B5E7144D002A4ED151
:103490000B4E0124B460FEF763FC18480E4A00236B
:1034A0004FF488610370C6F8081316682C60002E6C
:1034B0003FF4DDAE0A4A214610681A46B047D6E608
:1034C000005000401C510040B30800204C51004007
:1034D0001851004028510040900800202000002092
:1034E000940800201051004098080020045100402A
:1034F00008510040E00F00F08C08002084080020F4
:103500008808002000B001407C080020E40F00F093
:10351000E80F00F0EC0F00F0114B124DD3F83C1403
:103520002B6819427FF46FAF0120002AB0D00E4BF8
:103530001860ADE70D4B1C68002C3FF4A0AE0C49A1
:10354000C0F3C803023B08680221A04797E6094977
:10355000034B012040220870C3F808238FE600BF08
:103560000050004020000020105000409008002033
:1035700094080020B3080020002836D02DE9F0433D
:10358000914683B03AB30768804627B30D468168F9
:1035900069B30026043F34460CBB01290CBFC0218F
:1035A0008021D9F800309B1B019357F8040F01AB21
:1035B0002A4600F02DF8013450B9019B1E4405B194
:1035C0001D44D8F80810A142E6D8C9F800600020D0
:1035D00003B0BDE8F0830E2003B0BDE8F083631CA8
:1035E0008B420CBF40210021DBE70E2070470E46C6
:1035F000EBE700BF83684268934201D30420704721
:10360000026842F82310836801338360002070470A
:1036100000284ED02DE9F041154604464278007A44
:1036200084B086183AB1073645B18A061CD0072007
:1036300004B0BDE8F081861D002DF6D12F46D4F8E8
:1036400010800193B8F1000F2FD0606903AA2946BA
:10365000C0470028ECD1019B03980DB102BA3A6033
:10366000304418600020E3E71A68B24203D2042015
:1036700004B0BDE8F081297022782F46114307F885
:10368000021B227A6A706278AAB90635227AE1684A
:103690000193284600F052FB217A6278019B0D4489
:1036A0007AB91A68921B0392C9E70E2004B0BDE8EC
:1036B000F0810E20704741F008012970AA7107358A
:1036C000E4E72846616800F039FB6278019B154405
:1036D000E7E700BFF0B58FB00D46002101248DF85B
:1036E00014000DF1040E1F468DF81C20104E114AD7
:1036F000049105AB8DF82110099102A808A906953F
:10370000CDF808E003948DF820408DF828400B9602
:103710000C920D93FFF76EFF28B935B1394602A818
:10372000149AFFF729FF0FB0F0BD0E200FB0F0BDC7
:10373000C64500003937000038B50446154669B162
:10374000027A2B689A4201D3042038BD08462378B8
:1037500000F8013B227A616800F0F0FA237A013325
:103760002B60002038BD00BF2DE9F047C64C8442D5
:1037700001D0BDE8F0870329FBD8DFE801F01E3156
:1037800054022378042B00F06581052BF1D194F8C5
:10379000682094F8693004219A422170E9D194F8A4
:1037A0006A30002BE5D11A466568A0680321A84756
:1037B000012384F86A30BDE8F0872378042B00F0F9
:1037C0003981052BD5D0032BD3D104226568227013
:1037D0000023A068AC461A460121BDE8F0476047C7
:1037E0002378042B00F02881052B00F0358194F814
:1037F0006950002D00F0128100210E46022208209F
:103800000127013107FA02F3A94243EA000300F05D
:103810000781013AD8B2F4D5A319072283F84800EA
:1038200001360020EDE7002BA3D0002AA1D01178AB
:1038300030299ED1022B9CD12378042B99D1577823
:103840006269BE0005239642237004D3A369103B2E
:103850009E4240F203818D4D10222846002100F047
:1038600078FA63699E4280F0FF80A3EB0608A5F119
:103870001401B8F10F0F314400F20081424628468E
:103880001E4600F05BFA4544C8F11008A369B34234
:1038900012D961692269E368711AA2EB0109C14575
:1038A00028BFC146284619444A4600F047FAB8EBFB
:1038B00009084E444D4432D0A369B34200F0EA8077
:1038C000E369B3420ED99B1B434528BF4346994643
:1038D00028461A4600211E4400F03BFAB8EB0908BE
:1038E0004D441CD0236AB34214D99B1B434528BFC7
:1038F00043461A462846FF21994600F02AFAE36912
:103900000E339E1B46459CBF3F23AB55B8EB0908C1
:103910004D4404D042462846002100F01AFA5B4D7F
:1039200028461021FFF770FCFB08A7EBC30E032FFE
:10393000CEF1070094F8682040F2948004EB030C69
:1039400001269CF8481006FA00F011EA000504D0A0
:1039500021EA00018CF8481035462A44D2B20126EB
:10396000DEF1060507F1010144BF0133072511F01F
:10397000FF014CD0032912D904EB030C4FF0010EC8
:103980009CF848100EFA05F611EA060004D021EA68
:1039900006018CF8481070460244D2B2012605F1A7
:1039A000FF3E002D66D0B91C11F0FF012FD0032976
:1039B00011D904EB030C01269CF8481006FA0EF509
:1039C00011EA050004D021EA05018CF848103046C0
:1039D0000244D2B201260EF1FF31BEF1000F46D0F3
:1039E000F81C10F0FF0012D0032810D02344012649
:1039F00093F8480006FA01F110EA010504D020EA24
:103A0000010183F8481035462A44D2B20126002E1F
:103A10003FF4AFAE84F86820BDE8F0872E46284614
:103A20002644002386F8480084F8683084F86A3019
:103A3000BDE8F087BDE8F0870123154A6568A068F6
:103A400003EB43031A4400239278227002211A46A2
:103A5000A847CCE6BDE8F0870423EEE7E568B61A90
:103A600035445DE700267BE74FF010080EE7013391
:103A70000721B5E701334FF0070E94E710222846DF
:103A800000F05CF94CE700BFB4080020EC0800200F
:103A9000D4450000236A002B3FF412AFE3699E4235
:103AA0003FF40EAF01222846FE21164400F051F9E2
:103AB000B8F1010805F101057FF402AF2FE700BF5F
:103AC00058B1F8B5174C2378042B04D0052B02D03D
:103AD000032B00D01BB10820F8BD072070470B4610
:103AE000606001250A221049A36004F124002570BA
:103AF000E12700F023F91026FF237C250F2284F80C
:103B00002E3084F82F3084F8307084F8316084F8D7
:103B1000325084F8332021460448BDE8F840FFF7CE
:103B200045BA00BFB4080020C8450000693700004E
:103B3000B1F5777F01D90C207047F0B4394E337856
:103B4000042B08D0052B06D0032B04D01BB1012B6E
:103B500004D0022B5CD00820F0BC70470923324A05
:103B600003EB430313449B7833700323002851D0A5
:103B7000FE29F060316186F834303AD84D1DAD0829
:103B8000C8B2EFB2123112244FF47C724FF480634A
:103B900086F835007461B16186F86970F26133624C
:103BA0009DB300210846022208240127013107FAAB
:103BB00002F3A94243EA040311D0013ADCB2F5D57D
:103BC00033180722013183F84840A9424FF000041E
:103BD00007FA02F300F1010043EA0403EDD13318C0
:103BE000002083F8484086F8680086F86A00F0BC38
:103BF0007047CD1D0B0AAD0886F83710EFB286F876
:103C0000363014311424FF20BEE728462C46E6E760
:103C10000C23A4E70125F060306186F834302F468C
:103C20001221B0E7B4080020D445000010B50446C6
:103C300050B10A2901D00C2010BD0A4601460648A1
:103C400000F07CF8002010BD0A220449024800F070
:103C500075F8204610BD00BFD8080020C8450000F8
:103C6000094A1378042B08D0052B06D0032B04D067
:103C70001BB1012B01D0022B01D008207047032378
:103C80001370FFF7ABBA00BFB408002008B5074BAC
:103C9000044613B10021AFF30080054B1868836A16
:103CA00003B19847204600F071F800BF0000000003
:103CB0000046000070B50D4E0D4CA41BA41000254D
:103CC000A54209D10B4E0C4C00F062F8A41BA410C5
:103CD0000025A54205D170BD56F82530984701351D
:103CE000EEE756F8253098470135F2E7F401002059
:103CF000F4010020F4010020F8010020044B054AE3
:103D00001B681B6A002B08BF1346D3F8EC007047F2
:103D1000240000208800002082B001B901A942B12E
:103D20004BB113780B601278101C18BF012002B041
:103D300070471046FBE76FF00100F8E710B5431E2F
:103D40000A44914200D110BD11F8014B03F8014F14
:103D5000F7E702440346934200D1704703F8011B82
:103D6000F9E7034613F8012B002AFBD1181A013892
:103D7000704749B1FF2A85BF8A2303600A704FF05C
:103D8000FF3098BF0120704708467047FEE700BF2C
:103D9000F8B500BFF8BC08BC9E467047F8B500BF38
:103DA000F8BC08BC9E467047FFFFFFFFFFFFFFFF08
:103DB000FFFFFFFFFFFFFFFF00000000000000000B
:103DC0000000D60106010000F903000065040000B0
:103DD000F5030000756172745F6C6F675F62616309
:103DE0006B656E6400000000580700207F00000033
:103DF000D80700204261636B656E647320666C7542
:103E0000736865640000000061707000643E00002B
:103E1000943E0000443E00009C3E0000A43E000092
:103E2000AC3E0000B43E0000BC3E0000C43E0000BA
:103E30002025303278000000202020007C00000087
:103E4000256300001B5B313B33316D0025734C6FE4
:103E500067732064726F707065642028256429255B
:103E6000730D0A001B5B306D00000000257300001D
:103E70003C25733E2025733A200000000D0A000007
:103E80000000000034420000CC3E0000D43E0000A0
:103E9000DC3E00001B5B313B33306D001B5B313B74
:103EA00033326D001B5B313B33336D001B5B313BA9
:103EB00033346D001B5B313B33356D001B5B313B95
:103EC00033366D001B5B313B33376D007761726EAB
:103ED000696E6700696E666F000000006465627558
:103EE0006700000016171800466174616C20657247
:103EF000726F720053797374656D207265736574A7
:103F00000000000048415244204641554C54206175
:103F100074203078253038580000000020205230BE
:103F20003A2020307825303858202052313A20204D
:103F3000307825303858202052323A2020307825E9
:103F4000303858202052333A2020307825303858E5
:103F50000000000020205231323A203078253038DD
:103F60005820204C523A20203078253038582020D4
:103F70005053523A203078253038580053746163DA
:103F80006B2076696F6C6174696F6E3A207374612F
:103F9000636B20706F696E746572206F75747369DE
:103FA000646520737461636B20617265612E00002B
:103FB00043617573653A204275734661756C742070
:103FC0006F6E206120766563746F72207461626C1D
:103FD00065207265616420647572696E672065781A
:103FE00063657074696F6E2070726F636573736957
:103FF0006E672E0043617573653A2025732E0000AD
:104000004D656D4D616E616765204661756C74200C
:10401000416464726573733A2030782530385800F3
:10402000427573204661756C7420416464726573D7
:10403000733A20307825303858000000A440000042
:10404000E440000000000000404100008C410000FE
:10405000D8410000000000000000000024420000E1
:104060003C420000A84200001443000058430000F6
:104070009C4300000000000000000000A44000007D
:10408000E04300003C440000C44400000000000085
:10409000000000000000000000000000F8440000E4
:1040A0002C4500005468652070726F636573736FF0
:1040B000722068617320617474656D70746564202A
:1040C000746F206578656375746520616E20756E08
:1040D000646566696E656420696E73747275637475
:1040E000696F6E005468652070726F636573736FDB
:1040F0007220617474656D707465642061206C6FEA
:104100006164206F722073746F7265206174206126
:10411000206C6F636174696F6E20746861742064D1
:104120006F6573206E6F74207065726D6974207492
:104130006865206F7065726174696F6E00000000C1
:10414000556E737461636B20666F7220616E2065BB
:104150007863657074696F6E2072657475726E2015
:1041600068617320636175736564206F6E65206F8D
:1041700072206D6F72652061636365737320766969
:104180006F6C6174696F6E7300000000537461633B
:104190006B696E6720666F7220616E20657863655B
:1041A0007074696F6E20656E747279206861732017
:1041B000636175736564206F6E65206F72206D6F2B
:1041C0007265206163636573732076696F6C6174D7
:1041D000696F6E730000000041204D656D4D616E8A
:1041E000616765206661756C74206F6363757272B8
:1041F000656420647572696E6720666C6F617469AE
:104200006E672D706F696E74206C617A792073749B
:1042100061746520707265736572766174696F6E22
:1042200000000000496E737472756374696F6E20CC
:10423000627573206572726F720000004461746170
:1042400020627573206572726F7220285043207649
:10425000616C756520737461636B656420666F7251
:104260002074686520657863657074696F6E20726C
:10427000657475726E20706F696E747320746F2030
:1042800074686520696E737472756374696F6E20EB
:104290007468617420636175736564207468652057
:1042A0006661756C742900004461746120627573E5
:1042B000206572726F72202872657475726E20614B
:1042C00064647265737320696E207468652073740A
:1042D00061636B206672616D65206973206E6F7417
:1042E0002072656C6174656420746F207468652049
:1042F000696E737472756374696F6E20746861742B
:104300002063617573656420746865206572726FDF
:1043100072290000556E737461636B20666F7220A2
:10432000616E20657863657074696F6E2072657464
:1043300075726E2068617320636175736564206FA8
:104340006E65206F72206D6F7265204275734661D5
:10435000756C747300000000537461636B696E6761
:1043600020666F7220616E20657863657074696F76
:104370006E20656E74727920686173206361757355
:104380006564206F6E65206F72206D6F72652042CC
:1043900075734661756C747300000000412062758E
:1043A00073206661756C74206F63637572726564E7
:1043B00020647572696E6720666C6F6174696E67E0
:1043C0002D706F696E74206C617A792073746174DA
:1043D0006520707265736572766174696F6E000036
:1043E0005468652070726F636573736F72206861C3
:1043F0007320617474656D7074656420746F2065DA
:1044000078656375746520616E20696E737472756A
:104410006374696F6E2074686174206D616B65737D
:1044200020696C6C6567616C20757365206F662010
:1044300074686520455053520000000054686520A0
:1044400070726F636573736F72206861732061743B
:1044500074656D7074656420616E20696C6C65674D
:10446000616C206C6F6164206F66204558435F5219
:10447000455455524E20746F207468652050432C6B
:10448000206173206120726573756C74206F6620E3
:10449000616E20696E76616C696420636F6E74650D
:1044A00078742C206F7220616E20696E76616C6961
:1044B00064204558435F52455455524E2076616CF6
:1044C000756500005468652070726F636573736F63
:1044D000722068617320617474656D707465642006
:1044E000746F20616363657373206120636F707202
:1044F0006F636573736F72005468652070726F63C9
:104500006573736F7220686173206D6164652061EB
:104510006E20756E616C69676E6564206D656D6F88
:1045200072792061636365737300000054686520CD
:1045300070726F636573736F722068617320657842
:1045400065637574656420616E2053444956206F1D
:1045500072205544495620696E737472756374698C
:104560006F6E207769746820612064697669736F63
:1045700072206F6620300000686172646661756C3D
:104580007400000030313233343536373839414227
:1045900043444546636C6F636B000000434C4F43DC
:1045A0004B0000005052530055415254000000008F
:1045B00055415254450000006D616B65726469613C
:1045C00072792E636F6D5500000102030405060722
:1045D000080900000406050408030409020507048D
:1045E000050803050902030504030902000001018F
:1045F0000102020403020A00020102020902000091
:10460000280000204300504F534958002E0000203E
:104610002020202020202020282828282820202072
:104620002020202020202020202020202020208822
:104630001010101010101010101010101010100486
:1046400004040404040404040410101010101010D6
:1046500041414141414101010101010101010101CA
:1046600001010101010101010101101010101010E0
:10467000424242424242020202020202020202029A
:1046800002020202020202020202101010102000B6
:10469000000000000000000000000000000000001A
:1046A000000000000000000000000000000000000A
:1046B00000000000000000000000000000000000FA
:1046C00000000000000000000000000000000000EA
:1046D00000000000000000000000000000000000DA
:1046E00000000000000000000000000000000000CA
:1046F00000000000000000000000000000000000BA
:1047000000000000000000000000000000000000A9
:0447100000000000A5
:104714009C45000000000000A445000000000000CB
:10472400A845000000000000B045000000000000A3
:10473400083E000000000303944500000000000050
:084744007845000000000303AA
:10474C00C83D000000000000D43D00001400002013
:10475C00640200202C030020340300206C02002093
:04476C001800000031
:08477000FCBAFF7F010000000C
:104778000000000000200040000000000020004071
:104788000000000000000000FF0000000090D003BF
:1047980001000000280000200000000000000000C8
:1047A8000000000000000000000000000000000001
:1047B80000000000000000000000000000000000F1
:1047C80000000000000000000000000000000000E1
:1047D80000000000000000000000000000000000D1
:1047E80000000000000000000000000000000000C1
:1047F800000000000000000043000000000000006E
:1048080000000000000000000000000000000000A0
:10481800000000000000000043000000000000004D
:104828000000000000000000000000000000000080
:10483800000000000000000043000000000000002D
:104848000000000000000000000000000000000060
:10485800000000000000000043000000000000000D
:104868000000000000000000000000000000000040
:1048780000000000000000004300000000000000ED
:104888000000000000000000000000000000000020
:1048980000000000000000004300000000000000CD
:1048A8000000000000000000000000000000000000
:1048B80000000000000000004300000000000000AD
:1048C80000000000000000000000000000000000E0
:1048D8000000000000000000733D0000193D0000CA
:1048E800000000000E4600000C4600000D460000C7
:1048F8000D4600000D4600000D4600000D46000064
:104908000D4600000D4600000D4600000D46000053
:10491800FFFFFFFFFFFFFFFFFFFFFFFFFFFF00009D
:104928000100415343494900000000000000000015
:10493800000000000000000000000000000000006F
:1049480000004153434949000000000000000000F6
:10495800000000000000000000000000000000004F
:104968000000000025020000010200000000000015
:04000003000002E116
:00000001FF
