:1000000000000420E1020000090300000B030000CF
:100010000D0300000F0300001103000000000000AA
:1000200000000000000000000000000013030000BA
:100030001503000000000000170300001903000072
:100040001B0300001B0300001B0300001B03000038
:100050001B0300001B0300001B0300001B03000028
:100060001B0300001B0300001B0300001B03000018
:100070001B0300001B0300001B0300001B03000008
:100080001B0300001B0300001B0300001B030000F8
:100090001B0300001B0300001B0300001B030000E8
:1000A0001B0300001B0300001B0300001B030000D8
:1000B0001B0300001B030000000000000000000004
:1000C0001B0300001B0300001B0300001B030000B8
:1000D0001B0300001B0300001B0300001B030000A8
:1000E0001B0300001B0300001B03000000000000B6
:1000F000000000001B030000000000001B030000C4
:1001000000000000000000000000000000000000EF
:1001100000000000000000000000000000000000DF
:1001200000000000000000000000000000000000CF
:1001300000000000000000000000000000000000BF
:1001400000000000000000000000000000000000AF
:10015000000000000000000000000000000000009F
:10016000000000000000000000000000000000008F
:10017000000000000000000000000000000000007F
:10018000000000000000000000000000000000006F
:10019000000000000000000000000000000000005F
:1001A000000000000000000000000000000000004F
:1001B000000000000000000000000000000000003F
:1001C000000000000000000000000000000000002F
:1001D000000000000000000000000000000000001F
:1001E000000000000000000000000000000000000F
:1001F00000000000000000000000000000000000FF
:1002000010B5054C237833B9044B13B10448AFF350
:1002100000800123237010BD70000020000000004A
:10022000500600000C4B43B10C480D4910B5AFF31C
:1002300000800C48036823B910BD0A48036833B92D
:100240007047094B002BF7D0BDE810401847064B0C
:10025000002BF5D0184700BF00000000500600003A
:10026000740000206C00002000000000154B002BE3
:1002700008BF134B9D46A3F5803A00218B460F46DD
:100280001348144A121A00F0C1F90F4B002B00D08A
:1002900098470E4B002B00D0984700200021040007
:1002A0000D000D48002802D00C48AFF3008000F08C
:1002B00089F92000290000F031F800F06FF900BF43
:1002C0000000080000000420000000000000000002
:1002D000700000208C0000200000000000000000E2
:1002E0000649074A074B9B1A03DD043BC858D05008
:1002F000FBDC00F071F8FFF7B9FF00005C060000BE
:100300000000002070000020FEE7FEE7FEE7FEE7A9
:10031000FEE7FEE7FEE7FEE7FEE7FEE770B5012039
:10032000094D00F02DF845F001050026304600F09B
:100330000DF84FF4FA744FF47A40A847013CFAD113
:100340000136032EF2D1F0E7400600000A4B195C9B
:100350001F298ABF09484FF0A04001F01F01D0F8C3
:10036000043501228A4022EA03011340C0F808152F
:10037000C0F80C35704700BF48060000000300506D
:10038000C20730B40FD483070BD54FF0A0421149F8
:100390000023C2F86C37C2F87437C2F87C37C1F852
:1003A000003730BC70474FF0A04303224FF4800564
:1003B0004FF400044FF08071C3F85827C3F85C274E
:1003C000C3F86027C3F80855C3F80845C3F80815F3
:1003D000D9E700BF0003005010B44FF080414FF048
:1003E00080520020C1F80C015E4BC1F81001C1F829
:1003F0003805D2F80414C3F82015D2F80814C3F84D
:100400002415D2F80C14C3F82815D2F81014C3F828
:100410002C15D2F81414C3F83015D2F81814C3F8F8
:100420003415D2F81C14C3F84015D2F82014C3F8C0
:100430004415D2F82414C3F84815D2F82814C3F888
:100440004C15D2F82C14C3F85015D2F83014C3F858
:100450005415D2F83414C3F86015D2F83814C3F820
:100460006415D2F83C04C3F86805D2F840043E494C
:10047000C3F86C050968D2F84424C3F8702508292C
:1004800024D04FF08043D3F80024D20744BF6FF04C
:100490000102C3F80024354AD2F8883043F47003CF
:1004A000C2F88830BFF34F8FBFF36F8F4FF0102328
:1004B000D3F80022002A23DBD3F80432002B1FDB01
:1004C0002B4B2C4A1A605DF8044B70472A4B1B6873
:1004D000002BD6D129482A4A2A4C04602A492B4BA2
:1004E000FB20C2F818050A681B68294822F00F0291
:1004F00003F00F0313434FF400720B600260C0E778
:10050000244B0122C3F80425D3F80024002AFBD091
:100510004FF0102312221F49C3F80022D1F80034F3
:10052000002BFBD04FF0102212211A4BC2F80412FC
:10053000D3F80024002AFBD000221649C3F8042572
:10054000D1F80034002BFBD0BFF34F8F0749124B7B
:10055000CA6802F4E0621343CB60BFF34F8F00BF61
:10056000FDE700BF00C000403001001000ED00E0DA
:10057000000000200090D003340100108C56004091
:1005800000F0004048810300E40E004058020010D3
:100590004096024000E001400400FA0508B5074B10
:1005A000044613B10021AFF30080054B1868836A3D
:1005B00003B19847204600F031F800BF000000006A
:1005C0004C06000070B50D4E0D4CA41BA410002568
:1005D000A54209D10B4E0C4C00F022F8A41BA4102C
:1005E0000025A54205D170BD56F825309847013544
:1005F000EEE756F8253098470135F2E76400002011
:1006000064000020640000206800002002440346CB
:10061000934200D1704703F8011BF9E7FEE700BFE2
:10062000F8B500BFF8BC08BC9E467047F8B500BFDF
:10063000F8BC08BC9E4670470000000000000000A7
:100640000338FDD87047000016171800040000207A
:0406500000000000A6
:0806540018FCFF7F010000000B
:10065C000090D0030000000000000000000000002B
:10066C00000000000000000000000000000000007E
:10067C00000000000000000000000000000000006E
:10068C00000000000000000000000000000000005E
:10069C00000000000000000000000000000000004E
:1006AC00000000000000000000000000000000003E
:1006BC000000000025020000010200000000000004
:04000003000002E116
:00000001FF
