:1000000000000120E1020000090300000B030000D2
:100010000D0300000F0300001103000000000000AA
:1000200000000000000000000000000013030000BA
:100030001503000000000000170300001903000072
:100040001B0300001B0300001B0300001B03000038
:100050001B0300001B0300001B0300001B03000028
:100060001B0300001B0300001B0300001B03000018
:100070001B0300001B0300001B0300001B03000008
:100080001B0300001B0300001B0300001B030000F8
:100090001B0300001B0300001B0300001B030000E8
:1000A0001B0300001B0300001B0300001B030000D8
:1000B0001B0300001B030000000000000000000004
:1000C0001B0300001B0300001B0300001B030000B8
:1000D0001B0300001B0300001B03000000000000C6
:1000E0000000000000000000000000000000000010
:1000F0000000000000000000000000000000000000
:1001000000000000000000000000000000000000EF
:1001100000000000000000000000000000000000DF
:1001200000000000000000000000000000000000CF
:1001300000000000000000000000000000000000BF
:1001400000000000000000000000000000000000AF
:10015000000000000000000000000000000000009F
:10016000000000000000000000000000000000008F
:10017000000000000000000000000000000000007F
:10018000000000000000000000000000000000006F
:10019000000000000000000000000000000000005F
:1001A000000000000000000000000000000000004F
:1001B000000000000000000000000000000000003F
:1001C000000000000000000000000000000000002F
:1001D000000000000000000000000000000000001F
:1001E000000000000000000000000000000000000F
:1001F00000000000000000000000000000000000FF
:1002000010B5054C237833B9044B13B10448AFF350
:1002100000800123237010BD70000020000000004A
:10022000400800000C4B43B10C480D4910B5AFF32A
:1002300000800C48036823B910BD0A48036833B92D
:100240007047094B002BF7D0BDE810401847064B0C
:10025000002BF5D0184700BF000000004008000048
:10026000740000206C00002000000000154B002BE3
:1002700008BF134B9D46A3F5803A00218B460F46DD
:100280001348144A121A00F0B9FA0F4B002B00D091
:1002900098470E4B002B00D0984700200021040007
:1002A0000D000D48002802D00C48AFF3008000F08C
:1002B00081FA2000290000F031F800F067FA00BF51
:1002C0000000080000000120000000000000000005
:1002D000700000208C0000200000000000000000E2
:1002E0000649074A074B9B1A03DD043BC858D05008
:1002F000FBDC00F065F8FFF7B9FF00004C080000D8
:100300000000002070000020FEE7FEE7FEE7FEE7A9
:10031000FEE7FEE7FEE7FEE7FEE7FEE770B5012039
:10032000094D00F025F845F001050026304600F0A3
:100330000DF84FF4FA744FF47A40A847013CFAD113
:100340000136032EF2D1F0E730080000074B4FF0E2
:10035000A041185CD1F804350122824022EA030052
:100360001340C1F80805C1F80C3570473808000083
:10037000C20730B414D54FF0A04303224FF48005D8
:100380004FF400044FF08071C3F85827C3F85C277E
:10039000C3F86027C3F80855C3F80845C3F8081523
:1003A00083070AD54FF0A0430022C3F86C27C3F897
:1003B0007427C3F87C27C3F80C2730BC704700BFF4
:1003C000F0B4B44B1A78062A20D0B34B1B68062B26
:1003D00000F08A80B14AD2F8883043F47003C2F842
:1003E0008830BFF34F8FBFF36F8F4FF01023D3F8D8
:1003F0000022002AC0F28A81D3F80432002BC0F216
:100400008581A74BA74A1A60F0BC704704331B686C
:100410001807DAD1A44B1B6803F0F002302A00F071
:10042000658103F0E003402B00F060819E4B1B6868
:1004300003F0F003302B00F01E819B4B1B6803F090
:10044000F002302A00F0078103F0E003402B00F0B7
:100450000281954B1B6803F0F003302B00F0EB801A
:10046000914B1B6803F0F002302A00F0D08003F0BB
:10047000E003402B00F0CB808B4B1B6803F0F003B4
:10048000302B00F0B680884B1B6803F0F003302B54
:1004900000F09880844B1B6803F0F003502B3FD092
:1004A000814B1B6803F0F002302A28D003F0E003F0
:1004B000402B24D07C4B1B6803F0F002302A03D081
:1004C00003F0E003402B80D14FF08043D3F80024A9
:1004D000D2077FF57AAF6FF00102C3F800246E4BAC
:1004E0001B68062B7FF476AF704B1B68062B7FF4DE
:1004F00071AF6F4A136843F4806313606AE76D4B12
:100500006D4A1B6803F04F031360624B1B78062B88
:100510007FF45BAF694B1B6818077FF456AFC9E7E0
:100520004FF08052664BD2F80414C3F82015D2F86D
:100530000814C3F82415D2F80C14C3F82815D2F8FF
:100540001014C3F82C15D2F81414C3F83015D2F8CF
:100550001814C3F83415D2F81C14C3F84015D2F897
:100560002014C3F84415D2F82414C3F84815D2F85F
:100570002814C3F84C15D2F82C14C3F85015D2F82F
:100580003014C3F85415D2F83414C3F86015D2F8F7
:100590003814C3F86415D2F83C14C3F86815D2F8BF
:1005A00040143C48C3F86C15D2F844140278C3F8E0
:1005B0007015062A7FF409AF404B1B681C077FF4B7
:1005C00004AF6DE73F4E404C4049414B05270125A4
:1005D00000203F223760256008601A602D4B1B7891
:1005E000062B7FF4F2AE354B1B681D077FF4EDAE92
:1005F00050E7284B374A1B780321062B11607FF404
:10060000E4AE2E4B1B681E077FF4DFAE3BE74FF0D6
:1006100080430022C3F80C21C3F81021C3F8382509
:100620001C4B1B78062B7FF470AF244B1B681F07F5
:100630007FF4CBAE20E72849164ACB68127823F026
:100640008073062ACB607FF4C0AE1C4B1B681B076F
:100650007FF4BBAE04E7214B0E4A1B681278204999
:10066000C3F34233062A0B60B8D1144B1B681A0738
:100670007FF4ABAEEDE6074B1A4A1B781A491160BE
:10068000062B7FF4A2AE0D4B1B6819077FF49DAEBD
:10069000D3E600BFE00F00F03001001000ED00E0F5
:1006A000000000200090D003E80F00F0340100109B
:1006B0003C17004058020010E40E0040E40F00F028
:1006C00000C00040105600408856004018560040B8
:1006D00014560040A0050040F0ED00E04402001078
:1006E0003C05004074C007400DF0ADBA204B214AD4
:1006F0001B6812782049C3F30423062A0B608FD1AC
:100700001E4B1B6819073FF491AE5EE61C4B01229D
:10071000C3F80425D3F80024002AFBD04FF010239F
:1007200015221749C3F80022D1F80034002BFBD062
:100730004FF010221521124BC2F80412D3F80024F6
:10074000002AFBD000220E49C3F80425D1F800345A
:10075000002BFBD0BFF34F8F0A490B4BCA6802F442
:10076000E0621343CB60BFF34F8F00BFFDE700BFD4
:1007700024030010E00F00F040350140E40F00F0CA
:1007800000E0014000ED00E00400FA0508B5074B69
:10079000044613B10021AFF30080054B1868836A4B
:1007A00003B19847204600F031F800BF0000000078
:1007B0003C08000070B50D4E0D4CA41BA410002584
:1007C000A54209D10B4E0C4C00F022F8A41BA4103A
:1007D0000025A54205D170BD56F825309847013552
:1007E000EEE756F8253098470135F2E7640000201F
:1007F00064000020640000206800002002440346DA
:10080000934200D1704703F8011BF9E7FEE700BFF0
:10081000F8B500BFF8BC08BC9E467047F8B500BFED
:10082000F8BC08BC9E4670470000000000000000B5
:100830000338FDD870470000161718000400002088
:0408400000000000B4
:0808440028FAFF7F010000000B
:10084C000090D00300000000000000000000000039
:10085C00000000000000000000000000000000008C
:10086C00000000000000000000000000000000007C
:10087C00000000000000000000000000000000006C
:10088C00000000000000000000000000000000005C
:10089C00000000000000000000000000000000004C
:1008AC000000000025020000010200000000000012
:04000003000002E116
:00000001FF
